{
  "transactions": [
    {
      "hash": "0x69a3bb7f472d48eca93a4c77c97685abe42c3ceb2464bf8789bc7886b2c841b8",
      "transactionType": "CALL",
      "contractName": null,
      "contractAddress": "0x00b036b58a818b1bc34d502d3fe730db729e62ac",
      "function": "initialize((address,address,uint24,int24,address),uint160)",
      "arguments": [
        "(0x1A7E36a76dC36B32C6061B2fA897B854782E22e3, 0xf00193015128cCbd2b7C9482064221435b6Bb39D, 3000, 60, 0xf26e2B26Be725b4e75f75c5b14eef0bf56F328C8)",
        "79228162514264337593543950336"
      ],
      "transaction": {
        "from": "0xec891a037f932493624184970a283ab87398e0a6",
        "to": "0x00b036b58a818b1bc34d502d3fe730db729e62ac",
        "gas": "0x1a856",
        "value": "0x0",
        "input": "0x6276cbbe0000000000000000000000001a7e36a76dc36b32c6061b2fa897b854782e22e3000000000000000000000000f00193015128ccbd2b7c9482064221435b6bb39d0000000000000000000000000000000000000000000000000000000000000bb8000000000000000000000000000000000000000000000000000000000000003c000000000000000000000000f26e2b26be725b4e75f75c5b14eef0bf56f328c80000000000000000000000000000000000000001000000000000000000000000",
        "nonce": "0x3",
        "chainId": "0x515"
      },
      "additionalContracts": [],
      "isFixedGasLimit": false
    }
  ],
  "receipts": [
    {
      "status": "0x1",
      "cumulativeGasUsed": "0x420c0",
      "logs": [
        {
          "address": "0x00b036b58a818b1bc34d502d3fe730db729e62ac",
          "topics": [
            "0xdd466e674ea557f56295e2d0218a125ea4b4f0f6f3307b95f85e6110838d6438",
            "0xe2c5686870b9ede4a76ed86b0f1500e12e6defa2049e440ab235f3ecb52de281",
            "0x0000000000000000000000001a7e36a76dc36b32c6061b2fa897b854782e22e3",
            "0x000000000000000000000000f00193015128ccbd2b7c9482064221435b6bb39d"
          ],
          "data": "0x0000000000000000000000000000000000000000000000000000000000000bb8000000000000000000000000000000000000000000000000000000000000003c000000000000000000000000f26e2b26be725b4e75f75c5b14eef0bf56f328c800000000000000000000000000000000000000010000000000000000000000000000000000000000000000000000000000000000000000000000000000000000",
          "blockHash": "0x61f2b8404a47271cea8b9e62e0dd76e38a02d460e64e754a72c328f5ca416904",
          "blockNumber": "0x243e492",
          "blockTimestamp": "0x693191de",
          "transactionHash": "0x69a3bb7f472d48eca93a4c77c97685abe42c3ceb2464bf8789bc7886b2c841b8",
          "transactionIndex": "0x6",
          "logIndex": "0x3",
          "removed": false
        }
      ],
      "logsBloom": "0x00000000000000000000000000000200000000000000000000000000000000002000000000000000000000000000000000000000000000000000000000000000000000000000000000000000002000000000000100000000000000000000000000000000000000000000000040000000000000000000400000000000000000000000000000000008000000000008000000000001000000000000000000200000000000000000000000000000000000000000000000000000000000000000080000000000000000000000000000000000000000000000000000000000000000000000000000000000000001000000000000000000000002000010000000000010",
      "type": "0x2",
      "transactionHash": "0x69a3bb7f472d48eca93a4c77c97685abe42c3ceb2464bf8789bc7886b2c841b8",
      "transactionIndex": "0x6",
      "blockHash": "0x61f2b8404a47271cea8b9e62e0dd76e38a02d460e64e754a72c328f5ca416904",
      "blockNumber": "0x243e492",
      "gasUsed": "0x13337",
      "effectiveGasPrice": "0x34",
      "blobGasUsed": "0xd7a0",
      "from": "0xec891a037f932493624184970a283ab87398e0a6",
      "to": "0x00b036b58a818b1bc34d502d3fe730db729e62ac",
      "contractAddress": null,
      "daFootprintGasScalar": "0x190",
      "l1BaseFeeScalar": "0x7d0",
      "l1BlobBaseFee": "0x3",
      "l1BlobBaseFeeScalar": "0xdbba0",
      "l1Fee": "0x279",
      "l1GasPrice": "0x3b",
      "l1GasUsed": "0x8a1"
    }
  ],
  "libraries": [],
  "pending": [],
  "returns": {},
  "timestamp": 1764856287386,
  "chain": 1301,
  "commit": "9925af8"
}