{
  "transactions": [
    {
      "hash": "0xae6335be9a1ac0d381e1744f2855c6f198befa77fe00400b840fcb65a0277b6b",
      "transactionType": "CALL",
      "contractName": null,
      "contractAddress": "0x1a7e36a76dc36b32c6061b2fa897b854782e22e3",
      "function": "approve(address,uint256)",
      "arguments": [
        "0x6422F708Daa832865672f9848BaEeB27A336a8c8",
        "500000000000000000000000"
      ],
      "transaction": {
        "from": "0xec891a037f932493624184970a283ab87398e0a6",
        "to": "0x1a7e36a76dc36b32c6061b2fa897b854782e22e3",
        "gas": "0xf7e0",
        "value": "0x0",
        "input": "0x095ea7b30000000000000000000000006422f708daa832865672f9848baeeb27a336a8c80000000000000000000000000000000000000000000069e10de76676d0800000",
        "nonce": "0x12",
        "chainId": "0x515"
      },
      "additionalContracts": [],
      "isFixedGasLimit": false
    },
    {
      "hash": "0x912ba0f0dc5795bc954561062b7a61b480f0bed5435ee68f69a8aa1ec053e659",
      "transactionType": "CALL",
      "contractName": null,
      "contractAddress": "0xf00193015128ccbd2b7c9482064221435b6bb39d",
      "function": "approve(address,uint256)",
      "arguments": [
        "0x6422F708Daa832865672f9848BaEeB27A336a8c8",
        "500000000000000000000000"
      ],
      "transaction": {
        "from": "0xec891a037f932493624184970a283ab87398e0a6",
        "to": "0xf00193015128ccbd2b7c9482064221435b6bb39d",
        "gas": "0xf7e0",
        "value": "0x0",
        "input": "0x095ea7b30000000000000000000000006422f708daa832865672f9848baeeb27a336a8c80000000000000000000000000000000000000000000069e10de76676d0800000",
        "nonce": "0x13",
        "chainId": "0x515"
      },
      "additionalContracts": [],
      "isFixedGasLimit": false
    },
    {
      "hash": "0xdb4890ff339e5c4a34619b45d2d4c8e7ac1976082778156bc6e24b21533208c6",
      "transactionType": "CALL",
      "contractName": "StealthPoolHook",
      "contractAddress": "0x6422f708daa832865672f9848baeeb27a336a8c8",
      "function": "addLiquidity((address,address,uint24,int24,address),uint256)",
      "arguments": [
        "(0x1A7E36a76dC36B32C6061B2fA897B854782E22e3, 0xf00193015128cCbd2b7C9482064221435b6Bb39D, 3000, 60, 0x6422F708Daa832865672f9848BaEeB27A336a8c8)",
        "500000000000000000000000"
      ],
      "transaction": {
        "from": "0xec891a037f932493624184970a283ab87398e0a6",
        "to": "0x6422f708daa832865672f9848baeeb27a336a8c8",
        "gas": "0x429aa",
        "value": "0x0",
        "input": "0x9e436f570000000000000000000000001a7e36a76dc36b32c6061b2fa897b854782e22e3000000000000000000000000f00193015128ccbd2b7c9482064221435b6bb39d0000000000000000000000000000000000000000000000000000000000000bb8000000000000000000000000000000000000000000000000000000000000003c0000000000000000000000006422f708daa832865672f9848baeeb27a336a8c80000000000000000000000000000000000000000000069e10de76676d0800000",
        "nonce": "0x14",
        "chainId": "0x515"
      },
      "additionalContracts": [],
      "isFixedGasLimit": false
    }
  ],
  "receipts": [
    {
      "status": "0x1",
      "cumulativeGasUsed": "0x3131c",
      "logs": [
        {
          "address": "0x1a7e36a76dc36b32c6061b2fa897b854782e22e3",
          "topics": [
            "0x8c5be1e5ebec7d5bd14f71427d1e84f3dd0314c0f7b2291e5b200ac8c7c3b925",
            "0x000000000000000000000000ec891a037f932493624184970a283ab87398e0a6",
            "0x0000000000000000000000006422f708daa832865672f9848baeeb27a336a8c8"
          ],
          "data": "0x0000000000000000000000000000000000000000000069e10de76676d0800000",
          "blockHash": "0xec0f602353773e750bd5ab1e41884c205eef55e974138662faba33b332398121",
          "blockNumber": "0x2470f3e",
          "blockTimestamp": "0x6934bc8a",
          "transactionHash": "0xae6335be9a1ac0d381e1744f2855c6f198befa77fe00400b840fcb65a0277b6b",
          "transactionIndex": "0x6",
          "logIndex": "0x0",
          "removed": false
        }
      ],
      "logsBloom": "0x00000000000000040000000000000000000000000000000000000000000000000000000000000200000000000000000040000000000000000000000000200000000000000000000000000000000000000000000000000000000000000000000000000000000000000000000000000000100000000000000000000000000000080000800000000000000000000000000008000000000000000000000000000000020000000000000000000000000000000000000000000000000000000000000000000000000000000000000000000000000000000002000000000000000000000014000000000000000000000000000000000000000000000000000000000000",
      "type": "0x2",
      "transactionHash": "0xae6335be9a1ac0d381e1744f2855c6f198befa77fe00400b840fcb65a0277b6b",
      "transactionIndex": "0x6",
      "blockHash": "0xec0f602353773e750bd5ab1e41884c205eef55e974138662faba33b332398121",
      "blockNumber": "0x2470f3e",
      "gasUsed": "0xb376",
      "effectiveGasPrice": "0x33",
      "blobGasUsed": "0x9c40",
      "from": "0xec891a037f932493624184970a283ab87398e0a6",
      "to": "0x1a7e36a76dc36b32c6061b2fa897b854782e22e3",
      "contractAddress": null,
      "daFootprintGasScalar": "0x190",
      "l1BaseFeeScalar": "0x7d0",
      "l1BlobBaseFee": "0x1",
      "l1BlobBaseFeeScalar": "0xdbba0",
      "l1Fee": "0x76",
      "l1GasPrice": "0x9",
      "l1GasUsed": "0x640"
    },
    {
      "status": "0x1",
      "cumulativeGasUsed": "0x3c692",
      "logs": [
        {
          "address": "0xf00193015128ccbd2b7c9482064221435b6bb39d",
          "topics": [
            "0x8c5be1e5ebec7d5bd14f71427d1e84f3dd0314c0f7b2291e5b200ac8c7c3b925",
            "0x000000000000000000000000ec891a037f932493624184970a283ab87398e0a6",
            "0x0000000000000000000000006422f708daa832865672f9848baeeb27a336a8c8"
          ],
          "data": "0x0000000000000000000000000000000000000000000069e10de76676d0800000",
          "blockHash": "0xec0f602353773e750bd5ab1e41884c205eef55e974138662faba33b332398121",
          "blockNumber": "0x2470f3e",
          "blockTimestamp": "0x6934bc8a",
          "transactionHash": "0x912ba0f0dc5795bc954561062b7a61b480f0bed5435ee68f69a8aa1ec053e659",
          "transactionIndex": "0x7",
          "logIndex": "0x1",
          "removed": false
        }
      ],
      "logsBloom": "0x00000000000000000000000000000000000000000000000000000000000000000000000000000200000000000000000040000000000000000000000000200000000000000000000000000000000000000000000000000000000800000000000000000000000000000000000000000000100000000000000000000000000000080000800000000000000000004000000000000000000000000000000000000000020000200000000000000000000000000000000000000000000000000000000000000000000000000000000000000000000000000002000000000000000000000010000000000000000000000000000000000000000000000000000000000000",
      "type": "0x2",
      "transactionHash": "0x912ba0f0dc5795bc954561062b7a61b480f0bed5435ee68f69a8aa1ec053e659",
      "transactionIndex": "0x7",
      "blockHash": "0xec0f602353773e750bd5ab1e41884c205eef55e974138662faba33b332398121",
      "blockNumber": "0x2470f3e",
      "gasUsed": "0xb376",
      "effectiveGasPrice": "0x33",
      "blobGasUsed": "0x9c40",
      "from": "0xec891a037f932493624184970a283ab87398e0a6",
      "to": "0xf00193015128ccbd2b7c9482064221435b6bb39d",
      "contractAddress": null,
      "daFootprintGasScalar": "0x190",
      "l1BaseFeeScalar": "0x7d0",
      "l1BlobBaseFee": "0x1",
      "l1BlobBaseFeeScalar": "0xdbba0",
      "l1Fee": "0x76",
      "l1GasPrice": "0x9",
      "l1GasUsed": "0x640"
    },
    {
      "status": "0x1",
      "cumulativeGasUsed": "0x69f3b",
      "logs": [
        {
          "address": "0x1a7e36a76dc36b32c6061b2fa897b854782e22e3",
          "topics": [
            "0xddf252ad1be2c89b69c2b068fc378daa952ba7f163c4a11628f55a4df523b3ef",
            "0x000000000000000000000000ec891a037f932493624184970a283ab87398e0a6",
            "0x00000000000000000000000000b036b58a818b1bc34d502d3fe730db729e62ac"
          ],
          "data": "0x0000000000000000000000000000000000000000000069e10de76676d0800000",
          "blockHash": "0xec0f602353773e750bd5ab1e41884c205eef55e974138662faba33b332398121",
          "blockNumber": "0x2470f3e",
          "blockTimestamp": "0x6934bc8a",
          "transactionHash": "0xdb4890ff339e5c4a34619b45d2d4c8e7ac1976082778156bc6e24b21533208c6",
          "transactionIndex": "0x8",
          "logIndex": "0x2",
          "removed": false
        },
        {
          "address": "0xf00193015128ccbd2b7c9482064221435b6bb39d",
          "topics": [
            "0xddf252ad1be2c89b69c2b068fc378daa952ba7f163c4a11628f55a4df523b3ef",
            "0x000000000000000000000000ec891a037f932493624184970a283ab87398e0a6",
            "0x00000000000000000000000000b036b58a818b1bc34d502d3fe730db729e62ac"
          ],
          "data": "0x0000000000000000000000000000000000000000000069e10de76676d0800000",
          "blockHash": "0xec0f602353773e750bd5ab1e41884c205eef55e974138662faba33b332398121",
          "blockNumber": "0x2470f3e",
          "blockTimestamp": "0x6934bc8a",
          "transactionHash": "0xdb4890ff339e5c4a34619b45d2d4c8e7ac1976082778156bc6e24b21533208c6",
          "transactionIndex": "0x8",
          "logIndex": "0x3",
          "removed": false
        },
        {
          "address": "0x00b036b58a818b1bc34d502d3fe730db729e62ac",
          "topics": [
            "0x1b3d7edb2e9c0b0e7c525b20aaaef0f5940d2ed71663c7d39266ecafac728859",
            "0x0000000000000000000000000000000000000000000000000000000000000000",
            "0x0000000000000000000000006422f708daa832865672f9848baeeb27a336a8c8",
            "0x0000000000000000000000001a7e36a76dc36b32c6061b2fa897b854782e22e3"
          ],
          "data": "0x0000000000000000000000006422f708daa832865672f9848baeeb27a336a8c80000000000000000000000000000000000000000000069e10de76676d0800000",
          "blockHash": "0xec0f602353773e750bd5ab1e41884c205eef55e974138662faba33b332398121",
          "blockNumber": "0x2470f3e",
          "blockTimestamp": "0x6934bc8a",
          "transactionHash": "0xdb4890ff339e5c4a34619b45d2d4c8e7ac1976082778156bc6e24b21533208c6",
          "transactionIndex": "0x8",
          "logIndex": "0x4",
          "removed": false
        },
        {
          "address": "0x00b036b58a818b1bc34d502d3fe730db729e62ac",
          "topics": [
            "0x1b3d7edb2e9c0b0e7c525b20aaaef0f5940d2ed71663c7d39266ecafac728859",
            "0x0000000000000000000000000000000000000000000000000000000000000000",
            "0x0000000000000000000000006422f708daa832865672f9848baeeb27a336a8c8",
            "0x000000000000000000000000f00193015128ccbd2b7c9482064221435b6bb39d"
          ],
          "data": "0x0000000000000000000000006422f708daa832865672f9848baeeb27a336a8c80000000000000000000000000000000000000000000069e10de76676d0800000",
          "blockHash": "0xec0f602353773e750bd5ab1e41884c205eef55e974138662faba33b332398121",
          "blockNumber": "0x2470f3e",
          "blockTimestamp": "0x6934bc8a",
          "transactionHash": "0xdb4890ff339e5c4a34619b45d2d4c8e7ac1976082778156bc6e24b21533208c6",
          "transactionIndex": "0x8",
          "logIndex": "0x5",
          "removed": false
        },
        {
          "address": "0x6422f708daa832865672f9848baeeb27a336a8c8",
          "topics": [
            "0x945dbf534e2e3fd3e4bd52cd3b2c686fa2bf79f9274ca64d31174f5eaaa51d7c",
            "0xee89da6207d919ea6a48c17148836e58bb139c47d141d74f7923cd31228a5ec7",
            "0x0000000000000000000000006422f708daa832865672f9848baeeb27a336a8c8"
          ],
          "data": "0x0000000000000000000000000000000000000000000069e10de76676d08000000000000000000000000000000000000000000000000069e10de76676d0800000",
          "blockHash": "0xec0f602353773e750bd5ab1e41884c205eef55e974138662faba33b332398121",
          "blockNumber": "0x2470f3e",
          "blockTimestamp": "0x6934bc8a",
          "transactionHash": "0xdb4890ff339e5c4a34619b45d2d4c8e7ac1976082778156bc6e24b21533208c6",
          "transactionIndex": "0x8",
          "logIndex": "0x6",
          "removed": false
        }
      ],
      "logsBloom": "0x00100000000000040000000000000200000000100000000000000200000000000000000000000200000000000000000040000000401000000000000000000000000000000000000000000008002004000000000100000000000800000000000000000000020000000000000000004800100000000000000000000010000000080000800000000000000000004008000009000000000000000000000000000010000000200000000000000000000020000000000000000220000000000000080000080002000000000000001000000000000000000002000000000000000020000004000000000000000001000000000000000000000002000010000004000010",
      "type": "0x2",
      "transactionHash": "0xdb4890ff339e5c4a34619b45d2d4c8e7ac1976082778156bc6e24b21533208c6",
      "transactionIndex": "0x8",
      "blockHash": "0xec0f602353773e750bd5ab1e41884c205eef55e974138662faba33b332398121",
      "blockNumber": "0x2470f3e",
      "gasUsed": "0x2d8a9",
      "effectiveGasPrice": "0x33",
      "blobGasUsed": "0xc4e0",
      "from": "0xec891a037f932493624184970a283ab87398e0a6",
      "to": "0x6422f708daa832865672f9848baeeb27a336a8c8",
      "contractAddress": null,
      "daFootprintGasScalar": "0x190",
      "l1BaseFeeScalar": "0x7d0",
      "l1BlobBaseFee": "0x1",
      "l1BlobBaseFeeScalar": "0xdbba0",
      "l1Fee": "0x96",
      "l1GasPrice": "0x9",
      "l1GasUsed": "0x7e6"
    }
  ],
  "libraries": [],
  "pending": [],
  "returns": {},
  "timestamp": 1765063818217,
  "chain": 1301,
  "commit": "c08d523"
}