{
  "transactions": [
    {
      "hash": "0x8f9c32dfb229cf143ef22717e4e02023b8dbd415d6f82babdb5a81fa6e61ef5a",
      "transactionType": "CALL",
      "contractName": null,
      "contractAddress": "0x00b036b58a818b1bc34d502d3fe730db729e62ac",
      "function": "initialize((address,address,uint24,int24,address),uint160)",
      "arguments": [
        "(0x1A7E36a76dC36B32C6061B2fA897B854782E22e3, 0xf00193015128cCbd2b7C9482064221435b6Bb39D, 3000, 60, 0x6422F708Daa832865672f9848BaEeB27A336a8c8)",
        "79228162514264337593543950336"
      ],
      "transaction": {
        "from": "0xec891a037f932493624184970a283ab87398e0a6",
        "to": "0x00b036b58a818b1bc34d502d3fe730db729e62ac",
        "gas": "0x1c18d",
        "value": "0x0",
        "input": "0x6276cbbe0000000000000000000000001a7e36a76dc36b32c6061b2fa897b854782e22e3000000000000000000000000f00193015128ccbd2b7c9482064221435b6bb39d0000000000000000000000000000000000000000000000000000000000000bb8000000000000000000000000000000000000000000000000000000000000003c0000000000000000000000006422f708daa832865672f9848baeeb27a336a8c80000000000000000000000000000000000000001000000000000000000000000",
        "nonce": "0x11",
        "chainId": "0x515"
      },
      "additionalContracts": [],
      "isFixedGasLimit": false
    }
  ],
  "receipts": [
    {
      "status": "0x1",
      "cumulativeGasUsed": "0x2e819",
      "logs": [
        {
          "address": "0x00b036b58a818b1bc34d502d3fe730db729e62ac",
          "topics": [
            "0xdd466e674ea557f56295e2d0218a125ea4b4f0f6f3307b95f85e6110838d6438",
            "0xee89da6207d919ea6a48c17148836e58bb139c47d141d74f7923cd31228a5ec7",
            "0x0000000000000000000000001a7e36a76dc36b32c6061b2fa897b854782e22e3",
            "0x000000000000000000000000f00193015128ccbd2b7c9482064221435b6bb39d"
          ],
          "data": "0x0000000000000000000000000000000000000000000000000000000000000bb8000000000000000000000000000000000000000000000000000000000000003c0000000000000000000000006422f708daa832865672f9848baeeb27a336a8c800000000000000000000000000000000000000010000000000000000000000000000000000000000000000000000000000000000000000000000000000000000",
          "blockHash": "0x5682713f0a601ef74f893daa608c37755b6f812c20627e92a7c51fd76e14c78f",
          "blockNumber": "0x2470d1d",
          "blockTimestamp": "0x6934ba69",
          "transactionHash": "0x8f9c32dfb229cf143ef22717e4e02023b8dbd415d6f82babdb5a81fa6e61ef5a",
          "transactionIndex": "0x4",
          "logIndex": "0x0",
          "removed": false
        }
      ],
      "logsBloom": "0x00000000000000000000000000000200000000100000000000000200000000000000000000000000000000000000000000000000000000000000000000000000000000000000000000000000002000000000000100000000000000000000000000000000000000000000000000000000000000000000000000000000000000000000000000000008000000000008000000000001000000000000000000200000000000000000000000000000000000000000000000000000000000000000080000000000000000000000001000000000000000000000000000000000000000000000000000000000000001000000000000000000000002000010000000000010",
      "type": "0x2",
      "transactionHash": "0x8f9c32dfb229cf143ef22717e4e02023b8dbd415d6f82babdb5a81fa6e61ef5a",
      "transactionIndex": "0x4",
      "blockHash": "0x5682713f0a601ef74f893daa608c37755b6f812c20627e92a7c51fd76e14c78f",
      "blockNumber": "0x2470d1d",
      "gasUsed": "0x13363",
      "effectiveGasPrice": "0x33",
      "blobGasUsed": "0xd7a0",
      "from": "0xec891a037f932493624184970a283ab87398e0a6",
      "to": "0x00b036b58a818b1bc34d502d3fe730db729e62ac",
      "contractAddress": null,
      "daFootprintGasScalar": "0x190",
      "l1BaseFeeScalar": "0x7d0",
      "l1BlobBaseFee": "0x1",
      "l1BlobBaseFeeScalar": "0xdbba0",
      "l1Fee": "0xa4",
      "l1GasPrice": "0x9",
      "l1GasUsed": "0x8a1"
    }
  ],
  "libraries": [],
  "pending": [],
  "returns": {},
  "timestamp": 1765063274074,
  "chain": 1301,
  "commit": "c08d523"
}