{
  "transactions": [
    {
      "hash": "0x2fcc3a8c412733db213ac01da2847c9ff84929f1281a5999efde8e3cccdab317",
      "transactionType": "CREATE",
      "contractName": "TokenFaucet",
      "contractAddress": "0xe6afe6a0243609620882c3169546761a9dfb2e2b",
      "function": null,
      "arguments": [
        "0x4eccff261b376277C521b25aEdC2446239e777Df",
        "0x70F648C883566493fbaaD3D329815eABbDE8AB31"
      ],
      "transaction": {
        "from": "0xec891a037f932493624184970a283ab87398e0a6",
        "gas": "0xa6751",
        "value": "0x0",
        "input": "0x60c0346100ff57601f61093338819003918201601f19168301916001600160401b038311848410176101035780849260409485528339810103126100ff57610052602061004b83610117565b9201610117565b33156100ec575f8054336001600160a01b0319821681178355604051949290916001600160a01b0316907f8be0079c531659141344cd1fd0a4f28419497f9722a3daafe3b4186f6b6457e09080a36001600160a01b039081166080521660a052610807908161012c82396080518181816102010152818161038a0152610661015260a0518181816102560152818161032201526103e00152f35b631e4fbdf760e01b5f525f60045260245ffd5b5f80fd5b634e487b7160e01b5f52604160045260245ffd5b51906001600160a01b03821682036100ff5756fe60806040526004361015610011575f80fd5b5f3560e01c806306b091f9146106905780630fc63d101461064c578063270ef3851461062957806348c54b9d146103515780635f64b55b1461030d5780636311a3d4146101d6578063715018a61461017f57806373b2e80e1461011b5780638da5cb5b14610158578063a195b69c1461011b5763f2fde38b14610092575f80fd5b34610117576020366003190112610117576100ab610747565b6100b36107ab565b6001600160a01b03168015610104575f80546001600160a01b03198116831782556001600160a01b0316907f8be0079c531659141344cd1fd0a4f28419497f9722a3daafe3b4186f6b6457e09080a3005b631e4fbdf760e01b5f525f60045260245ffd5b5f80fd5b34610117576020366003190112610117576001600160a01b0361013c610747565b165f526001602052602060ff60405f2054166040519015158152f35b34610117575f366003190112610117575f546040516001600160a01b039091168152602090f35b34610117575f366003190112610117576101976107ab565b5f80546001600160a01b0319811682556001600160a01b03167f8be0079c531659141344cd1fd0a4f28419497f9722a3daafe3b4186f6b6457e08280a3005b34610117575f366003190112610117576040516370a0823160e01b81523060048201526020816024817f00000000000000000000000000000000000000000000000000000000000000006001600160a01b03165afa9081156102d0575f916102db575b506040516370a0823160e01b8152306004820152906020826024817f00000000000000000000000000000000000000000000000000000000000000006001600160a01b03165afa80156102d0575f9061029d575b6040809350519182526020820152f35b506020823d6020116102c8575b816102b76020938361075d565b81010312610117576040915161028d565b3d91506102aa565b6040513d5f823e3d90fd5b90506020813d602011610305575b816102f66020938361075d565b81010312610117575181610239565b3d91506102e9565b34610117575f366003190112610117576040517f00000000000000000000000000000000000000000000000000000000000000006001600160a01b03168152602090f35b34610117575f36600319011261011757335f52600160205260ff60405f20541661061a576040516370a0823160e01b81523060048201527f00000000000000000000000000000000000000000000000000000000000000006001600160a01b031690602081602481855afa9081156102d0575f916105e8575b506040516370a0823160e01b81523060048201527f00000000000000000000000000000000000000000000000000000000000000006001600160a01b031691602082602481865afa9182156102d0575f926105ab575b50683635c9adc5dea0000011908115610598575b506105895760205f923384526001825260408420600160ff1982541617905560446040518095819363a9059cbb60e01b8352336004840152683635c9adc5dea0000060248401525af19081156102d0575f928392610567575b5060209060446040518095819363a9059cbb60e01b8352336004840152683635c9adc5dea0000060248401525af19182156102d0575f92610536575b501590811561052d575b5061051e57604051683635c9adc5dea000008152683635c9adc5dea0000060208201527f9923b4306c6c030f2bdfbf156517d5983b87e15b96176da122cd4f2effa4ba7b60403392a2005b6312171d8360e31b5f5260045ffd5b905015816104d3565b61055991925060203d602011610560575b610551818361075d565b810190610793565b90826104c9565b503d610547565b602091925061058290823d841161056057610551818361075d565b919061048d565b631e9acf1760e31b5f5260045ffd5b683635c9adc5dea0000091501083610434565b9091506020813d6020116105e0575b816105c76020938361075d565b81010312610117575190683635c9adc5dea00000610420565b3d91506105ba565b90506020813d602011610612575b816106036020938361075d565b810103126101175751826103ca565b3d91506105f6565b630c8d9eab60e31b5f5260045ffd5b34610117575f366003190112610117576020604051683635c9adc5dea000008152f35b34610117575f366003190112610117576040517f00000000000000000000000000000000000000000000000000000000000000006001600160a01b03168152602090f35b34610117576040366003190112610117576106a9610747565b602435906106b56107ab565b60405163a9059cbb60e01b8152336004820152602481018390526001600160a01b039190911691906020816044815f875af19081156102d0575f91610728575b501561051e5760207f6352c5382c4a4578e712449ca65e83cdb392d045dfcf1cad9615189db2da244b91604051908152a2005b610741915060203d60201161056057610551818361075d565b836106f5565b600435906001600160a01b038216820361011757565b90601f8019910116810190811067ffffffffffffffff82111761077f57604052565b634e487b7160e01b5f52604160045260245ffd5b90816020910312610117575180151581036101175790565b5f546001600160a01b031633036107be57565b63118cdaa760e01b5f523360045260245ffdfea26469706673582212203dfcf3007ed9473729218802c20d9c18f9861729131c5eb7b5d73585c006a26964736f6c634300081a00330000000000000000000000004eccff261b376277c521b25aedc2446239e777df00000000000000000000000070f648c883566493fbaad3d329815eabbde8ab31",
        "nonce": "0x38",
        "chainId": "0x515"
      },
      "additionalContracts": [],
      "isFixedGasLimit": false
    },
    {
      "hash": "0x161c6a180e659c6f576d1c22d2f078a311fb081789d516e6852b441ee90a654c",
      "transactionType": "CALL",
      "contractName": null,
      "contractAddress": "0x4eccff261b376277c521b25aedc2446239e777df",
      "function": "transfer(address,uint256)",
      "arguments": [
        "0xE6aFe6a0243609620882C3169546761a9dFB2E2B",
        "100000000000000000000000"
      ],
      "transaction": {
        "from": "0xec891a037f932493624184970a283ab87398e0a6",
        "to": "0x4eccff261b376277c521b25aedc2446239e777df",
        "gas": "0x11433",
        "value": "0x0",
        "input": "0xa9059cbb000000000000000000000000e6afe6a0243609620882c3169546761a9dfb2e2b00000000000000000000000000000000000000000000152d02c7e14af6800000",
        "nonce": "0x39",
        "chainId": "0x515"
      },
      "additionalContracts": [],
      "isFixedGasLimit": false
    },
    {
      "hash": "0x4cf54d07cf8990f8539386ceab9edba48fa86fda69aa3dacdcd320e251825771",
      "transactionType": "CALL",
      "contractName": null,
      "contractAddress": "0x70f648c883566493fbaad3d329815eabbde8ab31",
      "function": "transfer(address,uint256)",
      "arguments": [
        "0xE6aFe6a0243609620882C3169546761a9dFB2E2B",
        "100000000000000000000000"
      ],
      "transaction": {
        "from": "0xec891a037f932493624184970a283ab87398e0a6",
        "to": "0x70f648c883566493fbaad3d329815eabbde8ab31",
        "gas": "0x11433",
        "value": "0x0",
        "input": "0xa9059cbb000000000000000000000000e6afe6a0243609620882c3169546761a9dfb2e2b00000000000000000000000000000000000000000000152d02c7e14af6800000",
        "nonce": "0x3a",
        "chainId": "0x515"
      },
      "additionalContracts": [],
      "isFixedGasLimit": false
    }
  ],
  "receipts": [
    {
      "status": "0x1",
      "cumulativeGasUsed": "0xa0ae3",
      "logs": [
        {
          "address": "0xe6afe6a0243609620882c3169546761a9dfb2e2b",
          "topics": [
            "0x8be0079c531659141344cd1fd0a4f28419497f9722a3daafe3b4186f6b6457e0",
            "0x0000000000000000000000000000000000000000000000000000000000000000",
            "0x000000000000000000000000ec891a037f932493624184970a283ab87398e0a6"
          ],
          "data": "0x",
          "blockHash": "0x8a965bbdfd23268c3b833ba77c9ae76c5ae00c6c23be12ba6d0e7a7a9113e496",
          "blockNumber": "0x2479cae",
          "blockTimestamp": "0x693549fa",
          "transactionHash": "0x2fcc3a8c412733db213ac01da2847c9ff84929f1281a5999efde8e3cccdab317",
          "transactionIndex": "0x5",
          "logIndex": "0x0",
          "removed": false
        }
      ],
      "logsBloom": "0x00000000000000000000000000000000000000000000000000800000000000000000000000000200000000000000000000000000000000000002000000000000000000000000000000000800000000000001000000000000000000000000000000000000020000000000000000000800100000000000000000000000000000480000000000000000000000000000000000000000000000000000000000000000000000000000000000000004000000000000000000000000000000000000000000000000000000000000000000000000000000000000000000000000000020000000000000000000000000000000000000000000000000000000000000000000",
      "type": "0x2",
      "transactionHash": "0x2fcc3a8c412733db213ac01da2847c9ff84929f1281a5999efde8e3cccdab317",
      "transactionIndex": "0x5",
      "blockHash": "0x8a965bbdfd23268c3b833ba77c9ae76c5ae00c6c23be12ba6d0e7a7a9113e496",
      "blockNumber": "0x2479cae",
      "gasUsed": "0x800b5",
      "effectiveGasPrice": "0x33",
      "blobGasUsed": "0x7fee0",
      "from": "0xec891a037f932493624184970a283ab87398e0a6",
      "to": null,
      "contractAddress": "0xe6afe6a0243609620882c3169546761a9dfb2e2b",
      "daFootprintGasScalar": "0x190",
      "l1BaseFeeScalar": "0x7d0",
      "l1BlobBaseFee": "0x1",
      "l1BlobBaseFeeScalar": "0xdbba0",
      "l1Fee": "0x615",
      "l1GasPrice": "0x9",
      "l1GasUsed": "0x51ed"
    },
    {
      "status": "0x1",
      "cumulativeGasUsed": "0xad2da",
      "logs": [
        {
          "address": "0x4eccff261b376277c521b25aedc2446239e777df",
          "topics": [
            "0xddf252ad1be2c89b69c2b068fc378daa952ba7f163c4a11628f55a4df523b3ef",
            "0x000000000000000000000000ec891a037f932493624184970a283ab87398e0a6",
            "0x000000000000000000000000e6afe6a0243609620882c3169546761a9dfb2e2b"
          ],
          "data": "0x00000000000000000000000000000000000000000000152d02c7e14af6800000",
          "blockHash": "0x8a965bbdfd23268c3b833ba77c9ae76c5ae00c6c23be12ba6d0e7a7a9113e496",
          "blockNumber": "0x2479cae",
          "blockTimestamp": "0x693549fa",
          "transactionHash": "0x161c6a180e659c6f576d1c22d2f078a311fb081789d516e6852b441ee90a654c",
          "transactionIndex": "0x6",
          "logIndex": "0x1",
          "removed": false
        }
      ],
      "logsBloom": "0x00040008000000000000000000000000000000000000000000000000000000000000000000000200000000000000004000000000000000000000000000040000000000000000000000000008000000000000000000000000000000000000000000000000000000000000000000000000100000000000000000000010000000080000000000000000000000000000000000000000000000000000020000000000000000000000000000000000000000000000000000000000000000000008000000000002000000000000000000000000000000000000000000000000000000000000000000000000000000000000000000000000000000000000000000000000",
      "type": "0x2",
      "transactionHash": "0x161c6a180e659c6f576d1c22d2f078a311fb081789d516e6852b441ee90a654c",
      "transactionIndex": "0x6",
      "blockHash": "0x8a965bbdfd23268c3b833ba77c9ae76c5ae00c6c23be12ba6d0e7a7a9113e496",
      "blockNumber": "0x2479cae",
      "gasUsed": "0xc7f7",
      "effectiveGasPrice": "0x33",
      "blobGasUsed": "0x9c40",
      "from": "0xec891a037f932493624184970a283ab87398e0a6",
      "to": "0x4eccff261b376277c521b25aedc2446239e777df",
      "contractAddress": null,
      "daFootprintGasScalar": "0x190",
      "l1BaseFeeScalar": "0x7d0",
      "l1BlobBaseFee": "0x1",
      "l1BlobBaseFeeScalar": "0xdbba0",
      "l1Fee": "0x76",
      "l1GasPrice": "0x9",
      "l1GasUsed": "0x640"
    },
    {
      "status": "0x1",
      "cumulativeGasUsed": "0xb9ad1",
      "logs": [
        {
          "address": "0x70f648c883566493fbaad3d329815eabbde8ab31",
          "topics": [
            "0xddf252ad1be2c89b69c2b068fc378daa952ba7f163c4a11628f55a4df523b3ef",
            "0x000000000000000000000000ec891a037f932493624184970a283ab87398e0a6",
            "0x000000000000000000000000e6afe6a0243609620882c3169546761a9dfb2e2b"
          ],
          "data": "0x00000000000000000000000000000000000000000000152d02c7e14af6800000",
          "blockHash": "0x8a965bbdfd23268c3b833ba77c9ae76c5ae00c6c23be12ba6d0e7a7a9113e496",
          "blockNumber": "0x2479cae",
          "blockTimestamp": "0x693549fa",
          "transactionHash": "0x4cf54d07cf8990f8539386ceab9edba48fa86fda69aa3dacdcd320e251825771",
          "transactionIndex": "0x7",
          "logIndex": "0x2",
          "removed": false
        }
      ],
      "logsBloom": "0x00040000000000000000000000000000000000000000000000000000000000000000000000000200000000000000000000000000000000000000000000400000000000000000000000000008000000000000000000000000000000000000000000000000000000000000000000000000100000000000000000000010000000080000000000000000001000000000000000000000000000000000020000000000000000000000000000000000000000000000000000000000000000000008000000000002000000000000000000000000000000000020000000000000000000000000000000000000000000000000000000000000000000000000000000000000",
      "type": "0x2",
      "transactionHash": "0x4cf54d07cf8990f8539386ceab9edba48fa86fda69aa3dacdcd320e251825771",
      "transactionIndex": "0x7",
      "blockHash": "0x8a965bbdfd23268c3b833ba77c9ae76c5ae00c6c23be12ba6d0e7a7a9113e496",
      "blockNumber": "0x2479cae",
      "gasUsed": "0xc7f7",
      "effectiveGasPrice": "0x33",
      "blobGasUsed": "0x9c40",
      "from": "0xec891a037f932493624184970a283ab87398e0a6",
      "to": "0x70f648c883566493fbaad3d329815eabbde8ab31",
      "contractAddress": null,
      "daFootprintGasScalar": "0x190",
      "l1BaseFeeScalar": "0x7d0",
      "l1BlobBaseFee": "0x1",
      "l1BlobBaseFeeScalar": "0xdbba0",
      "l1Fee": "0x76",
      "l1GasPrice": "0x9",
      "l1GasUsed": "0x640"
    }
  ],
  "libraries": [],
  "pending": [],
  "returns": {},
  "timestamp": 1765100028129,
  "chain": 1301,
  "commit": "3b494ac"
}