{
  "transactions": [
    {
      "hash": "0x77d6339b97235234750ac1de7934db6c08519796fccb454df4d9f2bd1232a135",
      "transactionType": "CREATE",
      "contractName": "TestToken",
      "contractAddress": "0x11900586d3fc89df8b66436e7f460ac51577dced",
      "function": null,
      "arguments": [
        "Token A",
        "TKA",
        "1000000000000000000000000"
      ],
      "transaction": {
        "from": "0xec891a037f932493624184970a283ab87398e0a6",
        "gas": "0xe1c40",
        "value": "0x0",
        "input": "0x60e0806040523461046157610f0c803803809161001c8285610465565b83398101906060818303126104615780516001600160401b0381116104615782610047918301610488565b60208201519092906001600160401b0381116104615760409161006b918401610488565b91015182516001600160401b038111610392576100885f546104dd565b601f8111610412575b506020601f82116001146103b157819293945f926103a6575b50508160011b915f199060031b1c1916175f555b81516001600160401b038111610392576100d96001546104dd565b601f811161032f575b50602092601f82116001146102ce57928192935f926102c3575b50508160011b915f199060031b1c1916176001555b60126080524660a0526040515f905f54918161012c846104dd565b9182825260208201946001811690815f146102a7575060011461025d575b61015692500382610465565b51902060405160208101917f8b73c3c69bb8fe3d512ecc4cf759cc79239f7b179b0ffacaa9a75d522b39400f835260408201527fc89efdaa54c0f20c7adf612882df0950f5a951637e0307cdcb4c672f298b8bc660608201524660808201523060a082015260a081526101ca60c082610465565b51902060c05260025481810180911161024957600255335f52600360205260405f208181540190556040519081525f7fddf252ad1be2c89b69c2b068fc378daa952ba7f163c4a11628f55a4df523b3ef60203393a36040516109d69081610516823960805181610502015260a05181610829015260c0518161084f0152f35b634e487b7160e01b5f52601160045260245ffd5b505f80805290915f80516020610eec8339815191525b81831061028b5750509060206101569282010161014a565b6020919350806001915483858801015201910190918392610273565b60ff191686525061015692151560051b8201602001905061014a565b015190505f806100fc565b601f1982169360015f52805f20915f5b86811061031757508360019596106102ff575b505050811b01600155610111565b01515f1960f88460031b161c191690555f80806102f1565b919260206001819286850151815501940192016102de565b60015f527fb10e2d527612073b26eecdfd717e6a320cf44b4afac2b0732d9fcbe2b7fa0cf6601f830160051c81019160208410610388575b601f0160051c01905b81811061037d57506100e2565b5f8155600101610370565b9091508190610367565b634e487b7160e01b5f52604160045260245ffd5b015190505f806100aa565b601f198216905f8052805f20915f5b8181106103fa575095836001959697106103e2575b505050811b015f556100be565b01515f1960f88460031b161c191690555f80806103d5565b9192602060018192868b0151815501940192016103c0565b5f80525f80516020610eec833981519152601f830160051c81019160208410610457575b601f0160051c01905b81811061044c5750610091565b5f815560010161043f565b9091508190610436565b5f80fd5b601f909101601f19168101906001600160401b0382119082101761039257604052565b81601f82011215610461578051906001600160401b03821161039257604051926104bc601f8401601f191660200185610465565b8284526020838301011161046157815f9260208093018386015e8301015290565b90600182811c9216801561050b575b60208310146104f757565b634e487b7160e01b5f52602260045260245ffd5b91607f16916104ec56fe60806040526004361015610011575f80fd5b5f3560e01c806306fdde031461069f578063095ea7b31461062657806318160ddd1461060957806323b872dd14610526578063313ce567146104e95780633644e515146104c757806370a082311461048f5780637ecebe001461045757806395d89b411461037d578063a9059cbb146102f5578063d505accf146100f15763dd62ed3e1461009d575f80fd5b346100ed5760403660031901126100ed576100b66107d9565b6100be6107ef565b6001600160a01b039182165f908152600460209081526040808320949093168252928352819020549051908152f35b5f80fd5b346100ed5760e03660031901126100ed5761010a6107d9565b6101126107ef565b6044356064359260843560ff81168091036100ed574285106102b65760805f9160209361013d610826565b9060018060a01b03169687855260058652604085209889549960018b01905560405190878201927f6e71edae12b1b97f4d1f60370fef10105fa2faae0126114a169c64845d6126c984528a604084015260018060a01b03169a8b6060840152898784015260a083015260c082015260c081526101ba60e082610779565b519020604051908682019261190160f01b845260228301526042820152604281526101e6606282610779565b519020906040519182528482015260a435604082015260c435606082015282805260015afa156102ab575f516001600160a01b0316801515806102a2575b1561026c577f8c5be1e5ebec7d5bd14f71427d1e84f3dd0314c0f7b2291e5b200ac8c7c3b925916020915f526004825260405f20855f5282528060405f2055604051908152a3005b60405162461bcd60e51b815260206004820152600e60248201526d24a72b20a624a22fa9a4a3a722a960911b6044820152606490fd5b50828114610224565b6040513d5f823e3d90fd5b60405162461bcd60e51b815260206004820152601760248201527614115493525517d11150511312539157d1561412549151604a1b6044820152606490fd5b346100ed5760403660031901126100ed5761030e6107d9565b60243590335f52600360205260405f20610329838254610805565b905560018060a01b031690815f52600360205260405f208181540190556040519081527fddf252ad1be2c89b69c2b068fc378daa952ba7f163c4a11628f55a4df523b3ef60203392a3602060405160018152f35b346100ed575f3660031901126100ed576040515f60015461039d81610741565b808452906001811690811561043357506001146103d5575b6103d1836103c581850382610779565b604051918291826107af565b0390f35b60015f9081527fb10e2d527612073b26eecdfd717e6a320cf44b4afac2b0732d9fcbe2b7fa0cf6939250905b808210610419575090915081016020016103c56103b5565b919260018160209254838588010152019101909291610401565b60ff191660208086019190915291151560051b840190910191506103c590506103b5565b346100ed5760203660031901126100ed576001600160a01b036104786107d9565b165f526005602052602060405f2054604051908152f35b346100ed5760203660031901126100ed576001600160a01b036104b06107d9565b165f526003602052602060405f2054604051908152f35b346100ed575f3660031901126100ed5760206104e1610826565b604051908152f35b346100ed575f3660031901126100ed57602060405160ff7f0000000000000000000000000000000000000000000000000000000000000000168152f35b346100ed5760603660031901126100ed5761053f6107d9565b6105476107ef565b6001600160a01b039091165f818152600460209081526040808320338452825290912054604435937fddf252ad1be2c89b69c2b068fc378daa952ba7f163c4a11628f55a4df523b3ef929185600182016105e4575b5050835f526003825260405f206105b4868254610805565b90556001600160a01b03165f818152600383526040908190208054870190555194855293a3602060405160018152f35b6105ed91610805565b5f8581526004845260408082203383528552902055858561059c565b346100ed575f3660031901126100ed576020600254604051908152f35b346100ed5760403660031901126100ed5761063f6107d9565b335f8181526004602090815260408083206001600160a01b03909516808452948252918290206024359081905591519182527f8c5be1e5ebec7d5bd14f71427d1e84f3dd0314c0f7b2291e5b200ac8c7c3b92591a3602060405160018152f35b346100ed575f3660031901126100ed576040515f80546106be81610741565b808452906001811690811561043357506001146106e5576103d1836103c581850382610779565b5f8080527f290decd9548b62a8d60345a988386fc84ba6bc95484008f6362f93160ef3e563939250905b808210610727575090915081016020016103c56103b5565b91926001816020925483858801015201910190929161070f565b90600182811c9216801561076f575b602083101461075b57565b634e487b7160e01b5f52602260045260245ffd5b91607f1691610750565b90601f8019910116810190811067ffffffffffffffff82111761079b57604052565b634e487b7160e01b5f52604160045260245ffd5b602060409281835280519182918282860152018484015e5f828201840152601f01601f1916010190565b600435906001600160a01b03821682036100ed57565b602435906001600160a01b03821682036100ed57565b9190820391821161081257565b634e487b7160e01b5f52601160045260245ffd5b467f000000000000000000000000000000000000000000000000000000000000000003610871577f000000000000000000000000000000000000000000000000000000000000000090565b6040515f905f54918161088384610741565b9182825260208201946001811690815f146109845750600114610927575b6108ad92500382610779565b51902060405160208101917f8b73c3c69bb8fe3d512ecc4cf759cc79239f7b179b0ffacaa9a75d522b39400f835260408201527fc89efdaa54c0f20c7adf612882df0950f5a951637e0307cdcb4c672f298b8bc660608201524660808201523060a082015260a0815261092160c082610779565b51902090565b505f80805290917f290decd9548b62a8d60345a988386fc84ba6bc95484008f6362f93160ef3e5635b8183106109685750509060206108ad928201016108a1565b6020919350806001915483858801015201910190918392610950565b60ff19168652506108ad92151560051b820160200190506108a156fea26469706673582212207d61f367989dd4c8c360bebb30a42be8304b7d1497e884ee568132d1514bb6de64736f6c634300081a0033290decd9548b62a8d60345a988386fc84ba6bc95484008f6362f93160ef3e563000000000000000000000000000000000000000000000000000000000000006000000000000000000000000000000000000000000000000000000000000000a000000000000000000000000000000000000000000000d3c21bcecceda10000000000000000000000000000000000000000000000000000000000000000000007546f6b656e2041000000000000000000000000000000000000000000000000000000000000000000000000000000000000000000000000000000000000000003544b410000000000000000000000000000000000000000000000000000000000",
        "nonce": "0x1e",
        "chainId": "0x515"
      },
      "additionalContracts": [],
      "isFixedGasLimit": false
    },
    {
      "hash": "0x951f9bdc766910e8459c5ff4d0296c1798b1dec6a052d2760a31dab2c29efff6",
      "transactionType": "CREATE",
      "contractName": "TestToken",
      "contractAddress": "0x1388b7ee387e50b3dc76cffd15aae0db531c78b8",
      "function": null,
      "arguments": [
        "Token B",
        "TKB",
        "1000000000000000000000000"
      ],
      "transaction": {
        "from": "0xec891a037f932493624184970a283ab87398e0a6",
        "gas": "0xe1c40",
        "value": "0x0",
        "input": "0x60e0806040523461046157610f0c803803809161001c8285610465565b83398101906060818303126104615780516001600160401b0381116104615782610047918301610488565b60208201519092906001600160401b0381116104615760409161006b918401610488565b91015182516001600160401b038111610392576100885f546104dd565b601f8111610412575b506020601f82116001146103b157819293945f926103a6575b50508160011b915f199060031b1c1916175f555b81516001600160401b038111610392576100d96001546104dd565b601f811161032f575b50602092601f82116001146102ce57928192935f926102c3575b50508160011b915f199060031b1c1916176001555b60126080524660a0526040515f905f54918161012c846104dd565b9182825260208201946001811690815f146102a7575060011461025d575b61015692500382610465565b51902060405160208101917f8b73c3c69bb8fe3d512ecc4cf759cc79239f7b179b0ffacaa9a75d522b39400f835260408201527fc89efdaa54c0f20c7adf612882df0950f5a951637e0307cdcb4c672f298b8bc660608201524660808201523060a082015260a081526101ca60c082610465565b51902060c05260025481810180911161024957600255335f52600360205260405f208181540190556040519081525f7fddf252ad1be2c89b69c2b068fc378daa952ba7f163c4a11628f55a4df523b3ef60203393a36040516109d69081610516823960805181610502015260a05181610829015260c0518161084f0152f35b634e487b7160e01b5f52601160045260245ffd5b505f80805290915f80516020610eec8339815191525b81831061028b5750509060206101569282010161014a565b6020919350806001915483858801015201910190918392610273565b60ff191686525061015692151560051b8201602001905061014a565b015190505f806100fc565b601f1982169360015f52805f20915f5b86811061031757508360019596106102ff575b505050811b01600155610111565b01515f1960f88460031b161c191690555f80806102f1565b919260206001819286850151815501940192016102de565b60015f527fb10e2d527612073b26eecdfd717e6a320cf44b4afac2b0732d9fcbe2b7fa0cf6601f830160051c81019160208410610388575b601f0160051c01905b81811061037d57506100e2565b5f8155600101610370565b9091508190610367565b634e487b7160e01b5f52604160045260245ffd5b015190505f806100aa565b601f198216905f8052805f20915f5b8181106103fa575095836001959697106103e2575b505050811b015f556100be565b01515f1960f88460031b161c191690555f80806103d5565b9192602060018192868b0151815501940192016103c0565b5f80525f80516020610eec833981519152601f830160051c81019160208410610457575b601f0160051c01905b81811061044c5750610091565b5f815560010161043f565b9091508190610436565b5f80fd5b601f909101601f19168101906001600160401b0382119082101761039257604052565b81601f82011215610461578051906001600160401b03821161039257604051926104bc601f8401601f191660200185610465565b8284526020838301011161046157815f9260208093018386015e8301015290565b90600182811c9216801561050b575b60208310146104f757565b634e487b7160e01b5f52602260045260245ffd5b91607f16916104ec56fe60806040526004361015610011575f80fd5b5f3560e01c806306fdde031461069f578063095ea7b31461062657806318160ddd1461060957806323b872dd14610526578063313ce567146104e95780633644e515146104c757806370a082311461048f5780637ecebe001461045757806395d89b411461037d578063a9059cbb146102f5578063d505accf146100f15763dd62ed3e1461009d575f80fd5b346100ed5760403660031901126100ed576100b66107d9565b6100be6107ef565b6001600160a01b039182165f908152600460209081526040808320949093168252928352819020549051908152f35b5f80fd5b346100ed5760e03660031901126100ed5761010a6107d9565b6101126107ef565b6044356064359260843560ff81168091036100ed574285106102b65760805f9160209361013d610826565b9060018060a01b03169687855260058652604085209889549960018b01905560405190878201927f6e71edae12b1b97f4d1f60370fef10105fa2faae0126114a169c64845d6126c984528a604084015260018060a01b03169a8b6060840152898784015260a083015260c082015260c081526101ba60e082610779565b519020604051908682019261190160f01b845260228301526042820152604281526101e6606282610779565b519020906040519182528482015260a435604082015260c435606082015282805260015afa156102ab575f516001600160a01b0316801515806102a2575b1561026c577f8c5be1e5ebec7d5bd14f71427d1e84f3dd0314c0f7b2291e5b200ac8c7c3b925916020915f526004825260405f20855f5282528060405f2055604051908152a3005b60405162461bcd60e51b815260206004820152600e60248201526d24a72b20a624a22fa9a4a3a722a960911b6044820152606490fd5b50828114610224565b6040513d5f823e3d90fd5b60405162461bcd60e51b815260206004820152601760248201527614115493525517d11150511312539157d1561412549151604a1b6044820152606490fd5b346100ed5760403660031901126100ed5761030e6107d9565b60243590335f52600360205260405f20610329838254610805565b905560018060a01b031690815f52600360205260405f208181540190556040519081527fddf252ad1be2c89b69c2b068fc378daa952ba7f163c4a11628f55a4df523b3ef60203392a3602060405160018152f35b346100ed575f3660031901126100ed576040515f60015461039d81610741565b808452906001811690811561043357506001146103d5575b6103d1836103c581850382610779565b604051918291826107af565b0390f35b60015f9081527fb10e2d527612073b26eecdfd717e6a320cf44b4afac2b0732d9fcbe2b7fa0cf6939250905b808210610419575090915081016020016103c56103b5565b919260018160209254838588010152019101909291610401565b60ff191660208086019190915291151560051b840190910191506103c590506103b5565b346100ed5760203660031901126100ed576001600160a01b036104786107d9565b165f526005602052602060405f2054604051908152f35b346100ed5760203660031901126100ed576001600160a01b036104b06107d9565b165f526003602052602060405f2054604051908152f35b346100ed575f3660031901126100ed5760206104e1610826565b604051908152f35b346100ed575f3660031901126100ed57602060405160ff7f0000000000000000000000000000000000000000000000000000000000000000168152f35b346100ed5760603660031901126100ed5761053f6107d9565b6105476107ef565b6001600160a01b039091165f818152600460209081526040808320338452825290912054604435937fddf252ad1be2c89b69c2b068fc378daa952ba7f163c4a11628f55a4df523b3ef929185600182016105e4575b5050835f526003825260405f206105b4868254610805565b90556001600160a01b03165f818152600383526040908190208054870190555194855293a3602060405160018152f35b6105ed91610805565b5f8581526004845260408082203383528552902055858561059c565b346100ed575f3660031901126100ed576020600254604051908152f35b346100ed5760403660031901126100ed5761063f6107d9565b335f8181526004602090815260408083206001600160a01b03909516808452948252918290206024359081905591519182527f8c5be1e5ebec7d5bd14f71427d1e84f3dd0314c0f7b2291e5b200ac8c7c3b92591a3602060405160018152f35b346100ed575f3660031901126100ed576040515f80546106be81610741565b808452906001811690811561043357506001146106e5576103d1836103c581850382610779565b5f8080527f290decd9548b62a8d60345a988386fc84ba6bc95484008f6362f93160ef3e563939250905b808210610727575090915081016020016103c56103b5565b91926001816020925483858801015201910190929161070f565b90600182811c9216801561076f575b602083101461075b57565b634e487b7160e01b5f52602260045260245ffd5b91607f1691610750565b90601f8019910116810190811067ffffffffffffffff82111761079b57604052565b634e487b7160e01b5f52604160045260245ffd5b602060409281835280519182918282860152018484015e5f828201840152601f01601f1916010190565b600435906001600160a01b03821682036100ed57565b602435906001600160a01b03821682036100ed57565b9190820391821161081257565b634e487b7160e01b5f52601160045260245ffd5b467f000000000000000000000000000000000000000000000000000000000000000003610871577f000000000000000000000000000000000000000000000000000000000000000090565b6040515f905f54918161088384610741565b9182825260208201946001811690815f146109845750600114610927575b6108ad92500382610779565b51902060405160208101917f8b73c3c69bb8fe3d512ecc4cf759cc79239f7b179b0ffacaa9a75d522b39400f835260408201527fc89efdaa54c0f20c7adf612882df0950f5a951637e0307cdcb4c672f298b8bc660608201524660808201523060a082015260a0815261092160c082610779565b51902090565b505f80805290917f290decd9548b62a8d60345a988386fc84ba6bc95484008f6362f93160ef3e5635b8183106109685750509060206108ad928201016108a1565b6020919350806001915483858801015201910190918392610950565b60ff19168652506108ad92151560051b820160200190506108a156fea26469706673582212207d61f367989dd4c8c360bebb30a42be8304b7d1497e884ee568132d1514bb6de64736f6c634300081a0033290decd9548b62a8d60345a988386fc84ba6bc95484008f6362f93160ef3e563000000000000000000000000000000000000000000000000000000000000006000000000000000000000000000000000000000000000000000000000000000a000000000000000000000000000000000000000000000d3c21bcecceda10000000000000000000000000000000000000000000000000000000000000000000007546f6b656e2042000000000000000000000000000000000000000000000000000000000000000000000000000000000000000000000000000000000000000003544b420000000000000000000000000000000000000000000000000000000000",
        "nonce": "0x1f",
        "chainId": "0x515"
      },
      "additionalContracts": [],
      "isFixedGasLimit": false
    },
    {
      "hash": "0xe3efd1295d03a298c7d75f8c698666008a42999af208d1ca8fba23ffbb3fa5d4",
      "transactionType": "CREATE",
      "contractName": "SimpleSwapRouter",
      "contractAddress": "0x5f00c4dcc1eb251c38936afccf1a0deb9d579e46",
      "function": null,
      "arguments": [
        "0x00B036B58a818B1BC34d502D3fE730Db729e62AC"
      ],
      "transaction": {
        "from": "0xec891a037f932493624184970a283ab87398e0a6",
        "gas": "0xc5289",
        "value": "0x0",
        "input": "0x60a034607257601f610ac938819003918201601f19168301916001600160401b03831184841017607657808492602094604052833981010312607257516001600160a01b0381168103607257608052604051610a3e908161008b8239608051818181604f0152818160d001526105ae0152f35b5f80fd5b634e487b7160e01b5f52604160045260245ffdfe60806040526004361015610011575f80fd5b5f3560e01c80631e2817de1461044057806391dd7346146100825763dc4c90d31461003a575f80fd5b3461007e575f36600319011261007e576040517f00000000000000000000000000000000000000000000000000000000000000006001600160a01b03168152602090f35b5f80fd5b3461007e57602036600319011261007e576004356001600160401b03811161007e573660238201121561007e5780600401356001600160401b03811161007e57810136602482011161007e577f00000000000000000000000000000000000000000000000000000000000000006001600160a01b038116919033839003610407576101208483031261007e576040519061011b826106a3565b610127602486016106fa565b825260a0601f19868503011261007e5760405192610144846106be565b610150604487016106fa565b845261015e606487016106fa565b6020850152608486013562ffffff8116810361007e57604085015260a48601358060020b810361007e57606085015260c48601356001600160a01b038116810361007e5760808501526020830193845260609086900360bf19011261007e57604051946101ca866106a3565b60e481013590811515820361007e57908652610104810135602087015261012401356001600160a01b038116810361007e576040860152602061023461014460408501968888525f87519161025b6040519b8c968795633cf3645360e21b87526004870190610738565b8051151560a4860152602081015160c4860152604001516001600160a01b031660e4850152565b610120610104840152816101248401525af19384156103fc575f946103c6575b51516102ca955015610339578360801d5f81600f0b126102ff575b505f84600f0b136102ce575b5050505b604051906020820152602081526102be6040826106d9565b6040519182918261070e565b0390f35b91516020015190516102f7926001600160801b038516926001600160a01b0392831692166109a2565b8280806102a2565b8351518351610333926001600160a01b03928316929091169084906001600160801b039061032c9061078a565b16926107cd565b85610296565b83600f0b5f8112610390575b508360801d905f82600f0b1361035f575b505050506102a6565b9251519151610387936001600160801b03909216926001600160a01b039182169291166109a2565b82808080610356565b83516020015183516103c0926001600160a01b03928316929091169084906001600160801b039061032c9061078a565b85610345565b93506020853d6020116103f4575b816103e1602093836106d9565b8101031261007e576102ca94519361027b565b3d91506103d4565b6040513d5f823e3d90fd5b60405162461bcd60e51b815260206004820152601160248201527027b7363c903837b7b61036b0b730b3b2b960791b6044820152606490fd5b3461007e573660031901610100811261007e5760a01361007e57604051610466816106be565b6004356001600160a01b038116810361007e5781526024356001600160a01b038116810361007e57602082015260443562ffffff8116810361007e5760408201526064358060020b810361007e5760608201526084356001600160a01b038116810361007e57608082015260603660a319011261007e576040516104e9816106a3565b60a435801515810361007e57815260c435602082015260e435916001600160a01b038316830361007e5761057e826105a99460405f9501526040805161052e816106a3565b338152602081019485520190815261055460405193336020860152516040850190610738565b518051151560e08401526020810151610100840152604001516001600160a01b0316610120830152565b610120815261058f610140826106d9565b604051809381926348c8949160e01b83526004830161070e565b0381837f00000000000000000000000000000000000000000000000000000000000000006001600160a01b03165af19081156103fc575f91610607575b506020815191818082019384920101031261007e5760209051604051908152f35b90503d805f833e61061881836106d9565b81019060208183031261007e578051906001600160401b03821161007e570181601f8201121561007e578051906001600160401b03821161068f576040519261066b601f8401601f1916602001856106d9565b8284526020838301011161007e57815f9260208093018386015e83010152816105e6565b634e487b7160e01b5f52604160045260245ffd5b606081019081106001600160401b0382111761068f57604052565b60a081019081106001600160401b0382111761068f57604052565b90601f801991011681019081106001600160401b0382111761068f57604052565b35906001600160a01b038216820361007e57565b602060409281835280519182918282860152018484015e5f828201840152601f01601f1916010190565b80516001600160a01b03908116835260208083015182169084015260408083015162ffffff169084015260608083015160020b9084015260809182015116910152565b9081602091031261007e575190565b600f0b60016001607f1b031981146107a1575f0390565b634e487b7160e01b5f52601160045260245ffd5b9081602091031261007e5751801515810361007e5790565b9192916001600160a01b03168061083b5750604051630476982d60e21b81529250602091839160049183916001600160a01b03165af180156103fc576108105750565b6108319060203d602011610834575b61082981836106d9565b81019061077b565b50565b503d61081f565b6001600160a01b0390911691823b1561007e57604051632961046560e21b815260048101839052935a945f816024818389819bf180156103fc5761098d575b506001600160a01b031684308214610932576020929160649160405195869485936323b872dd60e01b8552600485015288602485015260448401525af18015610927579160209184936108fa575b505b600460405180958193630476982d60e21b83525af19081156108ee57506108105750565b604051903d90823e3d90fd5b61091990833d8511610920575b61091181836106d9565b8101906107b5565b505f6108c8565b503d610907565b6040513d85823e3d90fd5b9290506044602092604051948593849263a9059cbb60e01b845288600485015260248401525af1801561092757916020918493610970575b506108ca565b61098690833d85116109205761091181836106d9565b505f61096a565b61099a9195505f906106d9565b5f935f61087a565b91906001600160a01b0316803b1561007e57604051630b0d9c0960e01b81526001600160a01b03938416600482015291909216602482015260448101929092525f908290606490829084905af180156103fc576109fc5750565b5f610a06916106d9565b56fea2646970667358221220015b3b64ee962a97056ef89fe5cc0954086b29702b3e3f23c2cd48d844c051c164736f6c634300081a003300000000000000000000000000b036b58a818b1bc34d502d3fe730db729e62ac",
        "nonce": "0x20",
        "chainId": "0x515"
      },
      "additionalContracts": [],
      "isFixedGasLimit": false
    },
    {
      "hash": "0xad6f3c885b3206b33651564631900500fa3a52efd4e70d3eebce24656d359d9a",
      "transactionType": "CREATE2",
      "contractName": "ConstantSumHook",
      "contractAddress": "0xfffcbdce1ae3aca35bd94996207d5589271f6888",
      "function": null,
      "arguments": [
        "0x00B036B58a818B1BC34d502D3fE730Db729e62AC"
      ],
      "transaction": {
        "from": "0xec891a037f932493624184970a283ab87398e0a6",
        "to": "0x4e59b44847b379578588920ca78fbf26c0b4956c",
        "gas": "0x22ab47",
        "value": "0x0",
        "input": "0x000000000000000000000000000000000000000000000000000000000000683c60a0604052346102c457604051601f611caa38819003918201601f19168301916001600160401b038311848410176102c8578084926020946040528339810103126102c457516001600160a01b03811681036102c4576080525f6101a06100646102dc565b8281528260208201528260408201528260608201528260808201528260a08201528260c08201528260e0820152826101008201528261012082015282610140820152826101608201528261018082015201525f6101a06100c26102dc565b60018152826020820152600160408201528260608201528260808201528260a0820152600160c08201528260e08201528261010082015282610120820152600161014082015282610160820152826101808201520152612000301615156001148015906102b7575b80156102a6575b8015610299575b801561028c575b801561027f575b801561026f575b8015610263575b8015610257575b801561024b575b801561023b575b801561022f575b8015610223575b8015610217575b61020457611b585f55610bb8600155600280546001600160a01b031916331790556040516119ad90816102fd82396080518181816101cb0152818161024d015281816102c3015281816104b20152818161066b0152818161072e0152818161080501528181610a6601528181610af801528181610f8e01528181610fe201526110f40152f35b630732d7b560e51b5f523060045260245ffd5b5060013016151561017e565b50600230161515610177565b50600430161515610170565b5060083016151560011415610169565b50601030161515610162565b5060203016151561015b565b50604030161515610154565b506080301615156001141561014d565b5061010030161515610146565b506102003016151561013f565b5061040030161515610138565b506108003016151560011415610131565b506110003016151561012a565b5f80fd5b634e487b7160e01b5f52604160045260245ffd5b604051906101c082016001600160401b038111838210176102c85760405256fe6080806040526004361015610012575f80fd5b5f3560e01c908163126082cf1461118e5750806312f0f3011461102357806321d0ee7014610fcf578063259982e514610f7b578063481bf4ad14610f5e57806348d8b0ba14610ea0578063525407f114610e84578063575e24b414610aa35780636c2bbe7e146106585780636fe7e6eb14610a2b5780638da5cb5b14610a0357806391dd7346146107d35780639e436f57146106ae5780639f063efc14610658578063ac5555aa14610629578063ae39e3d1146104ef578063b47b2fb11461045b578063b6a8b0fa146101b8578063c4e833ce146102f2578063dc4c90d3146102ae578063dc98354e1461021c578063e1b4af69146101b8578063eb6ce0981461017f5763f2fde38b14610124575f80fd5b3461017b57602036600319011261017b5761013d6111c4565b600254906001600160a01b038216330361016d576001600160a01b03166001600160a01b03199190911617600255005b6282b42960e81b5f5260045ffd5b5f80fd5b3461017b57604036600319011261017b576024356004355f52600360205260405f2090600281101561017b576020910154604051908152f35b3461017b576101c636611337565b5050507f00000000000000000000000000000000000000000000000000000000000000006001600160a01b03163303925061020d91505057630a85dc2960e01b5f5260045ffd5b63570c108560e11b5f5260045ffd5b3461017b5760e036600319011261017b576102356111c4565b5060a036602319011261017b5761024a6112e7565b507f00000000000000000000000000000000000000000000000000000000000000006001600160a01b0316330361020d5760a061028636611415565b205f52600460205260405f20600160ff198254161790556020604051636e4c1aa760e11b8152f35b3461017b575f36600319011261017b576040517f00000000000000000000000000000000000000000000000000000000000000006001600160a01b03168152602090f35b3461017b575f36600319011261017b575f6101a0604051610312816113bd565b8281528260208201528260408201528260608201528260808201528260a08201528260c08201528260e0820152826101008201528261012082015282610140820152826101608201528261018082015201526101c06020604051610375816113bd565b60018152818101905f82526040810160018152606082015f8152608083015f815260a084015f815260c085016001815260e08601905f82526101008701925f84526101208801945f8652610140890196600188526101608a01985f8a526101a06101808c019b5f8d52019b5f8d526040519d8e916001835251151591015251151560408d015251151560608c015251151560808b015251151560a08a015251151560c089015251151560e08801525115156101008701525115156101208601525115156101408501525115156101608401525115156101808301525115156101a0820152f35b3461017b5761016036600319011261017b576104756111c4565b5060a036602319011261017b5760603660c319011261017b57610144356001600160401b03811161017b576104ae9036906004016111ee565b50507f00000000000000000000000000000000000000000000000000000000000000006001600160a01b0316330361020d57630a85dc2960e01b5f5260045ffd5b3461017b57604036600319011261017b5760025460243590600435906001600160a01b0316330361016d5761138881118061061d575b156105dd576101f4821015806105d2575b1561059357612710610548838361160d565b03610554575f55600155005b60405162461bcd60e51b8152602060048201526017602482015276526174696f73206d7573742073756d20746f203130302560481b6044820152606490fd5b60405162461bcd60e51b81526020600482015260176024820152764d696e20726174696f206d75737420626520352d35302560481b6044820152606490fd5b506113888210610536565b60405162461bcd60e51b81526020600482015260186024820152774d617820726174696f206d7573742062652035302d39352560401b6044820152606490fd5b5061251c811115610525565b3461017b57602036600319011261017b576004355f526004602052602060ff60405f2054166040519015158152f35b3461017b576106663661127e565b5050507f00000000000000000000000000000000000000000000000000000000000000006001600160a01b03163303935061020d9250505057630a85dc2960e01b5f5260045ffd5b3461017b576107296106bf366111a8565b91905f61070161070f6040516106d48161138e565b8681526106e1368661149c565b602082015233604082015283606082015260405192839160208301611528565b03601f1981018352826113f4565b604051809481926348c8949160e01b83526004830161130d565b0381837f00000000000000000000000000000000000000000000000000000000000000006001600160a01b03165af19081156107c85760a092610773926107a8575b50369061149c565b206040519180835260208301527f47b0d68dd7ea64624970139aa6c676e4e099d12cee4af2dfe393f2353fea86b160403393a3005b6107c3903d805f833e6107bb81836113f4565b81019061159c565b61076b565b6040513d5f823e3d90fd5b3461017b57602036600319011261017b576004356001600160401b03811161017b576108039036906004016111ee565b7f000000000000000000000000000000000000000000000000000000000000000091906001600160a01b038316330361020d578101906101008183031261017b57610861604051926108548461138e565b823584526020830161149c565b90602083019082825261087660c082016111da565b9460e060408601928784520135958615159485880361017b576060870197885260a0951561098c57505090610914916108bd600180871b0385515116875190833091611667565b6108d8600180871b0360208651015116875190833091611667565b6108f7600180871b0385515116600180881b03845116838951926118f1565b83516020015191518651925f196001881b019182169291166118f1565b512091511561094d575b61094960405161092f6040826113f4565b60018152601160f91b60208201526040519182918261130d565b0390f35b8051825f52600360205261096660405f2091825461160d565b905551905f526003602052610983600160405f200191825461160d565b9055808061091e565b5186516109fe946109cf9390926109b192915f1960018b1b01908116918791166116ce565b84516020015190518751915f196001891b01918216918591166116ce565b6109e7600180861b03845151168651908330916118a3565b600180851b036020845101511685519130916118a3565b610914565b3461017b575f36600319011261017b576002546040516001600160a01b039091168152602090f35b3461017b5761010036600319011261017b57610a456111c4565b5060a036602319011261017b57610a5a6112e7565b50610a636112fd565b507f00000000000000000000000000000000000000000000000000000000000000006001600160a01b0316330361020d57630a85dc2960e01b5f5260045ffd5b3461017b5761014036600319011261017b57610abd6111c4565b60a036602319011261017b5760603660c319011261017b57610124356001600160401b03811161017b57610af59036906004016111ee565b507f000000000000000000000000000000000000000000000000000000000000000090506001600160a01b038116330361020d5760a0610b3436611415565b2060e435905f821291825f14610e7357600160ff1b8114610e19575f036001600160801b03169182905b610b6661161a565b5f84815260036020526040902080546001909101549115610e3c576001600160801b03841690818310610e2d57610bbb91610bb591610baf906001600160801b038a169061160d565b9361151b565b8261160d565b9081158015610db7575b5050506060957f7ae1fc07b9bee54803f9f0fe130c25b787a7b7cff8159ca04e338454bbd6b61b9287925f14610d8e57610c0a6001600160801b038216600f0b611629565b6001600160801b03166001600160801b0319608088901b1617965b610c2d61161a565b15610d0557610ca690610c8d610c4161194b565b6001600160801b038a1690610c5b908290309086906118a3565b610c7b610c66611961565b6001600160801b038716948591309190611667565b885f52600360205260405f205461160d565b5f8881526003602052604090209081556001015461151b565b855f526003602052600160405f2001555b610cbf61161a565b604080516001600160801b0398891681529790921660208801521515908601526001600160a01b031693a3604051906315d7892d60e21b825260208201525f6040820152f35b610d7990610d60610d1461194b565b6001600160801b03851690610d2e90829030908690611667565b610d4e610d39611961565b6001600160801b038c169485913091906118a3565b885f52600360205260405f205461151b565b5f8881526003602052604090209081556001015461160d565b855f526003602052600160405f200155610cb7565b610da36001600160801b038216600f0b611629565b60801b6001600160801b0387161796610c25565b6127108202918083046127101490151715610e1957610e0557045f548111908115610df9575b50610dea57868080610bc5565b6346722f1360e11b5f5260045ffd5b90506001541187610ddd565b634e487b7160e01b5f52601260045260245ffd5b634e487b7160e01b5f52601160045260245ffd5b63bb55fd2760e01b5f5260045ffd5b6001600160801b038416808210610e2d57610e5d610e6e91610bbb9361151b565b926001600160801b0388169061160d565b610bb5565b6001600160801b0316918290610b5e565b3461017b575f36600319011261017b5760205f54604051908152f35b3461017b57366003190160a0811261017b5760a01361017b57604051610ec5816113d9565b6004356001600160a01b038116810361017b5781526024356001600160a01b038116810361017b57602082015260443562ffffff8116810361017b5760408201526064358060020b810361017b5760608201526084356001600160a01b038116810361017b578160a0916080604094015220805f526003602052815f2054905f5260036020526001825f20015482519182526020820152f35b3461017b575f36600319011261017b576020600154604051908152f35b3461017b57610f893661121b565b5050507f00000000000000000000000000000000000000000000000000000000000000006001600160a01b03163303915061020d90505763033d48c960e31b5f5260045ffd5b3461017b57610fdd3661121b565b5050507f00000000000000000000000000000000000000000000000000000000000000006001600160a01b03163303915061020d905057630a85dc2960e01b5f5260045ffd5b3461017b57611031366111a8565b9060a061103e368361149c565b2090815f5260036020528260405f2054108015611176575b610e2d575f6107016110d56110ef9385845260036020526040842061107c88825461151b565b905585845260036020526001604085200161109888825461151b565b90556110b4604051916110aa8361138e565b888352369061149c565b60208201523360408201526001606082015260405192839160208301611528565b604051809381926348c8949160e01b83526004830161130d565b0381837f00000000000000000000000000000000000000000000000000000000000000006001600160a01b03165af180156107c85761115e575b506040519180835260208301527f317e53ec6bc434475c6a7c12af460342fa47661758139f35045090a232213a0c60403393a3005b611171903d805f833e6107bb81836113f4565b611129565b50815f52600360205282600160405f20015410611056565b3461017b575f36600319011261017b578061271060209252f35b6003190160c0811261017b5760a01361017b5760049060a43590565b600435906001600160a01b038216820361017b57565b35906001600160a01b038216820361017b57565b9181601f8401121561017b578235916001600160401b03831161017b576020838186019501011161017b57565b9061016060031983011261017b576004356001600160a01b038116810361017b579160a060231982011261017b57602491608060c31983011261017b5760c49161014435906001600160401b03821161017b5761127a916004016111ee565b9091565b906101a060031983011261017b576004356001600160a01b038116810361017b579160a060231982011261017b57602491608060c31983011261017b5760c4916101443591610164359161018435906001600160401b03821161017b5761127a916004016111ee565b60c435906001600160a01b038216820361017b57565b60e435908160020b820361017b57565b602060409281835280519182918282860152018484015e5f828201840152601f01601f1916010190565b61012060031982011261017b576004356001600160a01b038116810361017b579160a060231983011261017b5760249160c4359160e4359161010435906001600160401b03821161017b5761127a916004016111ee565b608081019081106001600160401b038211176113a957604052565b634e487b7160e01b5f52604160045260245ffd5b6101c081019081106001600160401b038211176113a957604052565b60a081019081106001600160401b038211176113a957604052565b90601f801991011681019081106001600160401b038211176113a957604052565b60a090602319011261017b576040519061142e826113d9565b816024356001600160a01b038116810361017b5781526044356001600160a01b038116810361017b57602082015260643562ffffff8116810361017b5760408201526084358060020b810361017b57606082015260a435906001600160a01b038216820361017b5760800152565b91908260a091031261017b576040516114b4816113d9565b80926114bf816111da565b82526114cd602082016111da565b6020830152604081013562ffffff8116810361017b5760408301526060810135908160020b820361017b57606083019190915260800135906001600160a01b038216820361017b5760800152565b91908203918211610e1957565b8151815260208083015180516001600160a01b03908116838501529181015182166040808501919091528082015162ffffff166060808601919091528281015160020b60808087019190915290920151831660a085015284015190911660c083015290910151151560e08201526101000190565b60208183031261017b578051906001600160401b03821161017b570181601f8201121561017b578051906001600160401b0382116113a957604051926115ec601f8401601f1916602001856113f4565b8284526020838301011161017b57815f9260208093018386015e8301015290565b91908201809211610e1957565b60c435801515810361017b5790565b600f0b60016001607f1b03198114610e19575f0390565b9081602091031261017b5751801515810361017b5790565b9081602091031261017b575190565b9192906001600160a01b0316803b1561017b57604051637a94c56560e11b81526001600160a01b03948516600482015293909216602484015260448301525f908290818381606481015b03925af180156107c8576116c25750565b5f6116cc916113f4565b565b9192916001600160a01b03168061173c5750604051630476982d60e21b81529250602091839160049183916001600160a01b03165af180156107c8576117115750565b6117329060203d602011611735575b61172a81836113f4565b810190611658565b50565b503d611720565b6001600160a01b0390911691823b1561017b57604051632961046560e21b815260048101839052935a945f816024818389819bf180156107c85761188e575b506001600160a01b031684308214611833576020929160649160405195869485936323b872dd60e01b8552600485015288602485015260448401525af18015611828579160209184936117fb575b505b600460405180958193630476982d60e21b83525af19081156117ef57506117115750565b604051903d90823e3d90fd5b61181a90833d8511611821575b61181281836113f4565b810190611640565b505f6117c9565b503d611808565b6040513d85823e3d90fd5b9290506044602092604051948593849263a9059cbb60e01b845288600485015260248401525af1801561182857916020918493611871575b506117cb565b61188790833d85116118215761181281836113f4565b505f61186b565b61189b9195505f906113f4565b5f935f61177b565b9192906001600160a01b0316803b1561017b57604051630ab714fb60e11b81526001600160a01b03948516600482015293909216602484015260448301525f908290818381606481016116b1565b91906001600160a01b0316803b1561017b57604051630b0d9c0960e01b81526001600160a01b03938416600482015291909216602482015260448101929092525f908290606490829084905af180156107c8576116c25750565b6024356001600160a01b038116810361017b5790565b6044356001600160a01b038116810361017b579056fea2646970667358221220decd8f5db3a049f90f8dcbc8d19fcc80a8773ecf9dcbe74c16011dc0a9d516bb64736f6c634300081a003300000000000000000000000000b036b58a818b1bc34d502d3fe730db729e62ac",
        "nonce": "0x21",
        "chainId": "0x515"
      },
      "additionalContracts": [],
      "isFixedGasLimit": false
    },
    {
      "hash": "0xaf2378569f40aa28065f6dd193bdcdc2abeac6650e2d087414482170abac14c7",
      "transactionType": "CALL",
      "contractName": "PoolManager",
      "contractAddress": "0x00b036b58a818b1bc34d502d3fe730db729e62ac",
      "function": "initialize((address,address,uint24,int24,address),uint160)",
      "arguments": [
        "(0x11900586D3Fc89dF8B66436e7F460AC51577DcED, 0x1388B7EE387e50B3dc76CFfd15aae0db531C78B8, 3000, 60, 0xFfFCBDce1Ae3Aca35Bd94996207D5589271f6888)",
        "79228162514264337593543950336"
      ],
      "transaction": {
        "from": "0xec891a037f932493624184970a283ab87398e0a6",
        "to": "0x00b036b58a818b1bc34d502d3fe730db729e62ac",
        "gas": "0x1a78f",
        "value": "0x0",
        "input": "0x6276cbbe00000000000000000000000011900586d3fc89df8b66436e7f460ac51577dced0000000000000000000000001388b7ee387e50b3dc76cffd15aae0db531c78b80000000000000000000000000000000000000000000000000000000000000bb8000000000000000000000000000000000000000000000000000000000000003c000000000000000000000000fffcbdce1ae3aca35bd94996207d5589271f68880000000000000000000000000000000000000001000000000000000000000000",
        "nonce": "0x22",
        "chainId": "0x515"
      },
      "additionalContracts": [],
      "isFixedGasLimit": false
    },
    {
      "hash": "0x2fa7b980211cffe6d7705f9b0570cd36d697fcd68188452c937fc0b2962eca66",
      "transactionType": "CALL",
      "contractName": "TestToken",
      "contractAddress": "0x11900586d3fc89df8b66436e7f460ac51577dced",
      "function": "approve(address,uint256)",
      "arguments": [
        "0xFfFCBDce1Ae3Aca35Bd94996207D5589271f6888",
        "115792089237316195423570985008687907853269984665640564039457584007913129639935"
      ],
      "transaction": {
        "from": "0xec891a037f932493624184970a283ab87398e0a6",
        "to": "0x11900586d3fc89df8b66436e7f460ac51577dced",
        "gas": "0x10837",
        "value": "0x0",
        "input": "0x095ea7b3000000000000000000000000fffcbdce1ae3aca35bd94996207d5589271f6888ffffffffffffffffffffffffffffffffffffffffffffffffffffffffffffffff",
        "nonce": "0x23",
        "chainId": "0x515"
      },
      "additionalContracts": [],
      "isFixedGasLimit": false
    },
    {
      "hash": "0x2e3f3d578fc2998207052d84e255ae61824cd6bdc7f2dcdfcaf04d4fb5fe2679",
      "transactionType": "CALL",
      "contractName": "TestToken",
      "contractAddress": "0x1388b7ee387e50b3dc76cffd15aae0db531c78b8",
      "function": "approve(address,uint256)",
      "arguments": [
        "0xFfFCBDce1Ae3Aca35Bd94996207D5589271f6888",
        "115792089237316195423570985008687907853269984665640564039457584007913129639935"
      ],
      "transaction": {
        "from": "0xec891a037f932493624184970a283ab87398e0a6",
        "to": "0x1388b7ee387e50b3dc76cffd15aae0db531c78b8",
        "gas": "0x10837",
        "value": "0x0",
        "input": "0x095ea7b3000000000000000000000000fffcbdce1ae3aca35bd94996207d5589271f6888ffffffffffffffffffffffffffffffffffffffffffffffffffffffffffffffff",
        "nonce": "0x24",
        "chainId": "0x515"
      },
      "additionalContracts": [],
      "isFixedGasLimit": false
    },
    {
      "hash": "0xf2bb75949d32909bf9c0f5ef59828bbcb9ac04e90d2a9377fd2c32f71f2c7b3b",
      "transactionType": "CALL",
      "contractName": "ConstantSumHook",
      "contractAddress": "0xfffcbdce1ae3aca35bd94996207d5589271f6888",
      "function": "addLiquidity((address,address,uint24,int24,address),uint256)",
      "arguments": [
        "(0x11900586D3Fc89dF8B66436e7F460AC51577DcED, 0x1388B7EE387e50B3dc76CFfd15aae0db531C78B8, 3000, 60, 0xFfFCBDce1Ae3Aca35Bd94996207D5589271f6888)",
        "10000000000000000000000"
      ],
      "transaction": {
        "from": "0xec891a037f932493624184970a283ab87398e0a6",
        "to": "0xfffcbdce1ae3aca35bd94996207d5589271f6888",
        "gas": "0x4be7a",
        "value": "0x0",
        "input": "0x9e436f5700000000000000000000000011900586d3fc89df8b66436e7f460ac51577dced0000000000000000000000001388b7ee387e50b3dc76cffd15aae0db531c78b80000000000000000000000000000000000000000000000000000000000000bb8000000000000000000000000000000000000000000000000000000000000003c000000000000000000000000fffcbdce1ae3aca35bd94996207d5589271f688800000000000000000000000000000000000000000000021e19e0c9bab2400000",
        "nonce": "0x25",
        "chainId": "0x515"
      },
      "additionalContracts": [],
      "isFixedGasLimit": false
    },
    {
      "hash": "0x3ed0a364ec066a378b16bea6f924640ce3cac26c9c35310a26d277c726f6c95c",
      "transactionType": "CALL",
      "contractName": "TestToken",
      "contractAddress": "0x11900586d3fc89df8b66436e7f460ac51577dced",
      "function": "approve(address,uint256)",
      "arguments": [
        "0x5F00C4dcc1EB251c38936AFccF1A0dEb9d579E46",
        "115792089237316195423570985008687907853269984665640564039457584007913129639935"
      ],
      "transaction": {
        "from": "0xec891a037f932493624184970a283ab87398e0a6",
        "to": "0x11900586d3fc89df8b66436e7f460ac51577dced",
        "gas": "0xf977",
        "value": "0x0",
        "input": "0x095ea7b30000000000000000000000005f00c4dcc1eb251c38936afccf1a0deb9d579e46ffffffffffffffffffffffffffffffffffffffffffffffffffffffffffffffff",
        "nonce": "0x26",
        "chainId": "0x515"
      },
      "additionalContracts": [],
      "isFixedGasLimit": false
    },
    {
      "hash": "0xa5a57cf538466353279726d24ad7afa5acf7cfe19e717be3684d7c09a433d06f",
      "transactionType": "CALL",
      "contractName": "TestToken",
      "contractAddress": "0x1388b7ee387e50b3dc76cffd15aae0db531c78b8",
      "function": "approve(address,uint256)",
      "arguments": [
        "0x5F00C4dcc1EB251c38936AFccF1A0dEb9d579E46",
        "115792089237316195423570985008687907853269984665640564039457584007913129639935"
      ],
      "transaction": {
        "from": "0xec891a037f932493624184970a283ab87398e0a6",
        "to": "0x1388b7ee387e50b3dc76cffd15aae0db531c78b8",
        "gas": "0xf977",
        "value": "0x0",
        "input": "0x095ea7b30000000000000000000000005f00c4dcc1eb251c38936afccf1a0deb9d579e46ffffffffffffffffffffffffffffffffffffffffffffffffffffffffffffffff",
        "nonce": "0x27",
        "chainId": "0x515"
      },
      "additionalContracts": [],
      "isFixedGasLimit": false
    },
    {
      "hash": "0x0f2f9f7a38fbd2ddcfa060a2ff2ffba53a094ed2866900e8cd9bea8e84d3e45a",
      "transactionType": "CALL",
      "contractName": "SimpleSwapRouter",
      "contractAddress": "0x5f00c4dcc1eb251c38936afccf1a0deb9d579e46",
      "function": "swap((address,address,uint24,int24,address),(bool,int256,uint160))",
      "arguments": [
        "(0x11900586D3Fc89dF8B66436e7F460AC51577DcED, 0x1388B7EE387e50B3dc76CFfd15aae0db531C78B8, 3000, 60, 0xFfFCBDce1Ae3Aca35Bd94996207D5589271f6888)",
        "(true, -100000000000000000000, 4295128740)"
      ],
      "transaction": {
        "from": "0xec891a037f932493624184970a283ab87398e0a6",
        "to": "0x5f00c4dcc1eb251c38936afccf1a0deb9d579e46",
        "gas": "0x2e801",
        "value": "0x0",
        "input": "0x1e2817de00000000000000000000000011900586d3fc89df8b66436e7f460ac51577dced0000000000000000000000001388b7ee387e50b3dc76cffd15aae0db531c78b80000000000000000000000000000000000000000000000000000000000000bb8000000000000000000000000000000000000000000000000000000000000003c000000000000000000000000fffcbdce1ae3aca35bd94996207d5589271f68880000000000000000000000000000000000000000000000000000000000000001fffffffffffffffffffffffffffffffffffffffffffffffa9438a1d29cf0000000000000000000000000000000000000000000000000000000000001000276a4",
        "nonce": "0x28",
        "chainId": "0x515"
      },
      "additionalContracts": [],
      "isFixedGasLimit": false
    }
  ],
  "receipts": [
    {
      "status": "0x1",
      "cumulativeGasUsed": "0xd3a4e",
      "logs": [
        {
          "address": "0x11900586d3fc89df8b66436e7f460ac51577dced",
          "topics": [
            "0xddf252ad1be2c89b69c2b068fc378daa952ba7f163c4a11628f55a4df523b3ef",
            "0x0000000000000000000000000000000000000000000000000000000000000000",
            "0x000000000000000000000000ec891a037f932493624184970a283ab87398e0a6"
          ],
          "data": "0x00000000000000000000000000000000000000000000d3c21bcecceda1000000",
          "blockHash": "0xcbbe109d43f317f2ef42e4a529cf523d6205abf303892f193d4ea469c4bb2dbb",
          "blockNumber": "0x24781d3",
          "blockTimestamp": "0x69352f1f",
          "transactionHash": "0x77d6339b97235234750ac1de7934db6c08519796fccb454df4d9f2bd1232a135",
          "transactionIndex": "0x6",
          "logIndex": "0x0",
          "removed": false
        }
      ],
      "logsBloom": "0x00000000000000000000000000000000000000000000000000000000000000000000000000000200000000800000000000000000000000000000000000000000000000000000000000000008000000000000000000000000000000000000000000000000020000000000000000000800100000000000000000000010000000080000000200000000000000000000000000000000000000000000000000000000000000000000000000000000000000000000000000000000000000000000000100000002000000000000000000000000000000000000000000000000000020000000000000000000000000000000000000000000000000000000000000000000",
      "type": "0x2",
      "transactionHash": "0x77d6339b97235234750ac1de7934db6c08519796fccb454df4d9f2bd1232a135",
      "transactionIndex": "0x6",
      "blockHash": "0xcbbe109d43f317f2ef42e4a529cf523d6205abf303892f193d4ea469c4bb2dbb",
      "blockNumber": "0x24781d3",
      "gasUsed": "0xadaa8",
      "effectiveGasPrice": "0x33",
      "blobGasUsed": "0xdb3d0",
      "from": "0xec891a037f932493624184970a283ab87398e0a6",
      "to": null,
      "contractAddress": "0x11900586d3fc89df8b66436e7f460ac51577dced",
      "daFootprintGasScalar": "0x190",
      "l1BaseFeeScalar": "0x7d0",
      "l1BlobBaseFee": "0x1",
      "l1BlobBaseFeeScalar": "0xdbba0",
      "l1Fee": "0xab3",
      "l1GasPrice": "0xa",
      "l1GasUsed": "0x8c53"
    },
    {
      "status": "0x1",
      "cumulativeGasUsed": "0x1814f6",
      "logs": [
        {
          "address": "0x1388b7ee387e50b3dc76cffd15aae0db531c78b8",
          "topics": [
            "0xddf252ad1be2c89b69c2b068fc378daa952ba7f163c4a11628f55a4df523b3ef",
            "0x0000000000000000000000000000000000000000000000000000000000000000",
            "0x000000000000000000000000ec891a037f932493624184970a283ab87398e0a6"
          ],
          "data": "0x00000000000000000000000000000000000000000000d3c21bcecceda1000000",
          "blockHash": "0xcbbe109d43f317f2ef42e4a529cf523d6205abf303892f193d4ea469c4bb2dbb",
          "blockNumber": "0x24781d3",
          "blockTimestamp": "0x69352f1f",
          "transactionHash": "0x951f9bdc766910e8459c5ff4d0296c1798b1dec6a052d2760a31dab2c29efff6",
          "transactionIndex": "0x7",
          "logIndex": "0x1",
          "removed": false
        }
      ],
      "logsBloom": "0x00000000000000000000000000000000000000000000000008000000000000000000000000000200000000000000000000000000000000000000000000400000000000000000000000000008000000000000000000000000000000000000000000000000020000000000000000000800100000000000000000000010000000080000000000000000000000000000000000000000000000000000000000000000000000000000000002000000000000000000000000000000000000000000000000000002000000000000000000000000000000000000000000000000000020000000000000000000000000000000000000000000000000000000000000000000",
      "type": "0x2",
      "transactionHash": "0x951f9bdc766910e8459c5ff4d0296c1798b1dec6a052d2760a31dab2c29efff6",
      "transactionIndex": "0x7",
      "blockHash": "0xcbbe109d43f317f2ef42e4a529cf523d6205abf303892f193d4ea469c4bb2dbb",
      "blockNumber": "0x24781d3",
      "gasUsed": "0xadaa8",
      "effectiveGasPrice": "0x33",
      "blobGasUsed": "0xdb3d0",
      "from": "0xec891a037f932493624184970a283ab87398e0a6",
      "to": null,
      "contractAddress": "0x1388b7ee387e50b3dc76cffd15aae0db531c78b8",
      "daFootprintGasScalar": "0x190",
      "l1BaseFeeScalar": "0x7d0",
      "l1BlobBaseFee": "0x1",
      "l1BlobBaseFeeScalar": "0xdbba0",
      "l1Fee": "0xab3",
      "l1GasPrice": "0xa",
      "l1GasUsed": "0x8c53"
    },
    {
      "status": "0x1",
      "cumulativeGasUsed": "0xb84bf",
      "logs": [],
      "logsBloom": "0x00000000000000000000000000000000000000000000000000000000000000000000000000000000000000000000000000000000000000000000000000000000000000000000000000000000000000000000000000000000000000000000000000000000000000000000000000000000000000000000000000000000000000000000000000000000000000000000000000000000000000000000000000000000000000000000000000000000000000000000000000000000000000000000000000000000000000000000000000000000000000000000000000000000000000000000000000000000000000000000000000000000000000000000000000000000",
      "type": "0x2",
      "transactionHash": "0xe3efd1295d03a298c7d75f8c698666008a42999af208d1ca8fba23ffbb3fa5d4",
      "transactionIndex": "0x5",
      "blockHash": "0x53a0c37d4f446f72decc44dcbf45f596828ea612298b611150ffefb42a5799aa",
      "blockNumber": "0x24781d4",
      "gasUsed": "0x97a91",
      "effectiveGasPrice": "0x33",
      "blobGasUsed": "0xa82a0",
      "from": "0xec891a037f932493624184970a283ab87398e0a6",
      "to": null,
      "contractAddress": "0x5f00c4dcc1eb251c38936afccf1a0deb9d579e46",
      "daFootprintGasScalar": "0x190",
      "l1BaseFeeScalar": "0x7d0",
      "l1BlobBaseFee": "0x1",
      "l1BlobBaseFeeScalar": "0xdbba0",
      "l1Fee": "0x835",
      "l1GasPrice": "0xa",
      "l1GasUsed": "0x6ba6"
    },
    {
      "status": "0x1",
      "cumulativeGasUsed": "0x233950",
      "logs": [],
      "logsBloom": "0x00000000000000000000000000000000000000000000000000000000000000000000000000000000000000000000000000000000000000000000000000000000000000000000000000000000000000000000000000000000000000000000000000000000000000000000000000000000000000000000000000000000000000000000000000000000000000000000000000000000000000000000000000000000000000000000000000000000000000000000000000000000000000000000000000000000000000000000000000000000000000000000000000000000000000000000000000000000000000000000000000000000000000000000000000000000",
      "type": "0x2",
      "transactionHash": "0xad6f3c885b3206b33651564631900500fa3a52efd4e70d3eebce24656d359d9a",
      "transactionIndex": "0x6",
      "blockHash": "0x53a0c37d4f446f72decc44dcbf45f596828ea612298b611150ffefb42a5799aa",
      "blockNumber": "0x24781d4",
      "gasUsed": "0x17b491",
      "effectiveGasPrice": "0x33",
      "blobGasUsed": "0x17def0",
      "from": "0xec891a037f932493624184970a283ab87398e0a6",
      "to": "0x4e59b44847b379578588920ca78fbf26c0b4956c",
      "contractAddress": null,
      "daFootprintGasScalar": "0x190",
      "l1BaseFeeScalar": "0x7d0",
      "l1BlobBaseFee": "0x1",
      "l1BlobBaseFeeScalar": "0xdbba0",
      "l1Fee": "0x12a4",
      "l1GasPrice": "0xa",
      "l1GasUsed": "0xf478"
    },
    {
      "status": "0x1",
      "cumulativeGasUsed": "0x246bf7",
      "logs": [
        {
          "address": "0x00b036b58a818b1bc34d502d3fe730db729e62ac",
          "topics": [
            "0xdd466e674ea557f56295e2d0218a125ea4b4f0f6f3307b95f85e6110838d6438",
            "0x30963638a1b03acdf598ad6263601a180f325c95068822e9559382b85061479e",
            "0x00000000000000000000000011900586d3fc89df8b66436e7f460ac51577dced",
            "0x0000000000000000000000001388b7ee387e50b3dc76cffd15aae0db531c78b8"
          ],
          "data": "0x0000000000000000000000000000000000000000000000000000000000000bb8000000000000000000000000000000000000000000000000000000000000003c000000000000000000000000fffcbdce1ae3aca35bd94996207d5589271f688800000000000000000000000000000000000000010000000000000000000000000000000000000000000000000000000000000000000000000000000000000000",
          "blockHash": "0x53a0c37d4f446f72decc44dcbf45f596828ea612298b611150ffefb42a5799aa",
          "blockNumber": "0x24781d4",
          "blockTimestamp": "0x69352f20",
          "transactionHash": "0xaf2378569f40aa28065f6dd193bdcdc2abeac6650e2d087414482170abac14c7",
          "transactionIndex": "0x7",
          "logIndex": "0x0",
          "removed": false
        }
      ],
      "logsBloom": "0x00000000000000000000000000000000000000080000000000000040000000000000040000000100000000000000000000000000000020000000000000000000000000000000000000000000000000000000080000000000000000000000000000000000000000000000000000000000000000000000000000000000000000000000000000000008000000000008000000000001000000000000000000200000000000000000000000000000000000000000000000000200000000000000000000000000000000000000000000000000000000000000000000000000000000000000000000000000001000800000000000000000000002000000000000000010",
      "type": "0x2",
      "transactionHash": "0xaf2378569f40aa28065f6dd193bdcdc2abeac6650e2d087414482170abac14c7",
      "transactionIndex": "0x7",
      "blockHash": "0x53a0c37d4f446f72decc44dcbf45f596828ea612298b611150ffefb42a5799aa",
      "blockNumber": "0x24781d4",
      "gasUsed": "0x132a7",
      "effectiveGasPrice": "0x33",
      "blobGasUsed": "0xd7a0",
      "from": "0xec891a037f932493624184970a283ab87398e0a6",
      "to": "0x00b036b58a818b1bc34d502d3fe730db729e62ac",
      "contractAddress": null,
      "daFootprintGasScalar": "0x190",
      "l1BaseFeeScalar": "0x7d0",
      "l1BlobBaseFee": "0x1",
      "l1BlobBaseFeeScalar": "0xdbba0",
      "l1Fee": "0xa9",
      "l1GasPrice": "0xa",
      "l1GasUsed": "0x8ae"
    },
    {
      "status": "0x1",
      "cumulativeGasUsed": "0x2520a0",
      "logs": [
        {
          "address": "0x11900586d3fc89df8b66436e7f460ac51577dced",
          "topics": [
            "0x8c5be1e5ebec7d5bd14f71427d1e84f3dd0314c0f7b2291e5b200ac8c7c3b925",
            "0x000000000000000000000000ec891a037f932493624184970a283ab87398e0a6",
            "0x000000000000000000000000fffcbdce1ae3aca35bd94996207d5589271f6888"
          ],
          "data": "0xffffffffffffffffffffffffffffffffffffffffffffffffffffffffffffffff",
          "blockHash": "0x53a0c37d4f446f72decc44dcbf45f596828ea612298b611150ffefb42a5799aa",
          "blockNumber": "0x24781d4",
          "blockTimestamp": "0x69352f20",
          "transactionHash": "0x2fa7b980211cffe6d7705f9b0570cd36d697fcd68188452c937fc0b2962eca66",
          "transactionIndex": "0x8",
          "logIndex": "0x1",
          "removed": false
        }
      ],
      "logsBloom": "0x00000000000000000000000000000000000000000000000000000000000000000000000000000200000000800000000000000000000000020000000000200000000000000000000000000000000000000000000000000000000000000000000000000000000000000000000000000000100000000000000000000000000000080000000200000000000000000000000000000000000000000000000000000000020000000000000000000000000000000000000000000000000000000000000100000000000000000000000000000000000000000000000000000000000000000010000000000000000080000000000000000000000000080000000000000000",
      "type": "0x2",
      "transactionHash": "0x2fa7b980211cffe6d7705f9b0570cd36d697fcd68188452c937fc0b2962eca66",
      "transactionIndex": "0x8",
      "blockHash": "0x53a0c37d4f446f72decc44dcbf45f596828ea612298b611150ffefb42a5799aa",
      "blockNumber": "0x24781d4",
      "gasUsed": "0xb4a9",
      "effectiveGasPrice": "0x33",
      "blobGasUsed": "0x9c40",
      "from": "0xec891a037f932493624184970a283ab87398e0a6",
      "to": "0x11900586d3fc89df8b66436e7f460ac51577dced",
      "contractAddress": null,
      "daFootprintGasScalar": "0x190",
      "l1BaseFeeScalar": "0x7d0",
      "l1BlobBaseFee": "0x1",
      "l1BlobBaseFeeScalar": "0xdbba0",
      "l1Fee": "0x7a",
      "l1GasPrice": "0xa",
      "l1GasUsed": "0x640"
    },
    {
      "status": "0x1",
      "cumulativeGasUsed": "0x25d549",
      "logs": [
        {
          "address": "0x1388b7ee387e50b3dc76cffd15aae0db531c78b8",
          "topics": [
            "0x8c5be1e5ebec7d5bd14f71427d1e84f3dd0314c0f7b2291e5b200ac8c7c3b925",
            "0x000000000000000000000000ec891a037f932493624184970a283ab87398e0a6",
            "0x000000000000000000000000fffcbdce1ae3aca35bd94996207d5589271f6888"
          ],
          "data": "0xffffffffffffffffffffffffffffffffffffffffffffffffffffffffffffffff",
          "blockHash": "0x53a0c37d4f446f72decc44dcbf45f596828ea612298b611150ffefb42a5799aa",
          "blockNumber": "0x24781d4",
          "blockTimestamp": "0x69352f20",
          "transactionHash": "0x2e3f3d578fc2998207052d84e255ae61824cd6bdc7f2dcdfcaf04d4fb5fe2679",
          "transactionIndex": "0x9",
          "logIndex": "0x2",
          "removed": false
        }
      ],
      "logsBloom": "0x00000000000000000000000000000000000000000000000008000000000000000000000000000200000000000000000000000000000000020000000000600000000000000000000000000000000000000000000000000000000000000000000000000000000000000000000000000000100000000000000000000000000000080000000000000000000000000000000000000000000000000000000000000000020000000000000002000000000000000000000000000000000000000000000000000000000000000000000000000000000000000000000000000000000000000010000000000000000080000000000000000000000000080000000000000000",
      "type": "0x2",
      "transactionHash": "0x2e3f3d578fc2998207052d84e255ae61824cd6bdc7f2dcdfcaf04d4fb5fe2679",
      "transactionIndex": "0x9",
      "blockHash": "0x53a0c37d4f446f72decc44dcbf45f596828ea612298b611150ffefb42a5799aa",
      "blockNumber": "0x24781d4",
      "gasUsed": "0xb4a9",
      "effectiveGasPrice": "0x33",
      "blobGasUsed": "0x9c40",
      "from": "0xec891a037f932493624184970a283ab87398e0a6",
      "to": "0x1388b7ee387e50b3dc76cffd15aae0db531c78b8",
      "contractAddress": null,
      "daFootprintGasScalar": "0x190",
      "l1BaseFeeScalar": "0x7d0",
      "l1BlobBaseFee": "0x1",
      "l1BlobBaseFeeScalar": "0xdbba0",
      "l1Fee": "0x7a",
      "l1GasPrice": "0xa",
      "l1GasUsed": "0x640"
    },
    {
      "status": "0x1",
      "cumulativeGasUsed": "0x2913b3",
      "logs": [
        {
          "address": "0x11900586d3fc89df8b66436e7f460ac51577dced",
          "topics": [
            "0xddf252ad1be2c89b69c2b068fc378daa952ba7f163c4a11628f55a4df523b3ef",
            "0x000000000000000000000000ec891a037f932493624184970a283ab87398e0a6",
            "0x00000000000000000000000000b036b58a818b1bc34d502d3fe730db729e62ac"
          ],
          "data": "0x00000000000000000000000000000000000000000000021e19e0c9bab2400000",
          "blockHash": "0x53a0c37d4f446f72decc44dcbf45f596828ea612298b611150ffefb42a5799aa",
          "blockNumber": "0x24781d4",
          "blockTimestamp": "0x69352f20",
          "transactionHash": "0xf2bb75949d32909bf9c0f5ef59828bbcb9ac04e90d2a9377fd2c32f71f2c7b3b",
          "transactionIndex": "0xa",
          "logIndex": "0x3",
          "removed": false
        },
        {
          "address": "0x1388b7ee387e50b3dc76cffd15aae0db531c78b8",
          "topics": [
            "0xddf252ad1be2c89b69c2b068fc378daa952ba7f163c4a11628f55a4df523b3ef",
            "0x000000000000000000000000ec891a037f932493624184970a283ab87398e0a6",
            "0x00000000000000000000000000b036b58a818b1bc34d502d3fe730db729e62ac"
          ],
          "data": "0x00000000000000000000000000000000000000000000021e19e0c9bab2400000",
          "blockHash": "0x53a0c37d4f446f72decc44dcbf45f596828ea612298b611150ffefb42a5799aa",
          "blockNumber": "0x24781d4",
          "blockTimestamp": "0x69352f20",
          "transactionHash": "0xf2bb75949d32909bf9c0f5ef59828bbcb9ac04e90d2a9377fd2c32f71f2c7b3b",
          "transactionIndex": "0xa",
          "logIndex": "0x4",
          "removed": false
        },
        {
          "address": "0x00b036b58a818b1bc34d502d3fe730db729e62ac",
          "topics": [
            "0x1b3d7edb2e9c0b0e7c525b20aaaef0f5940d2ed71663c7d39266ecafac728859",
            "0x0000000000000000000000000000000000000000000000000000000000000000",
            "0x000000000000000000000000fffcbdce1ae3aca35bd94996207d5589271f6888",
            "0x00000000000000000000000011900586d3fc89df8b66436e7f460ac51577dced"
          ],
          "data": "0x000000000000000000000000fffcbdce1ae3aca35bd94996207d5589271f688800000000000000000000000000000000000000000000021e19e0c9bab2400000",
          "blockHash": "0x53a0c37d4f446f72decc44dcbf45f596828ea612298b611150ffefb42a5799aa",
          "blockNumber": "0x24781d4",
          "blockTimestamp": "0x69352f20",
          "transactionHash": "0xf2bb75949d32909bf9c0f5ef59828bbcb9ac04e90d2a9377fd2c32f71f2c7b3b",
          "transactionIndex": "0xa",
          "logIndex": "0x5",
          "removed": false
        },
        {
          "address": "0x00b036b58a818b1bc34d502d3fe730db729e62ac",
          "topics": [
            "0x1b3d7edb2e9c0b0e7c525b20aaaef0f5940d2ed71663c7d39266ecafac728859",
            "0x0000000000000000000000000000000000000000000000000000000000000000",
            "0x000000000000000000000000fffcbdce1ae3aca35bd94996207d5589271f6888",
            "0x0000000000000000000000001388b7ee387e50b3dc76cffd15aae0db531c78b8"
          ],
          "data": "0x000000000000000000000000fffcbdce1ae3aca35bd94996207d5589271f688800000000000000000000000000000000000000000000021e19e0c9bab2400000",
          "blockHash": "0x53a0c37d4f446f72decc44dcbf45f596828ea612298b611150ffefb42a5799aa",
          "blockNumber": "0x24781d4",
          "blockTimestamp": "0x69352f20",
          "transactionHash": "0xf2bb75949d32909bf9c0f5ef59828bbcb9ac04e90d2a9377fd2c32f71f2c7b3b",
          "transactionIndex": "0xa",
          "logIndex": "0x6",
          "removed": false
        },
        {
          "address": "0xfffcbdce1ae3aca35bd94996207d5589271f6888",
          "topics": [
            "0x47b0d68dd7ea64624970139aa6c676e4e099d12cee4af2dfe393f2353fea86b1",
            "0x30963638a1b03acdf598ad6263601a180f325c95068822e9559382b85061479e",
            "0x000000000000000000000000ec891a037f932493624184970a283ab87398e0a6"
          ],
          "data": "0x00000000000000000000000000000000000000000000021e19e0c9bab240000000000000000000000000000000000000000000000000021e19e0c9bab2400000",
          "blockHash": "0x53a0c37d4f446f72decc44dcbf45f596828ea612298b611150ffefb42a5799aa",
          "blockNumber": "0x24781d4",
          "blockTimestamp": "0x69352f20",
          "transactionHash": "0xf2bb75949d32909bf9c0f5ef59828bbcb9ac04e90d2a9377fd2c32f71f2c7b3b",
          "transactionIndex": "0xa",
          "logIndex": "0x7",
          "removed": false
        }
      ],
      "logsBloom": "0x00000000000000000000000000000000000000080000000008000040000000000000040000000300000000800000000000000000001020020000000000400000000000000000000000000008800004000000080000000000000000000000000000000000020000020000000000004800100000000000000000000010000000080080000200000000000000000008001008000000000000000000000000000000000000000000002002000000000020000000000000000220000000000000000100000002000000000000000000000000000000000000000000000000000020000000000000000000001080800000000000000000000002080000000004000010",
      "type": "0x2",
      "transactionHash": "0xf2bb75949d32909bf9c0f5ef59828bbcb9ac04e90d2a9377fd2c32f71f2c7b3b",
      "transactionIndex": "0xa",
      "blockHash": "0x53a0c37d4f446f72decc44dcbf45f596828ea612298b611150ffefb42a5799aa",
      "blockNumber": "0x24781d4",
      "gasUsed": "0x33e6a",
      "effectiveGasPrice": "0x33",
      "blobGasUsed": "0xc4e0",
      "from": "0xec891a037f932493624184970a283ab87398e0a6",
      "to": "0xfffcbdce1ae3aca35bd94996207d5589271f6888",
      "contractAddress": null,
      "daFootprintGasScalar": "0x190",
      "l1BaseFeeScalar": "0x7d0",
      "l1BlobBaseFee": "0x1",
      "l1BlobBaseFeeScalar": "0xdbba0",
      "l1Fee": "0x9a",
      "l1GasPrice": "0xa",
      "l1GasUsed": "0x7e6"
    },
    {
      "status": "0x1",
      "cumulativeGasUsed": "0x29c850",
      "logs": [
        {
          "address": "0x11900586d3fc89df8b66436e7f460ac51577dced",
          "topics": [
            "0x8c5be1e5ebec7d5bd14f71427d1e84f3dd0314c0f7b2291e5b200ac8c7c3b925",
            "0x000000000000000000000000ec891a037f932493624184970a283ab87398e0a6",
            "0x0000000000000000000000005f00c4dcc1eb251c38936afccf1a0deb9d579e46"
          ],
          "data": "0xffffffffffffffffffffffffffffffffffffffffffffffffffffffffffffffff",
          "blockHash": "0x53a0c37d4f446f72decc44dcbf45f596828ea612298b611150ffefb42a5799aa",
          "blockNumber": "0x24781d4",
          "blockTimestamp": "0x69352f20",
          "transactionHash": "0x3ed0a364ec066a378b16bea6f924640ce3cac26c9c35310a26d277c726f6c95c",
          "transactionIndex": "0xb",
          "logIndex": "0x8",
          "removed": false
        }
      ],
      "logsBloom": "0x00000000000000000000000000000000000000000000000000000000000000000000000000000200000000800000800008000000000000000000000000200000000000000000000000000000000000000000000000000000000000000000000000000000000000000000000000000000100000000000000000000000000000080000000200000000000000000000000000000000000000000000000000000000020000000000000000000000000000000000000000000000000000000000000100800000000000000000000000000000000000000000000000000000000000000010000000000000000000000000000000000000000000000000000000000000",
      "type": "0x2",
      "transactionHash": "0x3ed0a364ec066a378b16bea6f924640ce3cac26c9c35310a26d277c726f6c95c",
      "transactionIndex": "0xb",
      "blockHash": "0x53a0c37d4f446f72decc44dcbf45f596828ea612298b611150ffefb42a5799aa",
      "blockNumber": "0x24781d4",
      "gasUsed": "0xb49d",
      "effectiveGasPrice": "0x33",
      "blobGasUsed": "0x9c40",
      "from": "0xec891a037f932493624184970a283ab87398e0a6",
      "to": "0x11900586d3fc89df8b66436e7f460ac51577dced",
      "contractAddress": null,
      "daFootprintGasScalar": "0x190",
      "l1BaseFeeScalar": "0x7d0",
      "l1BlobBaseFee": "0x1",
      "l1BlobBaseFeeScalar": "0xdbba0",
      "l1Fee": "0x7a",
      "l1GasPrice": "0xa",
      "l1GasUsed": "0x640"
    },
    {
      "status": "0x1",
      "cumulativeGasUsed": "0x213db",
      "logs": [
        {
          "address": "0x1388b7ee387e50b3dc76cffd15aae0db531c78b8",
          "topics": [
            "0x8c5be1e5ebec7d5bd14f71427d1e84f3dd0314c0f7b2291e5b200ac8c7c3b925",
            "0x000000000000000000000000ec891a037f932493624184970a283ab87398e0a6",
            "0x0000000000000000000000005f00c4dcc1eb251c38936afccf1a0deb9d579e46"
          ],
          "data": "0xffffffffffffffffffffffffffffffffffffffffffffffffffffffffffffffff",
          "blockHash": "0x8c61d2440b5453029a448cd077e14a00b47f65020df6b142a9d51c7c16da4acf",
          "blockNumber": "0x24781d5",
          "blockTimestamp": "0x69352f21",
          "transactionHash": "0xa5a57cf538466353279726d24ad7afa5acf7cfe19e717be3684d7c09a433d06f",
          "transactionIndex": "0x3",
          "logIndex": "0x0",
          "removed": false
        }
      ],
      "logsBloom": "0x00000000000000000000000000000000000000000000000008000000000000000000000000000200000000000000800008000000000000000000000000600000000000000000000000000000000000000000000000000000000000000000000000000000000000000000000000000000100000000000000000000000000000080000000000000000000000000000000000000000000000000000000000000000020000000000000002000000000000000000000000000000000000000000000000800000000000000000000000000000000000000000000000000000000000000010000000000000000000000000000000000000000000000000000000000000",
      "type": "0x2",
      "transactionHash": "0xa5a57cf538466353279726d24ad7afa5acf7cfe19e717be3684d7c09a433d06f",
      "transactionIndex": "0x3",
      "blockHash": "0x8c61d2440b5453029a448cd077e14a00b47f65020df6b142a9d51c7c16da4acf",
      "blockNumber": "0x24781d5",
      "gasUsed": "0xb49d",
      "effectiveGasPrice": "0x33",
      "blobGasUsed": "0x9c40",
      "from": "0xec891a037f932493624184970a283ab87398e0a6",
      "to": "0x1388b7ee387e50b3dc76cffd15aae0db531c78b8",
      "contractAddress": null,
      "daFootprintGasScalar": "0x190",
      "l1BaseFeeScalar": "0x7d0",
      "l1BlobBaseFee": "0x1",
      "l1BlobBaseFeeScalar": "0xdbba0",
      "l1Fee": "0x7a",
      "l1GasPrice": "0xa",
      "l1GasUsed": "0x640"
    },
    {
      "status": "0x1",
      "cumulativeGasUsed": "0x41094",
      "logs": [
        {
          "address": "0x00b036b58a818b1bc34d502d3fe730db729e62ac",
          "topics": [
            "0x1b3d7edb2e9c0b0e7c525b20aaaef0f5940d2ed71663c7d39266ecafac728859",
            "0x0000000000000000000000000000000000000000000000000000000000000000",
            "0x000000000000000000000000fffcbdce1ae3aca35bd94996207d5589271f6888",
            "0x00000000000000000000000011900586d3fc89df8b66436e7f460ac51577dced"
          ],
          "data": "0x000000000000000000000000fffcbdce1ae3aca35bd94996207d5589271f68880000000000000000000000000000000000000000000000056bc75e2d63100000",
          "blockHash": "0x44dfbd8b5c6cddb6194bb32eb5eb5cef160dbdda8c9c132d96ed16d4e10c0779",
          "blockNumber": "0x24781d5",
          "blockTimestamp": "0x69352f21",
          "transactionHash": "0x0f2f9f7a38fbd2ddcfa060a2ff2ffba53a094ed2866900e8cd9bea8e84d3e45a",
          "transactionIndex": "0x4",
          "logIndex": "0x1",
          "removed": false
        },
        {
          "address": "0x00b036b58a818b1bc34d502d3fe730db729e62ac",
          "topics": [
            "0x1b3d7edb2e9c0b0e7c525b20aaaef0f5940d2ed71663c7d39266ecafac728859",
            "0x000000000000000000000000fffcbdce1ae3aca35bd94996207d5589271f6888",
            "0x0000000000000000000000000000000000000000000000000000000000000000",
            "0x0000000000000000000000001388b7ee387e50b3dc76cffd15aae0db531c78b8"
          ],
          "data": "0x000000000000000000000000fffcbdce1ae3aca35bd94996207d5589271f68880000000000000000000000000000000000000000000000056bc75e2d63100000",
          "blockHash": "0x44dfbd8b5c6cddb6194bb32eb5eb5cef160dbdda8c9c132d96ed16d4e10c0779",
          "blockNumber": "0x24781d5",
          "blockTimestamp": "0x69352f21",
          "transactionHash": "0x0f2f9f7a38fbd2ddcfa060a2ff2ffba53a094ed2866900e8cd9bea8e84d3e45a",
          "transactionIndex": "0x4",
          "logIndex": "0x2",
          "removed": false
        },
        {
          "address": "0xfffcbdce1ae3aca35bd94996207d5589271f6888",
          "topics": [
            "0x7ae1fc07b9bee54803f9f0fe130c25b787a7b7cff8159ca04e338454bbd6b61b",
            "0x30963638a1b03acdf598ad6263601a180f325c95068822e9559382b85061479e",
            "0x0000000000000000000000005f00c4dcc1eb251c38936afccf1a0deb9d579e46"
          ],
          "data": "0x0000000000000000000000000000000000000000000000056bc75e2d631000000000000000000000000000000000000000000000000000056bc75e2d631000000000000000000000000000000000000000000000000000000000000000000001",
          "blockHash": "0x44dfbd8b5c6cddb6194bb32eb5eb5cef160dbdda8c9c132d96ed16d4e10c0779",
          "blockNumber": "0x24781d5",
          "blockTimestamp": "0x69352f21",
          "transactionHash": "0x0f2f9f7a38fbd2ddcfa060a2ff2ffba53a094ed2866900e8cd9bea8e84d3e45a",
          "transactionIndex": "0x4",
          "logIndex": "0x3",
          "removed": false
        },
        {
          "address": "0x00b036b58a818b1bc34d502d3fe730db729e62ac",
          "topics": [
            "0x40e9cecb9f5f1f1c5b9c97dec2917b7ee92e57ba5563708daca94dd84ad7112f",
            "0x30963638a1b03acdf598ad6263601a180f325c95068822e9559382b85061479e",
            "0x0000000000000000000000005f00c4dcc1eb251c38936afccf1a0deb9d579e46"
          ],
          "data": "0x000000000000000000000000000000000000000000000000000000000000000000000000000000000000000000000000000000000000000000000000000000000000000000000000000000000000000000000001000000000000000000000000000000000000000000000000000000000000000000000000000000000000000000000000000000000000000000000000000000000000000000000000000000000000000000000000000000000000000000000000000000000000000000000bb8",
          "blockHash": "0x44dfbd8b5c6cddb6194bb32eb5eb5cef160dbdda8c9c132d96ed16d4e10c0779",
          "blockNumber": "0x24781d5",
          "blockTimestamp": "0x69352f21",
          "transactionHash": "0x0f2f9f7a38fbd2ddcfa060a2ff2ffba53a094ed2866900e8cd9bea8e84d3e45a",
          "transactionIndex": "0x4",
          "logIndex": "0x4",
          "removed": false
        },
        {
          "address": "0x11900586d3fc89df8b66436e7f460ac51577dced",
          "topics": [
            "0xddf252ad1be2c89b69c2b068fc378daa952ba7f163c4a11628f55a4df523b3ef",
            "0x000000000000000000000000ec891a037f932493624184970a283ab87398e0a6",
            "0x00000000000000000000000000b036b58a818b1bc34d502d3fe730db729e62ac"
          ],
          "data": "0x0000000000000000000000000000000000000000000000056bc75e2d63100000",
          "blockHash": "0x44dfbd8b5c6cddb6194bb32eb5eb5cef160dbdda8c9c132d96ed16d4e10c0779",
          "blockNumber": "0x24781d5",
          "blockTimestamp": "0x69352f21",
          "transactionHash": "0x0f2f9f7a38fbd2ddcfa060a2ff2ffba53a094ed2866900e8cd9bea8e84d3e45a",
          "transactionIndex": "0x4",
          "logIndex": "0x5",
          "removed": false
        },
        {
          "address": "0x1388b7ee387e50b3dc76cffd15aae0db531c78b8",
          "topics": [
            "0xddf252ad1be2c89b69c2b068fc378daa952ba7f163c4a11628f55a4df523b3ef",
            "0x00000000000000000000000000b036b58a818b1bc34d502d3fe730db729e62ac",
            "0x000000000000000000000000ec891a037f932493624184970a283ab87398e0a6"
          ],
          "data": "0x0000000000000000000000000000000000000000000000056bc75e2d63100000",
          "blockHash": "0x44dfbd8b5c6cddb6194bb32eb5eb5cef160dbdda8c9c132d96ed16d4e10c0779",
          "blockNumber": "0x24781d5",
          "blockTimestamp": "0x69352f21",
          "transactionHash": "0x0f2f9f7a38fbd2ddcfa060a2ff2ffba53a094ed2866900e8cd9bea8e84d3e45a",
          "transactionIndex": "0x4",
          "logIndex": "0x6",
          "removed": false
        }
      ],
      "logsBloom": "0x00000000000000000000000000000000000000080000000118000040000000000000040000000300000000800000800008000000041020020000000000400000000000000000000000000008000004000000080000000020000000000000000000000000020000020000000000004800100000000000000000000010000000080080000200000000000000000008000008000000000000000000000000000000000000000000000002000000000020000000000000000220000000000000000100800002000000000000000000000000000000000000000000000000000020000000000000000000005080800000000000000000000002480000000004000010",
      "type": "0x2",
      "transactionHash": "0x0f2f9f7a38fbd2ddcfa060a2ff2ffba53a094ed2866900e8cd9bea8e84d3e45a",
      "transactionIndex": "0x4",
      "blockHash": "0x44dfbd8b5c6cddb6194bb32eb5eb5cef160dbdda8c9c132d96ed16d4e10c0779",
      "blockNumber": "0x24781d5",
      "gasUsed": "0x1fcb9",
      "effectiveGasPrice": "0x33",
      "blobGasUsed": "0xef10",
      "from": "0xec891a037f932493624184970a283ab87398e0a6",
      "to": "0x5f00c4dcc1eb251c38936afccf1a0deb9d579e46",
      "contractAddress": null,
      "daFootprintGasScalar": "0x190",
      "l1BaseFeeScalar": "0x7d0",
      "l1BlobBaseFee": "0x1",
      "l1BlobBaseFeeScalar": "0xdbba0",
      "l1Fee": "0xbb",
      "l1GasPrice": "0xa",
      "l1GasUsed": "0x99f"
    }
  ],
  "libraries": [],
  "pending": [],
  "returns": {},
  "timestamp": 1765093153150,
  "chain": 1301,
  "commit": "a01bace"
}