{
  "transactions": [
    {
      "hash": "0x6ba48e6e53c98b3a7a1ac3dfb1a275bd590463d98df6927882a7ade74a60e599",
      "transactionType": "CREATE",
      "contractName": "TestToken",
      "contractAddress": "0x70f648c883566493fbaad3d329815eabbde8ab31",
      "function": null,
      "arguments": [
        "Token A",
        "TKA",
        "1000000000000000000000000"
      ],
      "transaction": {
        "from": "0xec891a037f932493624184970a283ab87398e0a6",
        "gas": "0xe1c31",
        "value": "0x0",
        "input": "0x60e0806040523461046157610f0c803803809161001c8285610465565b83398101906060818303126104615780516001600160401b0381116104615782610047918301610488565b60208201519092906001600160401b0381116104615760409161006b918401610488565b91015182516001600160401b038111610392576100885f546104dd565b601f8111610412575b506020601f82116001146103b157819293945f926103a6575b50508160011b915f199060031b1c1916175f555b81516001600160401b038111610392576100d96001546104dd565b601f811161032f575b50602092601f82116001146102ce57928192935f926102c3575b50508160011b915f199060031b1c1916176001555b60126080524660a0526040515f905f54918161012c846104dd565b9182825260208201946001811690815f146102a7575060011461025d575b61015692500382610465565b51902060405160208101917f8b73c3c69bb8fe3d512ecc4cf759cc79239f7b179b0ffacaa9a75d522b39400f835260408201527fc89efdaa54c0f20c7adf612882df0950f5a951637e0307cdcb4c672f298b8bc660608201524660808201523060a082015260a081526101ca60c082610465565b51902060c05260025481810180911161024957600255335f52600360205260405f208181540190556040519081525f7fddf252ad1be2c89b69c2b068fc378daa952ba7f163c4a11628f55a4df523b3ef60203393a36040516109d69081610516823960805181610502015260a05181610829015260c0518161084f0152f35b634e487b7160e01b5f52601160045260245ffd5b505f80805290915f80516020610eec8339815191525b81831061028b5750509060206101569282010161014a565b6020919350806001915483858801015201910190918392610273565b60ff191686525061015692151560051b8201602001905061014a565b015190505f806100fc565b601f1982169360015f52805f20915f5b86811061031757508360019596106102ff575b505050811b01600155610111565b01515f1960f88460031b161c191690555f80806102f1565b919260206001819286850151815501940192016102de565b60015f527fb10e2d527612073b26eecdfd717e6a320cf44b4afac2b0732d9fcbe2b7fa0cf6601f830160051c81019160208410610388575b601f0160051c01905b81811061037d57506100e2565b5f8155600101610370565b9091508190610367565b634e487b7160e01b5f52604160045260245ffd5b015190505f806100aa565b601f198216905f8052805f20915f5b8181106103fa575095836001959697106103e2575b505050811b015f556100be565b01515f1960f88460031b161c191690555f80806103d5565b9192602060018192868b0151815501940192016103c0565b5f80525f80516020610eec833981519152601f830160051c81019160208410610457575b601f0160051c01905b81811061044c5750610091565b5f815560010161043f565b9091508190610436565b5f80fd5b601f909101601f19168101906001600160401b0382119082101761039257604052565b81601f82011215610461578051906001600160401b03821161039257604051926104bc601f8401601f191660200185610465565b8284526020838301011161046157815f9260208093018386015e8301015290565b90600182811c9216801561050b575b60208310146104f757565b634e487b7160e01b5f52602260045260245ffd5b91607f16916104ec56fe60806040526004361015610011575f80fd5b5f3560e01c806306fdde031461069f578063095ea7b31461062657806318160ddd1461060957806323b872dd14610526578063313ce567146104e95780633644e515146104c757806370a082311461048f5780637ecebe001461045757806395d89b411461037d578063a9059cbb146102f5578063d505accf146100f15763dd62ed3e1461009d575f80fd5b346100ed5760403660031901126100ed576100b66107d9565b6100be6107ef565b6001600160a01b039182165f908152600460209081526040808320949093168252928352819020549051908152f35b5f80fd5b346100ed5760e03660031901126100ed5761010a6107d9565b6101126107ef565b6044356064359260843560ff81168091036100ed574285106102b65760805f9160209361013d610826565b9060018060a01b03169687855260058652604085209889549960018b01905560405190878201927f6e71edae12b1b97f4d1f60370fef10105fa2faae0126114a169c64845d6126c984528a604084015260018060a01b03169a8b6060840152898784015260a083015260c082015260c081526101ba60e082610779565b519020604051908682019261190160f01b845260228301526042820152604281526101e6606282610779565b519020906040519182528482015260a435604082015260c435606082015282805260015afa156102ab575f516001600160a01b0316801515806102a2575b1561026c577f8c5be1e5ebec7d5bd14f71427d1e84f3dd0314c0f7b2291e5b200ac8c7c3b925916020915f526004825260405f20855f5282528060405f2055604051908152a3005b60405162461bcd60e51b815260206004820152600e60248201526d24a72b20a624a22fa9a4a3a722a960911b6044820152606490fd5b50828114610224565b6040513d5f823e3d90fd5b60405162461bcd60e51b815260206004820152601760248201527614115493525517d11150511312539157d1561412549151604a1b6044820152606490fd5b346100ed5760403660031901126100ed5761030e6107d9565b60243590335f52600360205260405f20610329838254610805565b905560018060a01b031690815f52600360205260405f208181540190556040519081527fddf252ad1be2c89b69c2b068fc378daa952ba7f163c4a11628f55a4df523b3ef60203392a3602060405160018152f35b346100ed575f3660031901126100ed576040515f60015461039d81610741565b808452906001811690811561043357506001146103d5575b6103d1836103c581850382610779565b604051918291826107af565b0390f35b60015f9081527fb10e2d527612073b26eecdfd717e6a320cf44b4afac2b0732d9fcbe2b7fa0cf6939250905b808210610419575090915081016020016103c56103b5565b919260018160209254838588010152019101909291610401565b60ff191660208086019190915291151560051b840190910191506103c590506103b5565b346100ed5760203660031901126100ed576001600160a01b036104786107d9565b165f526005602052602060405f2054604051908152f35b346100ed5760203660031901126100ed576001600160a01b036104b06107d9565b165f526003602052602060405f2054604051908152f35b346100ed575f3660031901126100ed5760206104e1610826565b604051908152f35b346100ed575f3660031901126100ed57602060405160ff7f0000000000000000000000000000000000000000000000000000000000000000168152f35b346100ed5760603660031901126100ed5761053f6107d9565b6105476107ef565b6001600160a01b039091165f818152600460209081526040808320338452825290912054604435937fddf252ad1be2c89b69c2b068fc378daa952ba7f163c4a11628f55a4df523b3ef929185600182016105e4575b5050835f526003825260405f206105b4868254610805565b90556001600160a01b03165f818152600383526040908190208054870190555194855293a3602060405160018152f35b6105ed91610805565b5f8581526004845260408082203383528552902055858561059c565b346100ed575f3660031901126100ed576020600254604051908152f35b346100ed5760403660031901126100ed5761063f6107d9565b335f8181526004602090815260408083206001600160a01b03909516808452948252918290206024359081905591519182527f8c5be1e5ebec7d5bd14f71427d1e84f3dd0314c0f7b2291e5b200ac8c7c3b92591a3602060405160018152f35b346100ed575f3660031901126100ed576040515f80546106be81610741565b808452906001811690811561043357506001146106e5576103d1836103c581850382610779565b5f8080527f290decd9548b62a8d60345a988386fc84ba6bc95484008f6362f93160ef3e563939250905b808210610727575090915081016020016103c56103b5565b91926001816020925483858801015201910190929161070f565b90600182811c9216801561076f575b602083101461075b57565b634e487b7160e01b5f52602260045260245ffd5b91607f1691610750565b90601f8019910116810190811067ffffffffffffffff82111761079b57604052565b634e487b7160e01b5f52604160045260245ffd5b602060409281835280519182918282860152018484015e5f828201840152601f01601f1916010190565b600435906001600160a01b03821682036100ed57565b602435906001600160a01b03821682036100ed57565b9190820391821161081257565b634e487b7160e01b5f52601160045260245ffd5b467f000000000000000000000000000000000000000000000000000000000000000003610871577f000000000000000000000000000000000000000000000000000000000000000090565b6040515f905f54918161088384610741565b9182825260208201946001811690815f146109845750600114610927575b6108ad92500382610779565b51902060405160208101917f8b73c3c69bb8fe3d512ecc4cf759cc79239f7b179b0ffacaa9a75d522b39400f835260408201527fc89efdaa54c0f20c7adf612882df0950f5a951637e0307cdcb4c672f298b8bc660608201524660808201523060a082015260a0815261092160c082610779565b51902090565b505f80805290917f290decd9548b62a8d60345a988386fc84ba6bc95484008f6362f93160ef3e5635b8183106109685750509060206108ad928201016108a1565b6020919350806001915483858801015201910190918392610950565b60ff19168652506108ad92151560051b820160200190506108a156fea2646970667358221220adfd0096481610da2a87d9447686060adb875dfab4d93d7c057c94e5124d838964736f6c634300081a0033290decd9548b62a8d60345a988386fc84ba6bc95484008f6362f93160ef3e563000000000000000000000000000000000000000000000000000000000000006000000000000000000000000000000000000000000000000000000000000000a000000000000000000000000000000000000000000000d3c21bcecceda10000000000000000000000000000000000000000000000000000000000000000000007546f6b656e2041000000000000000000000000000000000000000000000000000000000000000000000000000000000000000000000000000000000000000003544b410000000000000000000000000000000000000000000000000000000000",
        "nonce": "0x29",
        "chainId": "0x515"
      },
      "additionalContracts": [],
      "isFixedGasLimit": false
    },
    {
      "hash": "0x0624647ef1867fcbb41c1d9c1622e42ef950c93ac9b1cceb3e0faec81f898752",
      "transactionType": "CREATE",
      "contractName": "TestToken",
      "contractAddress": "0x4eccff261b376277c521b25aedc2446239e777df",
      "function": null,
      "arguments": [
        "Token B",
        "TKB",
        "1000000000000000000000000"
      ],
      "transaction": {
        "from": "0xec891a037f932493624184970a283ab87398e0a6",
        "gas": "0xe1c31",
        "value": "0x0",
        "input": "0x60e0806040523461046157610f0c803803809161001c8285610465565b83398101906060818303126104615780516001600160401b0381116104615782610047918301610488565b60208201519092906001600160401b0381116104615760409161006b918401610488565b91015182516001600160401b038111610392576100885f546104dd565b601f8111610412575b506020601f82116001146103b157819293945f926103a6575b50508160011b915f199060031b1c1916175f555b81516001600160401b038111610392576100d96001546104dd565b601f811161032f575b50602092601f82116001146102ce57928192935f926102c3575b50508160011b915f199060031b1c1916176001555b60126080524660a0526040515f905f54918161012c846104dd565b9182825260208201946001811690815f146102a7575060011461025d575b61015692500382610465565b51902060405160208101917f8b73c3c69bb8fe3d512ecc4cf759cc79239f7b179b0ffacaa9a75d522b39400f835260408201527fc89efdaa54c0f20c7adf612882df0950f5a951637e0307cdcb4c672f298b8bc660608201524660808201523060a082015260a081526101ca60c082610465565b51902060c05260025481810180911161024957600255335f52600360205260405f208181540190556040519081525f7fddf252ad1be2c89b69c2b068fc378daa952ba7f163c4a11628f55a4df523b3ef60203393a36040516109d69081610516823960805181610502015260a05181610829015260c0518161084f0152f35b634e487b7160e01b5f52601160045260245ffd5b505f80805290915f80516020610eec8339815191525b81831061028b5750509060206101569282010161014a565b6020919350806001915483858801015201910190918392610273565b60ff191686525061015692151560051b8201602001905061014a565b015190505f806100fc565b601f1982169360015f52805f20915f5b86811061031757508360019596106102ff575b505050811b01600155610111565b01515f1960f88460031b161c191690555f80806102f1565b919260206001819286850151815501940192016102de565b60015f527fb10e2d527612073b26eecdfd717e6a320cf44b4afac2b0732d9fcbe2b7fa0cf6601f830160051c81019160208410610388575b601f0160051c01905b81811061037d57506100e2565b5f8155600101610370565b9091508190610367565b634e487b7160e01b5f52604160045260245ffd5b015190505f806100aa565b601f198216905f8052805f20915f5b8181106103fa575095836001959697106103e2575b505050811b015f556100be565b01515f1960f88460031b161c191690555f80806103d5565b9192602060018192868b0151815501940192016103c0565b5f80525f80516020610eec833981519152601f830160051c81019160208410610457575b601f0160051c01905b81811061044c5750610091565b5f815560010161043f565b9091508190610436565b5f80fd5b601f909101601f19168101906001600160401b0382119082101761039257604052565b81601f82011215610461578051906001600160401b03821161039257604051926104bc601f8401601f191660200185610465565b8284526020838301011161046157815f9260208093018386015e8301015290565b90600182811c9216801561050b575b60208310146104f757565b634e487b7160e01b5f52602260045260245ffd5b91607f16916104ec56fe60806040526004361015610011575f80fd5b5f3560e01c806306fdde031461069f578063095ea7b31461062657806318160ddd1461060957806323b872dd14610526578063313ce567146104e95780633644e515146104c757806370a082311461048f5780637ecebe001461045757806395d89b411461037d578063a9059cbb146102f5578063d505accf146100f15763dd62ed3e1461009d575f80fd5b346100ed5760403660031901126100ed576100b66107d9565b6100be6107ef565b6001600160a01b039182165f908152600460209081526040808320949093168252928352819020549051908152f35b5f80fd5b346100ed5760e03660031901126100ed5761010a6107d9565b6101126107ef565b6044356064359260843560ff81168091036100ed574285106102b65760805f9160209361013d610826565b9060018060a01b03169687855260058652604085209889549960018b01905560405190878201927f6e71edae12b1b97f4d1f60370fef10105fa2faae0126114a169c64845d6126c984528a604084015260018060a01b03169a8b6060840152898784015260a083015260c082015260c081526101ba60e082610779565b519020604051908682019261190160f01b845260228301526042820152604281526101e6606282610779565b519020906040519182528482015260a435604082015260c435606082015282805260015afa156102ab575f516001600160a01b0316801515806102a2575b1561026c577f8c5be1e5ebec7d5bd14f71427d1e84f3dd0314c0f7b2291e5b200ac8c7c3b925916020915f526004825260405f20855f5282528060405f2055604051908152a3005b60405162461bcd60e51b815260206004820152600e60248201526d24a72b20a624a22fa9a4a3a722a960911b6044820152606490fd5b50828114610224565b6040513d5f823e3d90fd5b60405162461bcd60e51b815260206004820152601760248201527614115493525517d11150511312539157d1561412549151604a1b6044820152606490fd5b346100ed5760403660031901126100ed5761030e6107d9565b60243590335f52600360205260405f20610329838254610805565b905560018060a01b031690815f52600360205260405f208181540190556040519081527fddf252ad1be2c89b69c2b068fc378daa952ba7f163c4a11628f55a4df523b3ef60203392a3602060405160018152f35b346100ed575f3660031901126100ed576040515f60015461039d81610741565b808452906001811690811561043357506001146103d5575b6103d1836103c581850382610779565b604051918291826107af565b0390f35b60015f9081527fb10e2d527612073b26eecdfd717e6a320cf44b4afac2b0732d9fcbe2b7fa0cf6939250905b808210610419575090915081016020016103c56103b5565b919260018160209254838588010152019101909291610401565b60ff191660208086019190915291151560051b840190910191506103c590506103b5565b346100ed5760203660031901126100ed576001600160a01b036104786107d9565b165f526005602052602060405f2054604051908152f35b346100ed5760203660031901126100ed576001600160a01b036104b06107d9565b165f526003602052602060405f2054604051908152f35b346100ed575f3660031901126100ed5760206104e1610826565b604051908152f35b346100ed575f3660031901126100ed57602060405160ff7f0000000000000000000000000000000000000000000000000000000000000000168152f35b346100ed5760603660031901126100ed5761053f6107d9565b6105476107ef565b6001600160a01b039091165f818152600460209081526040808320338452825290912054604435937fddf252ad1be2c89b69c2b068fc378daa952ba7f163c4a11628f55a4df523b3ef929185600182016105e4575b5050835f526003825260405f206105b4868254610805565b90556001600160a01b03165f818152600383526040908190208054870190555194855293a3602060405160018152f35b6105ed91610805565b5f8581526004845260408082203383528552902055858561059c565b346100ed575f3660031901126100ed576020600254604051908152f35b346100ed5760403660031901126100ed5761063f6107d9565b335f8181526004602090815260408083206001600160a01b03909516808452948252918290206024359081905591519182527f8c5be1e5ebec7d5bd14f71427d1e84f3dd0314c0f7b2291e5b200ac8c7c3b92591a3602060405160018152f35b346100ed575f3660031901126100ed576040515f80546106be81610741565b808452906001811690811561043357506001146106e5576103d1836103c581850382610779565b5f8080527f290decd9548b62a8d60345a988386fc84ba6bc95484008f6362f93160ef3e563939250905b808210610727575090915081016020016103c56103b5565b91926001816020925483858801015201910190929161070f565b90600182811c9216801561076f575b602083101461075b57565b634e487b7160e01b5f52602260045260245ffd5b91607f1691610750565b90601f8019910116810190811067ffffffffffffffff82111761079b57604052565b634e487b7160e01b5f52604160045260245ffd5b602060409281835280519182918282860152018484015e5f828201840152601f01601f1916010190565b600435906001600160a01b03821682036100ed57565b602435906001600160a01b03821682036100ed57565b9190820391821161081257565b634e487b7160e01b5f52601160045260245ffd5b467f000000000000000000000000000000000000000000000000000000000000000003610871577f000000000000000000000000000000000000000000000000000000000000000090565b6040515f905f54918161088384610741565b9182825260208201946001811690815f146109845750600114610927575b6108ad92500382610779565b51902060405160208101917f8b73c3c69bb8fe3d512ecc4cf759cc79239f7b179b0ffacaa9a75d522b39400f835260408201527fc89efdaa54c0f20c7adf612882df0950f5a951637e0307cdcb4c672f298b8bc660608201524660808201523060a082015260a0815261092160c082610779565b51902090565b505f80805290917f290decd9548b62a8d60345a988386fc84ba6bc95484008f6362f93160ef3e5635b8183106109685750509060206108ad928201016108a1565b6020919350806001915483858801015201910190918392610950565b60ff19168652506108ad92151560051b820160200190506108a156fea2646970667358221220adfd0096481610da2a87d9447686060adb875dfab4d93d7c057c94e5124d838964736f6c634300081a0033290decd9548b62a8d60345a988386fc84ba6bc95484008f6362f93160ef3e563000000000000000000000000000000000000000000000000000000000000006000000000000000000000000000000000000000000000000000000000000000a000000000000000000000000000000000000000000000d3c21bcecceda10000000000000000000000000000000000000000000000000000000000000000000007546f6b656e2042000000000000000000000000000000000000000000000000000000000000000000000000000000000000000000000000000000000000000003544b420000000000000000000000000000000000000000000000000000000000",
        "nonce": "0x2a",
        "chainId": "0x515"
      },
      "additionalContracts": [],
      "isFixedGasLimit": false
    },
    {
      "hash": "0x187e380bc35641179b3ff5c8e547950ce6a3823f046e305dcdcc1cf9c2deebab",
      "transactionType": "CREATE",
      "contractName": "SimpleSwapRouter",
      "contractAddress": "0x0ae5f4afe70f0a9351d8c0fd017183722437eedf",
      "function": null,
      "arguments": [
        "0x00B036B58a818B1BC34d502D3fE730Db729e62AC"
      ],
      "transaction": {
        "from": "0xec891a037f932493624184970a283ab87398e0a6",
        "gas": "0xc5289",
        "value": "0x0",
        "input": "0x60a034607257601f610ac938819003918201601f19168301916001600160401b03831184841017607657808492602094604052833981010312607257516001600160a01b0381168103607257608052604051610a3e908161008b8239608051818181604f0152818160d001526105ae0152f35b5f80fd5b634e487b7160e01b5f52604160045260245ffdfe60806040526004361015610011575f80fd5b5f3560e01c80631e2817de1461044057806391dd7346146100825763dc4c90d31461003a575f80fd5b3461007e575f36600319011261007e576040517f00000000000000000000000000000000000000000000000000000000000000006001600160a01b03168152602090f35b5f80fd5b3461007e57602036600319011261007e576004356001600160401b03811161007e573660238201121561007e5780600401356001600160401b03811161007e57810136602482011161007e577f00000000000000000000000000000000000000000000000000000000000000006001600160a01b038116919033839003610407576101208483031261007e576040519061011b826106a3565b610127602486016106fa565b825260a0601f19868503011261007e5760405192610144846106be565b610150604487016106fa565b845261015e606487016106fa565b6020850152608486013562ffffff8116810361007e57604085015260a48601358060020b810361007e57606085015260c48601356001600160a01b038116810361007e5760808501526020830193845260609086900360bf19011261007e57604051946101ca866106a3565b60e481013590811515820361007e57908652610104810135602087015261012401356001600160a01b038116810361007e576040860152602061023461014460408501968888525f87519161025b6040519b8c968795633cf3645360e21b87526004870190610738565b8051151560a4860152602081015160c4860152604001516001600160a01b031660e4850152565b610120610104840152816101248401525af19384156103fc575f946103c6575b51516102ca955015610339578360801d5f81600f0b126102ff575b505f84600f0b136102ce575b5050505b604051906020820152602081526102be6040826106d9565b6040519182918261070e565b0390f35b91516020015190516102f7926001600160801b038516926001600160a01b0392831692166109a2565b8280806102a2565b8351518351610333926001600160a01b03928316929091169084906001600160801b039061032c9061078a565b16926107cd565b85610296565b83600f0b5f8112610390575b508360801d905f82600f0b1361035f575b505050506102a6565b9251519151610387936001600160801b03909216926001600160a01b039182169291166109a2565b82808080610356565b83516020015183516103c0926001600160a01b03928316929091169084906001600160801b039061032c9061078a565b85610345565b93506020853d6020116103f4575b816103e1602093836106d9565b8101031261007e576102ca94519361027b565b3d91506103d4565b6040513d5f823e3d90fd5b60405162461bcd60e51b815260206004820152601160248201527027b7363c903837b7b61036b0b730b3b2b960791b6044820152606490fd5b3461007e573660031901610100811261007e5760a01361007e57604051610466816106be565b6004356001600160a01b038116810361007e5781526024356001600160a01b038116810361007e57602082015260443562ffffff8116810361007e5760408201526064358060020b810361007e5760608201526084356001600160a01b038116810361007e57608082015260603660a319011261007e576040516104e9816106a3565b60a435801515810361007e57815260c435602082015260e435916001600160a01b038316830361007e5761057e826105a99460405f9501526040805161052e816106a3565b338152602081019485520190815261055460405193336020860152516040850190610738565b518051151560e08401526020810151610100840152604001516001600160a01b0316610120830152565b610120815261058f610140826106d9565b604051809381926348c8949160e01b83526004830161070e565b0381837f00000000000000000000000000000000000000000000000000000000000000006001600160a01b03165af19081156103fc575f91610607575b506020815191818082019384920101031261007e5760209051604051908152f35b90503d805f833e61061881836106d9565b81019060208183031261007e578051906001600160401b03821161007e570181601f8201121561007e578051906001600160401b03821161068f576040519261066b601f8401601f1916602001856106d9565b8284526020838301011161007e57815f9260208093018386015e83010152816105e6565b634e487b7160e01b5f52604160045260245ffd5b606081019081106001600160401b0382111761068f57604052565b60a081019081106001600160401b0382111761068f57604052565b90601f801991011681019081106001600160401b0382111761068f57604052565b35906001600160a01b038216820361007e57565b602060409281835280519182918282860152018484015e5f828201840152601f01601f1916010190565b80516001600160a01b03908116835260208083015182169084015260408083015162ffffff169084015260608083015160020b9084015260809182015116910152565b9081602091031261007e575190565b600f0b60016001607f1b031981146107a1575f0390565b634e487b7160e01b5f52601160045260245ffd5b9081602091031261007e5751801515810361007e5790565b9192916001600160a01b03168061083b5750604051630476982d60e21b81529250602091839160049183916001600160a01b03165af180156103fc576108105750565b6108319060203d602011610834575b61082981836106d9565b81019061077b565b50565b503d61081f565b6001600160a01b0390911691823b1561007e57604051632961046560e21b815260048101839052935a945f816024818389819bf180156103fc5761098d575b506001600160a01b031684308214610932576020929160649160405195869485936323b872dd60e01b8552600485015288602485015260448401525af18015610927579160209184936108fa575b505b600460405180958193630476982d60e21b83525af19081156108ee57506108105750565b604051903d90823e3d90fd5b61091990833d8511610920575b61091181836106d9565b8101906107b5565b505f6108c8565b503d610907565b6040513d85823e3d90fd5b9290506044602092604051948593849263a9059cbb60e01b845288600485015260248401525af1801561092757916020918493610970575b506108ca565b61098690833d85116109205761091181836106d9565b505f61096a565b61099a9195505f906106d9565b5f935f61087a565b91906001600160a01b0316803b1561007e57604051630b0d9c0960e01b81526001600160a01b03938416600482015291909216602482015260448101929092525f908290606490829084905af180156103fc576109fc5750565b5f610a06916106d9565b56fea26469706673582212201e1290f036b6cd38882b7cd188788f83e72fe21e26c555444e6791633bec81c264736f6c634300081a003300000000000000000000000000b036b58a818b1bc34d502d3fe730db729e62ac",
        "nonce": "0x2b",
        "chainId": "0x515"
      },
      "additionalContracts": [],
      "isFixedGasLimit": false
    },
    {
      "hash": "0xb4cefc1debb0e67fe44583864cb08bc345b30ad47fede3d581907c74947bc61d",
      "transactionType": "CREATE2",
      "contractName": "ConstantSumHook",
      "contractAddress": "0x6145f3cba8c95a572548e3cf47c8cec729cc2888",
      "function": null,
      "arguments": [
        "0x00B036B58a818B1BC34d502D3fE730Db729e62AC"
      ],
      "transaction": {
        "from": "0xec891a037f932493624184970a283ab87398e0a6",
        "to": "0x4e59b44847b379578588920ca78fbf26c0b4956c",
        "gas": "0x26720a",
        "value": "0x0",
        "input": "0x00000000000000000000000000000000000000000000000000000000000013ee60a0604052346102cb57604051601f61219338819003918201601f19168301916001600160401b038311848410176102cf578084926020946040528339810103126102cb57516001600160a01b03811681036102cb576080525f6101a06100646102e3565b8281528260208201528260408201528260608201528260808201528260a08201528260c08201528260e0820152826101008201528261012082015282610140820152826101608201528261018082015201525f6101a06100c26102e3565b60018152826020820152600160408201528260608201528260808201528260a0820152600160c08201528260e08201528261010082015282610120820152600161014082015282610160820152826101808201520152612000301615156001148015906102be575b80156102ad575b80156102a0575b8015610293575b8015610286575b8015610276575b801561026a575b801561025e575b8015610252575b8015610242575b8015610236575b801561022a575b801561021e575b61020b57611b585f55610bb8600155600280546001600160a01b03191633179055604051611e8f908161030482396080518181816101f701528181610279015281816102ef015281816104de015281816106bf015281816107940152818161086b01528181610c7c01528181610d3e01528181611210015281816112d80152818161132c01526114360152f35b630732d7b560e51b5f523060045260245ffd5b5060013016151561017e565b50600230161515610177565b50600430161515610170565b5060083016151560011415610169565b50601030161515610162565b5060203016151561015b565b50604030161515610154565b506080301615156001141561014d565b5061010030161515610146565b506102003016151561013f565b5061040030161515610138565b506108003016151560011415610131565b506110003016151561012a565b5f80fd5b634e487b7160e01b5f52604160045260245ffd5b604051906101c082016001600160401b038111838210176102cf5760405256fe6080806040526004361015610012575f80fd5b5f3560e01c908163126082cf146114d05750806312f0f3011461136d57806321d0ee7014611319578063259982e5146112c55780632757028514611133578063481bf4ad1461111657806348d8b0ba146110d0578063525407f1146110b4578063575e24b414610ce9578063585b659514610cb95780636c2bbe7e146106ac5780636fe7e6eb14610c41578063748747e614610bce5780638da5cb5b14610ba657806391dd7346146108395780639e436f57146107025780639f063efc146106ac578063ac5555aa1461067d578063aced166114610655578063ae39e3d11461051b578063b47b2fb114610487578063b6a8b0fa146101e4578063c4e833ce1461031e578063dc4c90d3146102da578063dc98354e14610248578063e1b4af69146101e4578063eb6ce098146101ab5763f2fde38b14610150575f80fd5b346101a75760203660031901126101a757610169611506565b600254906001600160a01b0382163303610199576001600160a01b03166001600160a01b03199190911617600255005b6282b42960e81b5f5260045ffd5b5f80fd5b346101a75760403660031901126101a7576024356004355f52600460205260405f209060028110156101a7576020910154604051908152f35b346101a7576101f236611679565b5050507f00000000000000000000000000000000000000000000000000000000000000006001600160a01b03163303925061023991505057630a85dc2960e01b5f5260045ffd5b63570c108560e11b5f5260045ffd5b346101a75760e03660031901126101a757610261611506565b5060a03660231901126101a757610276611629565b507f00000000000000000000000000000000000000000000000000000000000000006001600160a01b031633036102395760a06102b2366117de565b205f52600560205260405f20600160ff198254161790556020604051636e4c1aa760e11b8152f35b346101a7575f3660031901126101a7576040517f00000000000000000000000000000000000000000000000000000000000000006001600160a01b03168152602090f35b346101a7575f3660031901126101a7575f6101a060405161033e816116ff565b8281528260208201528260408201528260608201528260808201528260a08201528260c08201528260e0820152826101008201528261012082015282610140820152826101608201528261018082015201526101c060206040516103a1816116ff565b60018152818101905f82526040810160018152606082015f8152608083015f815260a084015f815260c085016001815260e08601905f82526101008701925f84526101208801945f8652610140890196600188526101608a01985f8a526101a06101808c019b5f8d52019b5f8d526040519d8e916001835251151591015251151560408d015251151560608c015251151560808b015251151560a08a015251151560c089015251151560e08801525115156101008701525115156101208601525115156101408501525115156101608401525115156101808301525115156101a0820152f35b346101a7576101603660031901126101a7576104a1611506565b5060a03660231901126101a75760603660c31901126101a757610144356001600160401b0381116101a7576104da903690600401611530565b50507f00000000000000000000000000000000000000000000000000000000000000006001600160a01b0316330361023957630a85dc2960e01b5f5260045ffd5b346101a75760403660031901126101a75760025460243590600435906001600160a01b0316330361019957611388811180610649575b15610609576101f4821015806105fe575b156105bf576127106105748383611a04565b03610580575f55600155005b60405162461bcd60e51b8152602060048201526017602482015276526174696f73206d7573742073756d20746f203130302560481b6044820152606490fd5b60405162461bcd60e51b81526020600482015260176024820152764d696e20726174696f206d75737420626520352d35302560481b6044820152606490fd5b506113888210610562565b60405162461bcd60e51b81526020600482015260186024820152774d617820726174696f206d7573742062652035302d39352560401b6044820152606490fd5b5061251c811115610551565b346101a7575f3660031901126101a7576003546040516001600160a01b039091168152602090f35b346101a75760203660031901126101a7576004355f526005602052602060ff60405f2054166040519015158152f35b346101a7576106ba366115c0565b5050507f00000000000000000000000000000000000000000000000000000000000000006001600160a01b0316330393506102399250505057630a85dc2960e01b5f5260045ffd5b346101a75761078f610713366114ea565b91905f610767610775604051610728816116d0565b8681526107353686611865565b60208201523360408201528360608201528360808201528360a08201528360c0820152604051928391602083016118f1565b03601f198101835282611736565b604051809481926348c8949160e01b83526004830161164f565b0381837f00000000000000000000000000000000000000000000000000000000000000006001600160a01b03165af190811561082e5760a0926107d99261080e575b503690611865565b206040519180835260208301527f47b0d68dd7ea64624970139aa6c676e4e099d12cee4af2dfe393f2353fea86b160403393a3005b610829903d805f833e6108218183611736565b810190611993565b6107d1565b6040513d5f823e3d90fd5b346101a75760203660031901126101a7576004356001600160401b0381116101a757610869903690600401611530565b7f000000000000000000000000000000000000000000000000000000000000000091906001600160a01b038316330361023957810190610160818303126101a7576108c7604051926108ba846116d0565b8235845260208301611865565b9060208301908282526108dc60c0820161151c565b9460408501908682526108f160e08401611aef565b9360608701948086526109076101008601611aef565b9860808901978a895260a08a0192610120880135845261014060c08c01980135885260a082209b15155f14610a9857505050805180610a3e575b5050835192836109d9575b50505050505b511590816109cf575b50610990575b61098c604051610972604082611736565b60018152601160f91b60208201526040519182918261164f565b0390f35b8051825f5260046020526109a960405f20918254611a04565b905551905f5260046020526109c6600160405f2001918254611a04565b90558080610961565b905051158361095b565b8151602001519051610a17946109ff9290916001600160a01b0390811691869116611bb0565b516020015183519130916001600160a01b0316611d85565b51845f526004602052610a32600160405f2001918254611a04565b9055848080808061094c565b8251518551610a5c92916001600160a01b0391821691879116611bb0565b8151518151610a7791309086906001600160a01b0316611d85565b51885f526004602052610a8f60405f20918254611a04565b90558880610941565b919394959650915015155f14610b2e5750508051518651610b2994939291610acd9190309085906001600160a01b0316611b49565b8051602001518751610aeb91309085906001600160a01b0316611b49565b80515183518851610b0c9290916001600160a01b0390811691869116611dd3565b516020015191518651926001600160a01b03918216929116611dd3565b610952565b518751610b2995610b73939092610b5492916001600160a01b0390811691889116611bb0565b82516020015190518851916001600160a01b0391821691869116611bb0565b8051518651610b8e91309085906001600160a01b0316611d85565b516020015185519130916001600160a01b0316611d85565b346101a7575f3660031901126101a7576002546040516001600160a01b039091168152602090f35b346101a75760203660031901126101a757610be7611506565b6002546001600160a01b0316330361019957600380546001600160a01b039283166001600160a01b0319821681179092559091167f53d3703fe259def57584466f32d1b94c30278008c683c21b04501c4966f13a695f80a3005b346101a7576101003660031901126101a757610c5b611506565b5060a03660231901126101a757610c70611629565b50610c7961163f565b507f00000000000000000000000000000000000000000000000000000000000000006001600160a01b0316330361023957630a85dc2960e01b5f5260045ffd5b346101a75760a03660031901126101a7576060610cd4611a2f565b90604051921515835260208301526040820152f35b346101a7576101403660031901126101a757610d03611506565b60a03660231901126101a75760603660c31901126101a757610124356001600160401b0381116101a757610d3b903690600401611530565b507f000000000000000000000000000000000000000000000000000000000000000090506001600160a01b03811633036102395760a0610d7a366117de565b2060e435905f821291825f146110a357600160ff1b8114611049575f036001600160801b03169182905b610dac611afc565b5f8481526004602052604090208054600190910154911561106c576001600160801b0384169081831061105d57610e0191610dfb91610df5906001600160801b038a1690611a04565b936118e4565b82611a04565b80610ff8575b50506060957f7ae1fc07b9bee54803f9f0fe130c25b787a7b7cff8159ca04e338454bbd6b61b9287925f14610fcf57610e4b6001600160801b038216600f0b611b0b565b6001600160801b03166001600160801b0319608088901b1617965b610e6e611afc565b15610f4657610ee790610ece610e82611e2d565b6001600160801b038a1690610e9c90829030908690611d85565b610ebc610ea7611e43565b6001600160801b038716948591309190611b49565b885f52600460205260405f2054611a04565b5f888152600460205260409020908155600101546118e4565b855f526004602052600160405f2001555b610f00611afc565b604080516001600160801b0398891681529790921660208801521515908601526001600160a01b031693a3604051906315d7892d60e21b825260208201525f6040820152f35b610fba90610fa1610f55611e2d565b6001600160801b03851690610f6f90829030908690611b49565b610f8f610f7a611e43565b6001600160801b038c16948591309190611d85565b885f52600460205260405f20546118e4565b5f88815260046020526040902090815560010154611a04565b855f526004602052600160405f200155610ef8565b610fe46001600160801b038216600f0b611b0b565b60801b6001600160801b0387161796610e66565b61271082029180830461271014901517156110495761101691611a11565b5f54811190811561103d575b5061102e578680610e07565b6346722f1360e11b5f5260045ffd5b90506001541187611022565b634e487b7160e01b5f52601160045260245ffd5b63bb55fd2760e01b5f5260045ffd5b6001600160801b03841680821061105d5761108d61109e91610e01936118e4565b926001600160801b03881690611a04565b610dfb565b6001600160801b0316918290610da4565b346101a7575f3660031901126101a75760205f54604051908152f35b346101a75760a03660031901126101a757604060a06110ee36611757565b20805f526004602052815f2054905f5260046020526001825f20015482519182526020820152f35b346101a7575f3660031901126101a7576020600154604051908152f35b346101a75760a03660031901126101a7576003546001600160a01b0316331415806112b0575b6101995760a061116836611757565b205f8181526004602052604090208054600190910154908181146112a157818111156112915790611198916118e4565b905f915b61120b5f6107676111f16040516111b2816116d0565b8381526111be36611757565b6020820152336040820152836060820152600160808201528760a08201528560c0820152604051928391602083016118f1565b604051809381926348c8949160e01b83526004830161164f565b0381837f00000000000000000000000000000000000000000000000000000000000000006001600160a01b03165af1801561082e57611279575b5060405192835260208301527f8f5de74131afd7a06a3b5481c0417ac6cb2691eedcfe257808b528a3d91046d360403393a3005b61128c903d805f833e6108218183611736565b611245565b61129a916118e4565b905f61119c565b631f456cc560e01b5f5260045ffd5b506002546001600160a01b0316331415611159565b346101a7576112d33661155d565b5050507f00000000000000000000000000000000000000000000000000000000000000006001600160a01b03163303915061023990505763033d48c960e31b5f5260045ffd5b346101a7576113273661155d565b5050507f00000000000000000000000000000000000000000000000000000000000000006001600160a01b031633039150610239905057630a85dc2960e01b5f5260045ffd5b346101a75761137b366114ea565b9060a06113883683611865565b2090815f5260046020528260405f20541080156114b8575b61105d575f6107676111f1611431938584526004602052604084206113c68882546118e4565b90558584526004602052600160408520016113e28882546118e4565b90556113fe604051916113f4836116d0565b8883523690611865565b6020820152336040820152600160608201528360808201528360a08201528360c0820152604051928391602083016118f1565b0381837f00000000000000000000000000000000000000000000000000000000000000006001600160a01b03165af1801561082e576114a0575b506040519180835260208301527f317e53ec6bc434475c6a7c12af460342fa47661758139f35045090a232213a0c60403393a3005b6114b3903d805f833e6108218183611736565b61146b565b50815f52600460205282600160405f200154106113a0565b346101a7575f3660031901126101a7578061271060209252f35b6003190160c081126101a75760a0136101a75760049060a43590565b600435906001600160a01b03821682036101a757565b35906001600160a01b03821682036101a757565b9181601f840112156101a7578235916001600160401b0383116101a757602083818601950101116101a757565b906101606003198301126101a7576004356001600160a01b03811681036101a7579160a06023198201126101a757602491608060c3198301126101a75760c49161014435906001600160401b0382116101a7576115bc91600401611530565b9091565b906101a06003198301126101a7576004356001600160a01b03811681036101a7579160a06023198201126101a757602491608060c3198301126101a75760c4916101443591610164359161018435906001600160401b0382116101a7576115bc91600401611530565b60c435906001600160a01b03821682036101a757565b60e435908160020b82036101a757565b602060409281835280519182918282860152018484015e5f828201840152601f01601f1916010190565b6101206003198201126101a7576004356001600160a01b03811681036101a7579160a06023198301126101a75760249160c4359160e4359161010435906001600160401b0382116101a7576115bc91600401611530565b60e081019081106001600160401b038211176116eb57604052565b634e487b7160e01b5f52604160045260245ffd5b6101c081019081106001600160401b038211176116eb57604052565b60a081019081106001600160401b038211176116eb57604052565b90601f801991011681019081106001600160401b038211176116eb57604052565b60a09060031901126101a757604051906117708261171b565b816004356001600160a01b03811681036101a75781526024356001600160a01b03811681036101a757602082015260443562ffffff811681036101a75760408201526064358060020b81036101a7576060820152608435906001600160a01b03821682036101a75760800152565b60a09060231901126101a757604051906117f78261171b565b816024356001600160a01b03811681036101a75781526044356001600160a01b03811681036101a757602082015260643562ffffff811681036101a75760408201526084358060020b81036101a757606082015260a435906001600160a01b03821682036101a75760800152565b91908260a09103126101a75760405161187d8161171b565b80926118888161151c565b82526118966020820161151c565b6020830152604081013562ffffff811681036101a75760408301526060810135908160020b82036101a757606083019190915260800135906001600160a01b03821682036101a75760800152565b9190820391821161104957565b91909161014060c061016083019480518452602081015160018060a01b03815116602086015260018060a01b03602082015116604086015262ffffff6040820151166060860152606081015160020b6080860152608060018060a01b039101511660a085015260018060a01b03604082015116828501526060810151151560e08501526080810151151561010085015260a08101516101208501520151910152565b6020818303126101a7578051906001600160401b0382116101a7570181601f820112156101a7578051906001600160401b0382116116eb57604051926119e3601f8401601f191660200185611736565b828452602083830101116101a757815f9260208093018386015e8301015290565b9190820180921161104957565b8115611a1b570490565b634e487b7160e01b5f52601260045260245ffd5b60a0611a3c366004611865565b205f90815260046020526040902080546001909101549080158080611ae7575b611adc57611a6a8383611a04565b61271083029183830461271014171561104957611a8691611a11565b6113248110159081611acf575b50611ac55781811115611ab45790611aaa916118e4565b5f915b6001929190565b611abd916118e4565b905f90611aad565b50505f905f905f90565b6113ec915011155f611a93565b5050505f905f905f90565b508215611a5c565b359081151582036101a757565b60c43580151581036101a75790565b600f0b60016001607f1b03198114611049575f0390565b908160209103126101a7575180151581036101a75790565b908160209103126101a7575190565b9192906001600160a01b0316803b156101a757604051637a94c56560e11b81526001600160a01b03948516600482015293909216602484015260448301525f908290818381606481015b03925af1801561082e57611ba45750565b5f611bae91611736565b565b9192916001600160a01b031680611c1e5750604051630476982d60e21b81529250602091839160049183916001600160a01b03165af1801561082e57611bf35750565b611c149060203d602011611c17575b611c0c8183611736565b810190611b3a565b50565b503d611c02565b6001600160a01b0390911691823b156101a757604051632961046560e21b815260048101839052935a945f816024818389819bf1801561082e57611d70575b506001600160a01b031684308214611d15576020929160649160405195869485936323b872dd60e01b8552600485015288602485015260448401525af18015611d0a57916020918493611cdd575b505b600460405180958193630476982d60e21b83525af1908115611cd15750611bf35750565b604051903d90823e3d90fd5b611cfc90833d8511611d03575b611cf48183611736565b810190611b22565b505f611cab565b503d611cea565b6040513d85823e3d90fd5b9290506044602092604051948593849263a9059cbb60e01b845288600485015260248401525af18015611d0a57916020918493611d53575b50611cad565b611d6990833d8511611d0357611cf48183611736565b505f611d4d565b611d7d9195505f90611736565b5f935f611c5d565b9192906001600160a01b0316803b156101a757604051630ab714fb60e11b81526001600160a01b03948516600482015293909216602484015260448301525f90829081838160648101611b93565b91906001600160a01b0316803b156101a757604051630b0d9c0960e01b81526001600160a01b03938416600482015291909216602482015260448101929092525f908290606490829084905af1801561082e57611ba45750565b6024356001600160a01b03811681036101a75790565b6044356001600160a01b03811681036101a7579056fea264697066735822122084b09455ba32f035c74680e97b3a348b0202a9aec80394ae6ac0cb89cb6bf05a64736f6c634300081a003300000000000000000000000000b036b58a818b1bc34d502d3fe730db729e62ac",
        "nonce": "0x2c",
        "chainId": "0x515"
      },
      "additionalContracts": [],
      "isFixedGasLimit": false
    },
    {
      "hash": "0x283ad6c6540dad0fe3f662e68627dc6637f9d3e2d24556e94041262225707cc0",
      "transactionType": "CALL",
      "contractName": "PoolManager",
      "contractAddress": "0x00b036b58a818b1bc34d502d3fe730db729e62ac",
      "function": "initialize((address,address,uint24,int24,address),uint160)",
      "arguments": [
        "(0x4eccff261b376277C521b25aEdC2446239e777Df, 0x70F648C883566493fbaaD3D329815eABbDE8AB31, 3000, 60, 0x6145f3Cba8c95A572548e3Cf47C8CEc729CC2888)",
        "79228162514264337593543950336"
      ],
      "transaction": {
        "from": "0xec891a037f932493624184970a283ab87398e0a6",
        "to": "0x00b036b58a818b1bc34d502d3fe730db729e62ac",
        "gas": "0x1a808",
        "value": "0x0",
        "input": "0x6276cbbe0000000000000000000000004eccff261b376277c521b25aedc2446239e777df00000000000000000000000070f648c883566493fbaad3d329815eabbde8ab310000000000000000000000000000000000000000000000000000000000000bb8000000000000000000000000000000000000000000000000000000000000003c0000000000000000000000006145f3cba8c95a572548e3cf47c8cec729cc28880000000000000000000000000000000000000001000000000000000000000000",
        "nonce": "0x2d",
        "chainId": "0x515"
      },
      "additionalContracts": [],
      "isFixedGasLimit": false
    },
    {
      "hash": "0x29a51c46e4d4dc0ae007b4c7334031a8d0385e92a593a72e81c6d9bdc3b576e3",
      "transactionType": "CALL",
      "contractName": "TestToken",
      "contractAddress": "0x4eccff261b376277c521b25aedc2446239e777df",
      "function": "approve(address,uint256)",
      "arguments": [
        "0x6145f3Cba8c95A572548e3Cf47C8CEc729CC2888",
        "115792089237316195423570985008687907853269984665640564039457584007913129639935"
      ],
      "transaction": {
        "from": "0xec891a037f932493624184970a283ab87398e0a6",
        "to": "0x4eccff261b376277c521b25aedc2446239e777df",
        "gas": "0x10837",
        "value": "0x0",
        "input": "0x095ea7b30000000000000000000000006145f3cba8c95a572548e3cf47c8cec729cc2888ffffffffffffffffffffffffffffffffffffffffffffffffffffffffffffffff",
        "nonce": "0x2e",
        "chainId": "0x515"
      },
      "additionalContracts": [],
      "isFixedGasLimit": false
    },
    {
      "hash": "0x58bc1809eb627714606d100dd7c82dc8812233522e691417e0b655442745de8a",
      "transactionType": "CALL",
      "contractName": "TestToken",
      "contractAddress": "0x70f648c883566493fbaad3d329815eabbde8ab31",
      "function": "approve(address,uint256)",
      "arguments": [
        "0x6145f3Cba8c95A572548e3Cf47C8CEc729CC2888",
        "115792089237316195423570985008687907853269984665640564039457584007913129639935"
      ],
      "transaction": {
        "from": "0xec891a037f932493624184970a283ab87398e0a6",
        "to": "0x70f648c883566493fbaad3d329815eabbde8ab31",
        "gas": "0x10837",
        "value": "0x0",
        "input": "0x095ea7b30000000000000000000000006145f3cba8c95a572548e3cf47c8cec729cc2888ffffffffffffffffffffffffffffffffffffffffffffffffffffffffffffffff",
        "nonce": "0x2f",
        "chainId": "0x515"
      },
      "additionalContracts": [],
      "isFixedGasLimit": false
    },
    {
      "hash": "0x30466f0aa1cf7d2c6cbbff50c00b8fb138305481540635ac3c17f02fc94377c2",
      "transactionType": "CALL",
      "contractName": "ConstantSumHook",
      "contractAddress": "0x6145f3cba8c95a572548e3cf47c8cec729cc2888",
      "function": "addLiquidity((address,address,uint24,int24,address),uint256)",
      "arguments": [
        "(0x4eccff261b376277C521b25aEdC2446239e777Df, 0x70F648C883566493fbaaD3D329815eABbDE8AB31, 3000, 60, 0x6145f3Cba8c95A572548e3Cf47C8CEc729CC2888)",
        "10000000000000000000000"
      ],
      "transaction": {
        "from": "0xec891a037f932493624184970a283ab87398e0a6",
        "to": "0x6145f3cba8c95a572548e3cf47c8cec729cc2888",
        "gas": "0x47e30",
        "value": "0x0",
        "input": "0x9e436f570000000000000000000000004eccff261b376277c521b25aedc2446239e777df00000000000000000000000070f648c883566493fbaad3d329815eabbde8ab310000000000000000000000000000000000000000000000000000000000000bb8000000000000000000000000000000000000000000000000000000000000003c0000000000000000000000006145f3cba8c95a572548e3cf47c8cec729cc288800000000000000000000000000000000000000000000021e19e0c9bab2400000",
        "nonce": "0x30",
        "chainId": "0x515"
      },
      "additionalContracts": [],
      "isFixedGasLimit": false
    },
    {
      "hash": "0x7b298f606df8f40c0cc6934b25291553c69568bc326511d81f2dc138b02661a3",
      "transactionType": "CALL",
      "contractName": "TestToken",
      "contractAddress": "0x4eccff261b376277c521b25aedc2446239e777df",
      "function": "approve(address,uint256)",
      "arguments": [
        "0x0ae5F4aFe70f0A9351D8c0fd017183722437eEdf",
        "115792089237316195423570985008687907853269984665640564039457584007913129639935"
      ],
      "transaction": {
        "from": "0xec891a037f932493624184970a283ab87398e0a6",
        "to": "0x4eccff261b376277c521b25aedc2446239e777df",
        "gas": "0x10837",
        "value": "0x0",
        "input": "0x095ea7b30000000000000000000000000ae5f4afe70f0a9351d8c0fd017183722437eedfffffffffffffffffffffffffffffffffffffffffffffffffffffffffffffffff",
        "nonce": "0x31",
        "chainId": "0x515"
      },
      "additionalContracts": [],
      "isFixedGasLimit": false
    },
    {
      "hash": "0xbf8cb8c41ece9372af4b8d4a978eac27fdf6cd46d5cb895c1d12676a160144d9",
      "transactionType": "CALL",
      "contractName": "TestToken",
      "contractAddress": "0x70f648c883566493fbaad3d329815eabbde8ab31",
      "function": "approve(address,uint256)",
      "arguments": [
        "0x0ae5F4aFe70f0A9351D8c0fd017183722437eEdf",
        "115792089237316195423570985008687907853269984665640564039457584007913129639935"
      ],
      "transaction": {
        "from": "0xec891a037f932493624184970a283ab87398e0a6",
        "to": "0x70f648c883566493fbaad3d329815eabbde8ab31",
        "gas": "0x10837",
        "value": "0x0",
        "input": "0x095ea7b30000000000000000000000000ae5f4afe70f0a9351d8c0fd017183722437eedfffffffffffffffffffffffffffffffffffffffffffffffffffffffffffffffff",
        "nonce": "0x32",
        "chainId": "0x515"
      },
      "additionalContracts": [],
      "isFixedGasLimit": false
    },
    {
      "hash": "0x69a482419b9f1d15eb3ae6ae1d80d0611e2c3a4a65ddc77a731cb56516227234",
      "transactionType": "CALL",
      "contractName": "SimpleSwapRouter",
      "contractAddress": "0x0ae5f4afe70f0a9351d8c0fd017183722437eedf",
      "function": "swap((address,address,uint24,int24,address),(bool,int256,uint160))",
      "arguments": [
        "(0x4eccff261b376277C521b25aEdC2446239e777Df, 0x70F648C883566493fbaaD3D329815eABbDE8AB31, 3000, 60, 0x6145f3Cba8c95A572548e3Cf47C8CEc729CC2888)",
        "(true, -100000000000000000000, 4295128740)"
      ],
      "transaction": {
        "from": "0xec891a037f932493624184970a283ab87398e0a6",
        "to": "0x0ae5f4afe70f0a9351d8c0fd017183722437eedf",
        "gas": "0x2e83d",
        "value": "0x0",
        "input": "0x1e2817de0000000000000000000000004eccff261b376277c521b25aedc2446239e777df00000000000000000000000070f648c883566493fbaad3d329815eabbde8ab310000000000000000000000000000000000000000000000000000000000000bb8000000000000000000000000000000000000000000000000000000000000003c0000000000000000000000006145f3cba8c95a572548e3cf47c8cec729cc28880000000000000000000000000000000000000000000000000000000000000001fffffffffffffffffffffffffffffffffffffffffffffffa9438a1d29cf0000000000000000000000000000000000000000000000000000000000001000276a4",
        "nonce": "0x33",
        "chainId": "0x515"
      },
      "additionalContracts": [],
      "isFixedGasLimit": false
    }
  ],
  "receipts": [
    {
      "status": "0x1",
      "cumulativeGasUsed": "0xce4be",
      "logs": [
        {
          "address": "0x70f648c883566493fbaad3d329815eabbde8ab31",
          "topics": [
            "0xddf252ad1be2c89b69c2b068fc378daa952ba7f163c4a11628f55a4df523b3ef",
            "0x0000000000000000000000000000000000000000000000000000000000000000",
            "0x000000000000000000000000ec891a037f932493624184970a283ab87398e0a6"
          ],
          "data": "0x00000000000000000000000000000000000000000000d3c21bcecceda1000000",
          "blockHash": "0x310a892e5bc7d2c12d23e6a1d67e2be9706081dbd952a4ef2f44390f3d3df005",
          "blockNumber": "0x2478640",
          "blockTimestamp": "0x6935338c",
          "transactionHash": "0x6ba48e6e53c98b3a7a1ac3dfb1a275bd590463d98df6927882a7ade74a60e599",
          "transactionIndex": "0x5",
          "logIndex": "0x0",
          "removed": false
        }
      ],
      "logsBloom": "0x00000000000000000000000000000000000000000000000000000000000000000000000000000200000000000000000000000000000000000000000000400000000000000000000000000008000000000000000000000000000000000000000000000000020000000000000000000800100000000000000000000010000000080000000000000000001000000000000000000000000000000000000000000000000000000000000000000000000000000000000000000000000000000000000000000002000000000000000000000000000000000020000000000000000020000000000000000000000000000000000000000000000000000000000000000000",
      "type": "0x2",
      "transactionHash": "0x6ba48e6e53c98b3a7a1ac3dfb1a275bd590463d98df6927882a7ade74a60e599",
      "transactionIndex": "0x5",
      "blockHash": "0x310a892e5bc7d2c12d23e6a1d67e2be9706081dbd952a4ef2f44390f3d3df005",
      "blockNumber": "0x2478640",
      "gasUsed": "0xada9c",
      "effectiveGasPrice": "0x33",
      "blobGasUsed": "0xdb3d0",
      "from": "0xec891a037f932493624184970a283ab87398e0a6",
      "to": null,
      "contractAddress": "0x70f648c883566493fbaad3d329815eabbde8ab31",
      "daFootprintGasScalar": "0x190",
      "l1BaseFeeScalar": "0x7d0",
      "l1BlobBaseFee": "0x1",
      "l1BlobBaseFeeScalar": "0xdbba0",
      "l1Fee": "0xafb",
      "l1GasPrice": "0xb",
      "l1GasUsed": "0x8c53"
    },
    {
      "status": "0x1",
      "cumulativeGasUsed": "0x1866da",
      "logs": [
        {
          "address": "0x4eccff261b376277c521b25aedc2446239e777df",
          "topics": [
            "0xddf252ad1be2c89b69c2b068fc378daa952ba7f163c4a11628f55a4df523b3ef",
            "0x0000000000000000000000000000000000000000000000000000000000000000",
            "0x000000000000000000000000ec891a037f932493624184970a283ab87398e0a6"
          ],
          "data": "0x00000000000000000000000000000000000000000000d3c21bcecceda1000000",
          "blockHash": "0x310a892e5bc7d2c12d23e6a1d67e2be9706081dbd952a4ef2f44390f3d3df005",
          "blockNumber": "0x2478640",
          "blockTimestamp": "0x6935338c",
          "transactionHash": "0x0624647ef1867fcbb41c1d9c1622e42ef950c93ac9b1cceb3e0faec81f898752",
          "transactionIndex": "0x8",
          "logIndex": "0x1",
          "removed": false
        }
      ],
      "logsBloom": "0x00000008000000000000000000000000000000000000000000000000000000000000000000000200000000000000004000000000000000000000000000040000000000000000000000000008000000000000000000000000000000000000000000000000020000000000000000000800100000000000000000000010000000080000000000000000000000000000000000000000000000000000000000000000000000000000000000000000000000000000000000000000000000000000000000000002000000000000000000000000000000000000000000000000000020000000000000000000000000000000000000000000000000000000000000000000",
      "type": "0x2",
      "transactionHash": "0x0624647ef1867fcbb41c1d9c1622e42ef950c93ac9b1cceb3e0faec81f898752",
      "transactionIndex": "0x8",
      "blockHash": "0x310a892e5bc7d2c12d23e6a1d67e2be9706081dbd952a4ef2f44390f3d3df005",
      "blockNumber": "0x2478640",
      "gasUsed": "0xada9c",
      "effectiveGasPrice": "0x33",
      "blobGasUsed": "0xdb3d0",
      "from": "0xec891a037f932493624184970a283ab87398e0a6",
      "to": null,
      "contractAddress": "0x4eccff261b376277c521b25aedc2446239e777df",
      "daFootprintGasScalar": "0x190",
      "l1BaseFeeScalar": "0x7d0",
      "l1BlobBaseFee": "0x1",
      "l1BlobBaseFeeScalar": "0xdbba0",
      "l1Fee": "0xafb",
      "l1GasPrice": "0xb",
      "l1GasUsed": "0x8c53"
    },
    {
      "status": "0x1",
      "cumulativeGasUsed": "0x21e16b",
      "logs": [],
      "logsBloom": "0x00000000000000000000000000000000000000000000000000000000000000000000000000000000000000000000000000000000000000000000000000000000000000000000000000000000000000000000000000000000000000000000000000000000000000000000000000000000000000000000000000000000000000000000000000000000000000000000000000000000000000000000000000000000000000000000000000000000000000000000000000000000000000000000000000000000000000000000000000000000000000000000000000000000000000000000000000000000000000000000000000000000000000000000000000000000",
      "type": "0x2",
      "transactionHash": "0x187e380bc35641179b3ff5c8e547950ce6a3823f046e305dcdcc1cf9c2deebab",
      "transactionIndex": "0x9",
      "blockHash": "0x310a892e5bc7d2c12d23e6a1d67e2be9706081dbd952a4ef2f44390f3d3df005",
      "blockNumber": "0x2478640",
      "gasUsed": "0x97a91",
      "effectiveGasPrice": "0x33",
      "blobGasUsed": "0xa82a0",
      "from": "0xec891a037f932493624184970a283ab87398e0a6",
      "to": null,
      "contractAddress": "0x0ae5f4afe70f0a9351d8c0fd017183722437eedf",
      "daFootprintGasScalar": "0x190",
      "l1BaseFeeScalar": "0x7d0",
      "l1BlobBaseFee": "0x1",
      "l1BlobBaseFeeScalar": "0xdbba0",
      "l1Fee": "0x86c",
      "l1GasPrice": "0xb",
      "l1GasUsed": "0x6ba6"
    },
    {
      "status": "0x1",
      "cumulativeGasUsed": "0x3db6e1",
      "logs": [],
      "logsBloom": "0x00000000000000000000000000000000000000000000000000000000000000000000000000000000000000000000000000000000000000000000000000000000000000000000000000000000000000000000000000000000000000000000000000000000000000000000000000000000000000000000000000000000000000000000000000000000000000000000000000000000000000000000000000000000000000000000000000000000000000000000000000000000000000000000000000000000000000000000000000000000000000000000000000000000000000000000000000000000000000000000000000000000000000000000000000000000",
      "type": "0x2",
      "transactionHash": "0xb4cefc1debb0e67fe44583864cb08bc345b30ad47fede3d581907c74947bc61d",
      "transactionIndex": "0xa",
      "blockHash": "0x310a892e5bc7d2c12d23e6a1d67e2be9706081dbd952a4ef2f44390f3d3df005",
      "blockNumber": "0x2478640",
      "gasUsed": "0x1bd576",
      "effectiveGasPrice": "0x33",
      "blobGasUsed": "0x1b94f0",
      "from": "0xec891a037f932493624184970a283ab87398e0a6",
      "to": "0x4e59b44847b379578588920ca78fbf26c0b4956c",
      "contractAddress": null,
      "daFootprintGasScalar": "0x190",
      "l1BaseFeeScalar": "0x7d0",
      "l1BlobBaseFee": "0x1",
      "l1BlobBaseFeeScalar": "0xdbba0",
      "l1Fee": "0x161a",
      "l1GasPrice": "0xb",
      "l1GasUsed": "0x11a7a"
    },
    {
      "status": "0x1",
      "cumulativeGasUsed": "0x33d21",
      "logs": [
        {
          "address": "0x00b036b58a818b1bc34d502d3fe730db729e62ac",
          "topics": [
            "0xdd466e674ea557f56295e2d0218a125ea4b4f0f6f3307b95f85e6110838d6438",
            "0xca8ffd4ffd278b407a985189cf545665f4b67ba8bad2749e314a4872ab370324",
            "0x0000000000000000000000004eccff261b376277c521b25aedc2446239e777df",
            "0x00000000000000000000000070f648c883566493fbaad3d329815eabbde8ab31"
          ],
          "data": "0x0000000000000000000000000000000000000000000000000000000000000bb8000000000000000000000000000000000000000000000000000000000000003c0000000000000000000000006145f3cba8c95a572548e3cf47c8cec729cc288800000000000000000000000000000000000000010000000000000000000000000000000000000000000000000000000000000000000000000000000000000000",
          "blockHash": "0xb82b4a8cb8e965662011df56b804187e2c74287bae0b4f3ffd8ca0271b8af30b",
          "blockNumber": "0x2478641",
          "blockTimestamp": "0x6935338d",
          "transactionHash": "0x283ad6c6540dad0fe3f662e68627dc6637f9d3e2d24556e94041262225707cc0",
          "transactionIndex": "0x5",
          "logIndex": "0x0",
          "removed": false
        }
      ],
      "logsBloom": "0x00000000000000000000000000000000000000000000000000000000000000000000000000000000000000000000000000000000000000000000000000000000000000000000000000000000000000000000000000400000000000010000000000000000000000000000000000000000000000000000000000000000000000000000000000000008000000000008000000000001000000000000000000200000000000000000000000000000000100008000000000000000000000000000000000000000000000000000000020000000000000000000000000000000000000000008000000200002000000000800000000000000000002000000000000000010",
      "type": "0x2",
      "transactionHash": "0x283ad6c6540dad0fe3f662e68627dc6637f9d3e2d24556e94041262225707cc0",
      "transactionIndex": "0x5",
      "blockHash": "0xb82b4a8cb8e965662011df56b804187e2c74287bae0b4f3ffd8ca0271b8af30b",
      "blockNumber": "0x2478641",
      "gasUsed": "0x132ff",
      "effectiveGasPrice": "0x33",
      "blobGasUsed": "0xd7a0",
      "from": "0xec891a037f932493624184970a283ab87398e0a6",
      "to": "0x00b036b58a818b1bc34d502d3fe730db729e62ac",
      "contractAddress": null,
      "daFootprintGasScalar": "0x190",
      "l1BaseFeeScalar": "0x7d0",
      "l1BlobBaseFee": "0x1",
      "l1BlobBaseFeeScalar": "0xdbba0",
      "l1Fee": "0xac",
      "l1GasPrice": "0xb",
      "l1GasUsed": "0x8a1"
    },
    {
      "status": "0x1",
      "cumulativeGasUsed": "0x3f1ca",
      "logs": [
        {
          "address": "0x4eccff261b376277c521b25aedc2446239e777df",
          "topics": [
            "0x8c5be1e5ebec7d5bd14f71427d1e84f3dd0314c0f7b2291e5b200ac8c7c3b925",
            "0x000000000000000000000000ec891a037f932493624184970a283ab87398e0a6",
            "0x0000000000000000000000006145f3cba8c95a572548e3cf47c8cec729cc2888"
          ],
          "data": "0xffffffffffffffffffffffffffffffffffffffffffffffffffffffffffffffff",
          "blockHash": "0xb82b4a8cb8e965662011df56b804187e2c74287bae0b4f3ffd8ca0271b8af30b",
          "blockNumber": "0x2478641",
          "blockTimestamp": "0x6935338d",
          "transactionHash": "0x29a51c46e4d4dc0ae007b4c7334031a8d0385e92a593a72e81c6d9bdc3b576e3",
          "transactionIndex": "0x6",
          "logIndex": "0x1",
          "removed": false
        }
      ],
      "logsBloom": "0x00000008000000000000000000000000000000000000000000000000000000000000000000000200000000000000004000000000000000000000000000240000000000000000000000000000000000000000000000000000000000000000000000000000000000000000010000000000100000000000000000000000000000080000000000000000000000000000000000000000000000000000000000000000020000000000000000000000000000000000000000200000000000000000000000000000000000000000000000000000000000000000000000000000000000000010000000000000000000000000000000002000000000000000000000000000",
      "type": "0x2",
      "transactionHash": "0x29a51c46e4d4dc0ae007b4c7334031a8d0385e92a593a72e81c6d9bdc3b576e3",
      "transactionIndex": "0x6",
      "blockHash": "0xb82b4a8cb8e965662011df56b804187e2c74287bae0b4f3ffd8ca0271b8af30b",
      "blockNumber": "0x2478641",
      "gasUsed": "0xb4a9",
      "effectiveGasPrice": "0x33",
      "blobGasUsed": "0x9c40",
      "from": "0xec891a037f932493624184970a283ab87398e0a6",
      "to": "0x4eccff261b376277c521b25aedc2446239e777df",
      "contractAddress": null,
      "daFootprintGasScalar": "0x190",
      "l1BaseFeeScalar": "0x7d0",
      "l1BlobBaseFee": "0x1",
      "l1BlobBaseFeeScalar": "0xdbba0",
      "l1Fee": "0x7d",
      "l1GasPrice": "0xb",
      "l1GasUsed": "0x640"
    },
    {
      "status": "0x1",
      "cumulativeGasUsed": "0x4a673",
      "logs": [
        {
          "address": "0x70f648c883566493fbaad3d329815eabbde8ab31",
          "topics": [
            "0x8c5be1e5ebec7d5bd14f71427d1e84f3dd0314c0f7b2291e5b200ac8c7c3b925",
            "0x000000000000000000000000ec891a037f932493624184970a283ab87398e0a6",
            "0x0000000000000000000000006145f3cba8c95a572548e3cf47c8cec729cc2888"
          ],
          "data": "0xffffffffffffffffffffffffffffffffffffffffffffffffffffffffffffffff",
          "blockHash": "0xb82b4a8cb8e965662011df56b804187e2c74287bae0b4f3ffd8ca0271b8af30b",
          "blockNumber": "0x2478641",
          "blockTimestamp": "0x6935338d",
          "transactionHash": "0x58bc1809eb627714606d100dd7c82dc8812233522e691417e0b655442745de8a",
          "transactionIndex": "0x7",
          "logIndex": "0x2",
          "removed": false
        }
      ],
      "logsBloom": "0x00000000000000000000000000000000000000000000000000000000000000000000000000000200000000000000000000000000000000000000000000600000000000000000000000000000000000000000000000000000000000000000000000000000000000000000010000000000100000000000000000000000000000080000000000000000001000000000000000000000000000000000000000000000020000000000000000000000000000000000000000200000000000000000000000000000000000000000000000000000000000000020000000000000000000000010000000000000000000000000000000002000000000000000000000000000",
      "type": "0x2",
      "transactionHash": "0x58bc1809eb627714606d100dd7c82dc8812233522e691417e0b655442745de8a",
      "transactionIndex": "0x7",
      "blockHash": "0xb82b4a8cb8e965662011df56b804187e2c74287bae0b4f3ffd8ca0271b8af30b",
      "blockNumber": "0x2478641",
      "gasUsed": "0xb4a9",
      "effectiveGasPrice": "0x33",
      "blobGasUsed": "0x9c40",
      "from": "0xec891a037f932493624184970a283ab87398e0a6",
      "to": "0x70f648c883566493fbaad3d329815eabbde8ab31",
      "contractAddress": null,
      "daFootprintGasScalar": "0x190",
      "l1BaseFeeScalar": "0x7d0",
      "l1BlobBaseFee": "0x1",
      "l1BlobBaseFeeScalar": "0xdbba0",
      "l1Fee": "0x7d",
      "l1GasPrice": "0xb",
      "l1GasUsed": "0x640"
    },
    {
      "status": "0x1",
      "cumulativeGasUsed": "0x7e72b",
      "logs": [
        {
          "address": "0x4eccff261b376277c521b25aedc2446239e777df",
          "topics": [
            "0xddf252ad1be2c89b69c2b068fc378daa952ba7f163c4a11628f55a4df523b3ef",
            "0x000000000000000000000000ec891a037f932493624184970a283ab87398e0a6",
            "0x00000000000000000000000000b036b58a818b1bc34d502d3fe730db729e62ac"
          ],
          "data": "0x00000000000000000000000000000000000000000000021e19e0c9bab2400000",
          "blockHash": "0xb82b4a8cb8e965662011df56b804187e2c74287bae0b4f3ffd8ca0271b8af30b",
          "blockNumber": "0x2478641",
          "blockTimestamp": "0x6935338d",
          "transactionHash": "0x30466f0aa1cf7d2c6cbbff50c00b8fb138305481540635ac3c17f02fc94377c2",
          "transactionIndex": "0x8",
          "logIndex": "0x3",
          "removed": false
        },
        {
          "address": "0x70f648c883566493fbaad3d329815eabbde8ab31",
          "topics": [
            "0xddf252ad1be2c89b69c2b068fc378daa952ba7f163c4a11628f55a4df523b3ef",
            "0x000000000000000000000000ec891a037f932493624184970a283ab87398e0a6",
            "0x00000000000000000000000000b036b58a818b1bc34d502d3fe730db729e62ac"
          ],
          "data": "0x00000000000000000000000000000000000000000000021e19e0c9bab2400000",
          "blockHash": "0xb82b4a8cb8e965662011df56b804187e2c74287bae0b4f3ffd8ca0271b8af30b",
          "blockNumber": "0x2478641",
          "blockTimestamp": "0x6935338d",
          "transactionHash": "0x30466f0aa1cf7d2c6cbbff50c00b8fb138305481540635ac3c17f02fc94377c2",
          "transactionIndex": "0x8",
          "logIndex": "0x4",
          "removed": false
        },
        {
          "address": "0x00b036b58a818b1bc34d502d3fe730db729e62ac",
          "topics": [
            "0x1b3d7edb2e9c0b0e7c525b20aaaef0f5940d2ed71663c7d39266ecafac728859",
            "0x0000000000000000000000000000000000000000000000000000000000000000",
            "0x0000000000000000000000006145f3cba8c95a572548e3cf47c8cec729cc2888",
            "0x0000000000000000000000004eccff261b376277c521b25aedc2446239e777df"
          ],
          "data": "0x0000000000000000000000006145f3cba8c95a572548e3cf47c8cec729cc288800000000000000000000000000000000000000000000021e19e0c9bab2400000",
          "blockHash": "0xb82b4a8cb8e965662011df56b804187e2c74287bae0b4f3ffd8ca0271b8af30b",
          "blockNumber": "0x2478641",
          "blockTimestamp": "0x6935338d",
          "transactionHash": "0x30466f0aa1cf7d2c6cbbff50c00b8fb138305481540635ac3c17f02fc94377c2",
          "transactionIndex": "0x8",
          "logIndex": "0x5",
          "removed": false
        },
        {
          "address": "0x00b036b58a818b1bc34d502d3fe730db729e62ac",
          "topics": [
            "0x1b3d7edb2e9c0b0e7c525b20aaaef0f5940d2ed71663c7d39266ecafac728859",
            "0x0000000000000000000000000000000000000000000000000000000000000000",
            "0x0000000000000000000000006145f3cba8c95a572548e3cf47c8cec729cc2888",
            "0x00000000000000000000000070f648c883566493fbaad3d329815eabbde8ab31"
          ],
          "data": "0x0000000000000000000000006145f3cba8c95a572548e3cf47c8cec729cc288800000000000000000000000000000000000000000000021e19e0c9bab2400000",
          "blockHash": "0xb82b4a8cb8e965662011df56b804187e2c74287bae0b4f3ffd8ca0271b8af30b",
          "blockNumber": "0x2478641",
          "blockTimestamp": "0x6935338d",
          "transactionHash": "0x30466f0aa1cf7d2c6cbbff50c00b8fb138305481540635ac3c17f02fc94377c2",
          "transactionIndex": "0x8",
          "logIndex": "0x6",
          "removed": false
        },
        {
          "address": "0x6145f3cba8c95a572548e3cf47c8cec729cc2888",
          "topics": [
            "0x47b0d68dd7ea64624970139aa6c676e4e099d12cee4af2dfe393f2353fea86b1",
            "0xca8ffd4ffd278b407a985189cf545665f4b67ba8bad2749e314a4872ab370324",
            "0x000000000000000000000000ec891a037f932493624184970a283ab87398e0a6"
          ],
          "data": "0x00000000000000000000000000000000000000000000021e19e0c9bab240000000000000000000000000000000000000000000000000021e19e0c9bab2400000",
          "blockHash": "0xb82b4a8cb8e965662011df56b804187e2c74287bae0b4f3ffd8ca0271b8af30b",
          "blockNumber": "0x2478641",
          "blockTimestamp": "0x6935338d",
          "transactionHash": "0x30466f0aa1cf7d2c6cbbff50c00b8fb138305481540635ac3c17f02fc94377c2",
          "transactionIndex": "0x8",
          "logIndex": "0x7",
          "removed": false
        }
      ],
      "logsBloom": "0x00000008000000000000000000000000000000000000000008000000000000000000000000000200000000000000004000000000001000000000000000440000000000000000000000000008800004000000000000400000000000010000000000000000020000008000010000004800100000000000000000000014000000080000000000000000001000000008001000000000000000000000000000000000000000000000002000000000000120008000000000200020000000000000000000000002000000000000000020000000000000000020000000000000000020000008000000200002000000000800000000002000000002000000000004000010",
      "type": "0x2",
      "transactionHash": "0x30466f0aa1cf7d2c6cbbff50c00b8fb138305481540635ac3c17f02fc94377c2",
      "transactionIndex": "0x8",
      "blockHash": "0xb82b4a8cb8e965662011df56b804187e2c74287bae0b4f3ffd8ca0271b8af30b",
      "blockNumber": "0x2478641",
      "gasUsed": "0x340b8",
      "effectiveGasPrice": "0x33",
      "blobGasUsed": "0xc4e0",
      "from": "0xec891a037f932493624184970a283ab87398e0a6",
      "to": "0x6145f3cba8c95a572548e3cf47c8cec729cc2888",
      "contractAddress": null,
      "daFootprintGasScalar": "0x190",
      "l1BaseFeeScalar": "0x7d0",
      "l1BlobBaseFee": "0x1",
      "l1BlobBaseFeeScalar": "0xdbba0",
      "l1Fee": "0x9e",
      "l1GasPrice": "0xb",
      "l1GasUsed": "0x7e6"
    },
    {
      "status": "0x1",
      "cumulativeGasUsed": "0x89bd4",
      "logs": [
        {
          "address": "0x4eccff261b376277c521b25aedc2446239e777df",
          "topics": [
            "0x8c5be1e5ebec7d5bd14f71427d1e84f3dd0314c0f7b2291e5b200ac8c7c3b925",
            "0x000000000000000000000000ec891a037f932493624184970a283ab87398e0a6",
            "0x0000000000000000000000000ae5f4afe70f0a9351d8c0fd017183722437eedf"
          ],
          "data": "0xffffffffffffffffffffffffffffffffffffffffffffffffffffffffffffffff",
          "blockHash": "0xb82b4a8cb8e965662011df56b804187e2c74287bae0b4f3ffd8ca0271b8af30b",
          "blockNumber": "0x2478641",
          "blockTimestamp": "0x6935338d",
          "transactionHash": "0x7b298f606df8f40c0cc6934b25291553c69568bc326511d81f2dc138b02661a3",
          "transactionIndex": "0x9",
          "logIndex": "0x8",
          "removed": false
        }
      ],
      "logsBloom": "0x00000008000000000000000000000000000000000000000000000000000000000000000000000200000000000000004000000000000000000000000000240000000000000000000000000000000000000000000000000000000000040000000000000000000000000000000000000000100000000000000000000000000000080000000000000000000000000000000000000000000000000000000000000000020010000000000000000000000000000000000000000000000000000000000000000000000000000000000000000000000000200000000000000000000000000010000000000000000000000000000000000000000000000000000000000000",
      "type": "0x2",
      "transactionHash": "0x7b298f606df8f40c0cc6934b25291553c69568bc326511d81f2dc138b02661a3",
      "transactionIndex": "0x9",
      "blockHash": "0xb82b4a8cb8e965662011df56b804187e2c74287bae0b4f3ffd8ca0271b8af30b",
      "blockNumber": "0x2478641",
      "gasUsed": "0xb4a9",
      "effectiveGasPrice": "0x33",
      "blobGasUsed": "0x9c40",
      "from": "0xec891a037f932493624184970a283ab87398e0a6",
      "to": "0x4eccff261b376277c521b25aedc2446239e777df",
      "contractAddress": null,
      "daFootprintGasScalar": "0x190",
      "l1BaseFeeScalar": "0x7d0",
      "l1BlobBaseFee": "0x1",
      "l1BlobBaseFeeScalar": "0xdbba0",
      "l1Fee": "0x7d",
      "l1GasPrice": "0xb",
      "l1GasUsed": "0x640"
    },
    {
      "status": "0x1",
      "cumulativeGasUsed": "0x9507d",
      "logs": [
        {
          "address": "0x70f648c883566493fbaad3d329815eabbde8ab31",
          "topics": [
            "0x8c5be1e5ebec7d5bd14f71427d1e84f3dd0314c0f7b2291e5b200ac8c7c3b925",
            "0x000000000000000000000000ec891a037f932493624184970a283ab87398e0a6",
            "0x0000000000000000000000000ae5f4afe70f0a9351d8c0fd017183722437eedf"
          ],
          "data": "0xffffffffffffffffffffffffffffffffffffffffffffffffffffffffffffffff",
          "blockHash": "0xb82b4a8cb8e965662011df56b804187e2c74287bae0b4f3ffd8ca0271b8af30b",
          "blockNumber": "0x2478641",
          "blockTimestamp": "0x6935338d",
          "transactionHash": "0xbf8cb8c41ece9372af4b8d4a978eac27fdf6cd46d5cb895c1d12676a160144d9",
          "transactionIndex": "0xa",
          "logIndex": "0x9",
          "removed": false
        }
      ],
      "logsBloom": "0x00000000000000000000000000000000000000000000000000000000000000000000000000000200000000000000000000000000000000000000000000600000000000000000000000000000000000000000000000000000000000040000000000000000000000000000000000000000100000000000000000000000000000080000000000000000001000000000000000000000000000000000000000000000020010000000000000000000000000000000000000000000000000000000000000000000000000000000000000000000000000200020000000000000000000000010000000000000000000000000000000000000000000000000000000000000",
      "type": "0x2",
      "transactionHash": "0xbf8cb8c41ece9372af4b8d4a978eac27fdf6cd46d5cb895c1d12676a160144d9",
      "transactionIndex": "0xa",
      "blockHash": "0xb82b4a8cb8e965662011df56b804187e2c74287bae0b4f3ffd8ca0271b8af30b",
      "blockNumber": "0x2478641",
      "gasUsed": "0xb4a9",
      "effectiveGasPrice": "0x33",
      "blobGasUsed": "0x9c40",
      "from": "0xec891a037f932493624184970a283ab87398e0a6",
      "to": "0x70f648c883566493fbaad3d329815eabbde8ab31",
      "contractAddress": null,
      "daFootprintGasScalar": "0x190",
      "l1BaseFeeScalar": "0x7d0",
      "l1BlobBaseFee": "0x1",
      "l1BlobBaseFeeScalar": "0xdbba0",
      "l1Fee": "0x7d",
      "l1GasPrice": "0xb",
      "l1GasUsed": "0x640"
    },
    {
      "status": "0x1",
      "cumulativeGasUsed": "0xb4d5f",
      "logs": [
        {
          "address": "0x00b036b58a818b1bc34d502d3fe730db729e62ac",
          "topics": [
            "0x1b3d7edb2e9c0b0e7c525b20aaaef0f5940d2ed71663c7d39266ecafac728859",
            "0x0000000000000000000000000000000000000000000000000000000000000000",
            "0x0000000000000000000000006145f3cba8c95a572548e3cf47c8cec729cc2888",
            "0x0000000000000000000000004eccff261b376277c521b25aedc2446239e777df"
          ],
          "data": "0x0000000000000000000000006145f3cba8c95a572548e3cf47c8cec729cc28880000000000000000000000000000000000000000000000056bc75e2d63100000",
          "blockHash": "0xb82b4a8cb8e965662011df56b804187e2c74287bae0b4f3ffd8ca0271b8af30b",
          "blockNumber": "0x2478641",
          "blockTimestamp": "0x6935338d",
          "transactionHash": "0x69a482419b9f1d15eb3ae6ae1d80d0611e2c3a4a65ddc77a731cb56516227234",
          "transactionIndex": "0xb",
          "logIndex": "0xa",
          "removed": false
        },
        {
          "address": "0x00b036b58a818b1bc34d502d3fe730db729e62ac",
          "topics": [
            "0x1b3d7edb2e9c0b0e7c525b20aaaef0f5940d2ed71663c7d39266ecafac728859",
            "0x0000000000000000000000006145f3cba8c95a572548e3cf47c8cec729cc2888",
            "0x0000000000000000000000000000000000000000000000000000000000000000",
            "0x00000000000000000000000070f648c883566493fbaad3d329815eabbde8ab31"
          ],
          "data": "0x0000000000000000000000006145f3cba8c95a572548e3cf47c8cec729cc28880000000000000000000000000000000000000000000000056bc75e2d63100000",
          "blockHash": "0xb82b4a8cb8e965662011df56b804187e2c74287bae0b4f3ffd8ca0271b8af30b",
          "blockNumber": "0x2478641",
          "blockTimestamp": "0x6935338d",
          "transactionHash": "0x69a482419b9f1d15eb3ae6ae1d80d0611e2c3a4a65ddc77a731cb56516227234",
          "transactionIndex": "0xb",
          "logIndex": "0xb",
          "removed": false
        },
        {
          "address": "0x6145f3cba8c95a572548e3cf47c8cec729cc2888",
          "topics": [
            "0x7ae1fc07b9bee54803f9f0fe130c25b787a7b7cff8159ca04e338454bbd6b61b",
            "0xca8ffd4ffd278b407a985189cf545665f4b67ba8bad2749e314a4872ab370324",
            "0x0000000000000000000000000ae5f4afe70f0a9351d8c0fd017183722437eedf"
          ],
          "data": "0x0000000000000000000000000000000000000000000000056bc75e2d631000000000000000000000000000000000000000000000000000056bc75e2d631000000000000000000000000000000000000000000000000000000000000000000001",
          "blockHash": "0xb82b4a8cb8e965662011df56b804187e2c74287bae0b4f3ffd8ca0271b8af30b",
          "blockNumber": "0x2478641",
          "blockTimestamp": "0x6935338d",
          "transactionHash": "0x69a482419b9f1d15eb3ae6ae1d80d0611e2c3a4a65ddc77a731cb56516227234",
          "transactionIndex": "0xb",
          "logIndex": "0xc",
          "removed": false
        },
        {
          "address": "0x00b036b58a818b1bc34d502d3fe730db729e62ac",
          "topics": [
            "0x40e9cecb9f5f1f1c5b9c97dec2917b7ee92e57ba5563708daca94dd84ad7112f",
            "0xca8ffd4ffd278b407a985189cf545665f4b67ba8bad2749e314a4872ab370324",
            "0x0000000000000000000000000ae5f4afe70f0a9351d8c0fd017183722437eedf"
          ],
          "data": "0x000000000000000000000000000000000000000000000000000000000000000000000000000000000000000000000000000000000000000000000000000000000000000000000000000000000000000000000001000000000000000000000000000000000000000000000000000000000000000000000000000000000000000000000000000000000000000000000000000000000000000000000000000000000000000000000000000000000000000000000000000000000000000000000bb8",
          "blockHash": "0xb82b4a8cb8e965662011df56b804187e2c74287bae0b4f3ffd8ca0271b8af30b",
          "blockNumber": "0x2478641",
          "blockTimestamp": "0x6935338d",
          "transactionHash": "0x69a482419b9f1d15eb3ae6ae1d80d0611e2c3a4a65ddc77a731cb56516227234",
          "transactionIndex": "0xb",
          "logIndex": "0xd",
          "removed": false
        },
        {
          "address": "0x4eccff261b376277c521b25aedc2446239e777df",
          "topics": [
            "0xddf252ad1be2c89b69c2b068fc378daa952ba7f163c4a11628f55a4df523b3ef",
            "0x000000000000000000000000ec891a037f932493624184970a283ab87398e0a6",
            "0x00000000000000000000000000b036b58a818b1bc34d502d3fe730db729e62ac"
          ],
          "data": "0x0000000000000000000000000000000000000000000000056bc75e2d63100000",
          "blockHash": "0xb82b4a8cb8e965662011df56b804187e2c74287bae0b4f3ffd8ca0271b8af30b",
          "blockNumber": "0x2478641",
          "blockTimestamp": "0x6935338d",
          "transactionHash": "0x69a482419b9f1d15eb3ae6ae1d80d0611e2c3a4a65ddc77a731cb56516227234",
          "transactionIndex": "0xb",
          "logIndex": "0xe",
          "removed": false
        },
        {
          "address": "0x70f648c883566493fbaad3d329815eabbde8ab31",
          "topics": [
            "0xddf252ad1be2c89b69c2b068fc378daa952ba7f163c4a11628f55a4df523b3ef",
            "0x00000000000000000000000000b036b58a818b1bc34d502d3fe730db729e62ac",
            "0x000000000000000000000000ec891a037f932493624184970a283ab87398e0a6"
          ],
          "data": "0x0000000000000000000000000000000000000000000000056bc75e2d63100000",
          "blockHash": "0xb82b4a8cb8e965662011df56b804187e2c74287bae0b4f3ffd8ca0271b8af30b",
          "blockNumber": "0x2478641",
          "blockTimestamp": "0x6935338d",
          "transactionHash": "0x69a482419b9f1d15eb3ae6ae1d80d0611e2c3a4a65ddc77a731cb56516227234",
          "transactionIndex": "0xb",
          "logIndex": "0xf",
          "removed": false
        }
      ],
      "logsBloom": "0x00000008000000000000000000000000000000000000000118000000000000000000000000000200000000000000004000000000041000000000000000440000000000000000000000000008000004000000000000400020000000050000000000000000020000008000010000004800100000000000000000000014000000080000000000000000001000000008000000000000000000000000000000000000000010000000000000000000000120008000000000200020000000000000000000000002000000000000000020000000000000200020000000000000000020000008000000200002004000000800000000002000000002400000000004000010",
      "type": "0x2",
      "transactionHash": "0x69a482419b9f1d15eb3ae6ae1d80d0611e2c3a4a65ddc77a731cb56516227234",
      "transactionIndex": "0xb",
      "blockHash": "0xb82b4a8cb8e965662011df56b804187e2c74287bae0b4f3ffd8ca0271b8af30b",
      "blockNumber": "0x2478641",
      "gasUsed": "0x1fce2",
      "effectiveGasPrice": "0x33",
      "blobGasUsed": "0xef10",
      "from": "0xec891a037f932493624184970a283ab87398e0a6",
      "to": "0x0ae5f4afe70f0a9351d8c0fd017183722437eedf",
      "contractAddress": null,
      "daFootprintGasScalar": "0x190",
      "l1BaseFeeScalar": "0x7d0",
      "l1BlobBaseFee": "0x1",
      "l1BlobBaseFeeScalar": "0xdbba0",
      "l1Fee": "0xc0",
      "l1GasPrice": "0xb",
      "l1GasUsed": "0x99f"
    }
  ],
  "libraries": [],
  "pending": [],
  "returns": {},
  "timestamp": 1765094285579,
  "chain": 1301,
  "commit": "c63462d"
}